:100000000C9462000C948A000C948A000C948A0070
:100010000C948A000C948A000C948A000C948A0038
:100020000C948A000C948A000C948A000C948A0028
:100030000C948A000C948A000C948A000C948A0018
:100040000C949A010C948A000C942A020C948A0055
:100050000C948A000C948A000C948A000C948A00F8
:100060000C948A000C948A000000000024002700F1
:100070002A0000000000250028002B0000000000DE
:1000800023002600290004040404040404040202DA
:100090000202020203030303030301020408102007
:1000A0004080010204081020010204081020000012
:1000B0000007000201000003040600000000000029
:1000C0000000730311241FBECFEFD8E0DEBFCDBF09
:1000D00011E0A0E0B1E0E0ECFAE002C005900D9282
:1000E000A233B107D9F711E0A2E3B1E001C01D923C
:1000F000A23EB107E1F710E0C4ECD0E004C02297C3
:10010000FE010E945A05C23CD107C9F70E940501B1
:100110000C945E050C940000CF93DF938091250131
:1001200061E00E942C018091250160E00E942C0179
:10013000C4E3D1E08091230160E00E942C018EE1B4
:1001400090E00E94E201809132010E947C0199833B
:1001500088838A3091052CF48FEC91E060E071E0A7
:100160000CC0843691052CF48FEC91E065E071E0D1
:1001700004C08FEC91E069E071E00E94E4036881C3
:1001800079818FEC91E00E94CD048091230161E0A0
:100190000E942C01229681E0C234D80759F68FECD8
:1001A00091E00E94EC03DF91CF9108950F931F938C
:1001B0000FEC11E0C80140E855E260E070E00E94F9
:1001C00067028091320160E00E940C01809123015E
:1001D00061E00E940C018091250161E00E940C0108
:1001E00081E00E9479018091250160E00E942C014C
:1001F0008091230161E00E942C01C8016CE071E054
:100200000E9403041F910F9108950E94F0010E9423
:10021000D6000E948C00FDCF282F30E0C901865601
:100220009F4FFC0194912A573F4FF90184918823F5
:1002300091F0E82FF0E0EE0FFF1FE859FF4FA59176
:10024000B491662329F48C91909589238C93089519
:100250008C91892B8C930895482F50E0CA018255C8
:100260009F4FFC012491CA0186569F4FFC01949137
:100270004A575F4FFA0134913323D1F1222331F1F0
:10028000233021F4809180008F7705C0243031F431
:10029000809180008F7D8093800018C0213019F4F8
:1002A00084B58F7704C0223021F484B58F7D84BD5E
:1002B0000DC0263021F48091B0008F7705C0273023
:1002C00029F48091B0008F7D8093B000E32FF0E09F
:1002D000EE0FFF1FEE58FF4FA591B491662329F44E
:1002E0008C91909589238C9308958C91892B8C9374
:1002F00008958093270108958F709091270192951A
:10030000990F990F907C982B90937C0080917A00A4
:10031000806480937A0080917A0086FDFCCF2091E2
:10032000780040917900942F80E030E0282B392B21
:10033000C90108951F920F920FB60F9211242F93A7
:100340003F938F939F93AF93BF938091460190917A
:100350004701A0914801B091490130914A010196AD
:10036000A11DB11D232F2D5F2D3720F02D57019694
:10037000A11DB11D20934A0180934601909347012E
:10038000A0934801B09349018091420190914301AB
:10039000A0914401B09145010196A11DB11D80932A
:1003A000420190934301A0934401B0934501BF9152
:1003B000AF919F918F913F912F910F900FBE0F9012
:1003C0001F901895019759F0FC01EE0FFF1FEE0FDB
:1003D000FF1F32978FB7F8943197F1F78FBF0895C9
:1003E000789484B5826084BD84B5816084BD85B510
:1003F000826085BD85B5816085BDEEE6F0E08081D7
:1004000081608083E1E8F0E0808182608083808188
:1004100081608083E0E8F0E0808181608083E1EBAF
:10042000F0E0808184608083E0EBF0E08081816097
:100430008083EAE7F0E0808184608083808182604D
:100440008083808181608083808180688083109236
:10045000C10008951F920F920FB60F9211242F938F
:100460003F934F935F936F937F938F939F93AF933C
:10047000BF93EF93FF934091C600E091CB01F091C1
:10048000CC01CF01019660E870E00E94F4049C0169
:100490008091CD019091CE012817390739F0E55BA5
:1004A000FE4F40833093CC012093CB01FF91EF911D
:1004B000BF91AF919F918F917F916F915F914F917C
:1004C0003F912F910F900FBE0F901F9018955F9244
:1004D0006F927F928F929F92AF92BF92CF92DF9254
:1004E000EF92FF920F931F93CF93DF93EC013A01AA
:1004F0004B01413482E458078FE0680780E07807B9
:100500000CF07FC060E874E88EE190E0A4019301F4
:100510000E9429052150304040405040CA01B90195
:1005200022E030E040E050E00E94290559016A01D4
:10053000A6019501209530954095509594E0220FA5
:10054000331F441F551F9A95D1F760E074E284EF82
:1005500090E00E942905CA01B9012FEF30E040E088
:1005600050E00E94D504A40193010E942905C9010D
:1005700081509F4F181619061CF4522E5A9403C02E
:1005800055245394521A60E079E08DE390E0A40181
:1005900093010E9429052150304040405040CA013B
:1005A000B90122E030E040E050E00E9429052095AA
:1005B00030954095509583E0220F331F441F551FFF
:1005C0008A95D1F760E074E284EF90E00E942905FB
:1005D000CA01B9012FEF30E040E050E00E94D5049D
:1005E000A40193010E942905C90181509F4F18164B
:1005F00019061CF4822F815002C081E0821B8515F0
:1006000000F5E885F98581E090E00A8802C0880F4E
:10061000991F0A94E2F7808360E079E08DE390E02F
:10062000A40193010E9429052150304040405040D0
:10063000CA01B90122E030E040E050E00E94290503
:1006400004C0E885F98510829501EC81FD81308335
:10065000EE81FF812083EA85FB85208141E050E027
:10066000CA010E8402C0880F991F0A94E2F7282B52
:100670002083EA85FB852081CA010F8402C0880F90
:10068000991F0A94E2F7282B2083EA85FB85808155
:10069000088802C0440F551F0A94E2F7842B808318
:1006A000DF91CF911F910F91FF90EF90DF90CF904E
:1006B000BF90AF909F908F907F906F905F900895C4
:1006C000FC01A085B18521898C9190E0022E02C0A9
:1006D000959587950A94E2F780FFF6CF0484F58517
:1006E000E02D608308958CE291E09093D001809397
:1006F000CF018BE491E09093D2018093D10185ECFE
:1007000090E09093D4018093D30184EC90E0909397
:10071000D6018093D50180EC90E09093D80180932E
:10072000D70181EC90E09093DA018093D90186ECB7
:1007300090E09093DC018093DB0184E08093DD0105
:1007400083E08093DE0187E08093DF0185E0809382
:10075000E00181E08093E10108950F931F93CF930F
:10076000DF938C01EB0109C02196D801ED91FC913A
:100770000190F081E02DC801099568816623A1F7F9
:10078000DF91CF911F910F910895EF92FF920F93F8
:100790001F93CF93DF938C017B01EA010CC0D7013B
:1007A0006D917D01D801ED91FC910190F081E02DDA
:1007B000C80109952197209791F7DF91CF911F915B
:1007C0000F91FF90EF900895DC01ED91FC91028074
:1007D000F381E02D099508950F931F938C01DC019F
:1007E000ED91FC910190F081E02D6DE00995D8012B
:1007F000ED91FC910190F081E02DC8016AE009952E
:100800001F910F9108950F931F938C010E94E40391
:10081000C8010E94EC031F910F9108952F923F92FF
:100820004F925F926F927F928F929F92AF92BF9200
:10083000CF92DF92EF92FF920F931F93DF93CF93AC
:10084000CDB7DEB7A0970FB6F894DEBF0FBECDBF11
:100850001C016A017B01411551056105710549F4CF
:10086000DC01ED91FC910190F081E02D60E30995B0
:1008700054C0882499245401422E55246624772498
:1008800001E010E00C0F1D1F080D191DC701B60176
:10089000A30192010E940705F80160830894811C5E
:1008A000911CA11CB11CC701B601A30192010E94B9
:1008B0000705C901DA016C017D01C114D104E1040D
:1008C000F104F1F681E0E82EF12CEC0EFD1EE80CAF
:1008D000F91C3E010894611C711CD501C4010197EB
:1008E000A109B1096C01C818D90814C0F601EE0DB0
:1008F000FF1D60816A3010F4605D01C0695CD10148
:10090000ED91FC910190F081E02DC10109950894D1
:10091000E108F1086E147F0449F7A0960FB6F89429
:10092000DEBF0FBECDBFCF91DF911F910F91FF9022
:10093000EF90DF90CF90BF90AF909F908F907F907F
:100940006F905F904F903F902F900895EF92FF929D
:100950000F931F93CF93DF93EC017A018B0177FF05
:100960000FC0E881F9810190F081E02D6DE20995D9
:1009700010950095F094E094E11CF11C011D111DEF
:10098000CE01B801A7012AE00E940E04DF91CF91A9
:100990001F910F91FF90EF900895AB01662757FDCF
:1009A0006095762F0E94A6040895629FD001739FE0
:1009B000F001829FE00DF11D649FE00DF11D929FFB
:1009C000F00D839FF00D749FF00D659FF00D99273A
:1009D000729FB00DE11DF91F639FB00DE11DF91F5E
:1009E000BD01CF011124089597FB092E07260AD0D7
:1009F00077FD04D049D006D000201AF47095619597
:100A00007F4F0895F6F7909581959F4F0895A1E245
:100A10001A2EAA1BBB1BFD010DC0AA1FBB1FEE1F78
:100A2000FF1FA217B307E407F50720F0A21BB30BC3
:100A3000E40BF50B661F771F881F991F1A9469F73F
:100A400060957095809590959B01AC01BD01CF019B
:100A5000089597FB092E05260ED057FD04D0D7DF49
:100A60000AD0001C38F450954095309521953F4FA1
:100A70004F4F5F4F0895F6F790958095709561956B
:100A80007F4F8F4F9F4F0895AA1BBB1B51E107C09B
:100A9000AA1FBB1FA617B70710F0A61BB70B881F0E
:100AA000991F5A95A9F780959095BC01CD0108959D
:100AB000EE0FFF1F0590F491E02D0994F894FFCFFD
:100AC0002020202000202020002020004D534745DA
:100AD00051372074657374206279204A20536B6FFC
:100AE0006261000200030001000000006003AD032A
:020AF000C5033C
:00000001FF
