:100000000C9462000C948A000C948A000C948A0070
:100010000C948A000C948A000C948A000C948A0038
:100020000C948A000C948A000C948A000C948A0028
:100030000C948A000C948A000C948A000C948A0018
:100040000C9475010C948A000C9421020C948A0083
:100050000C948A000C948A000C948A000C948A00F8
:100060000C948A000C948A000000000024002700F1
:100070002A0000000000250028002B0000000000DE
:1000800023002600290004040404040404040202DA
:100090000202020203030303030301020408102007
:1000A0004080010204081020010204081020000012
:1000B0000007000201000003040600000000000029
:1000C00000006A0311241FBECFEFD8E0DEBFCDBF12
:1000D00011E0A0E0B1E0E8E9FAE002C005900D927D
:1000E000AC30B107D9F711E0ACE0B1E001C01D922E
:1000F000AC3AB107E1F710E0C4ECD0E004C02297BD
:10010000FE010E944605C23CD107C9F70E94B20019
:100110000C944A050C940000809100010E94260175
:10012000BC0189E991E00E94B1046AE070E080E0DE
:1001300090E00E94BD01089589E991E040E855E210
:1001400060E070E00E945E028091000160E00E9429
:10015000B9008BE061E00E94B9008BE061E00E9491
:10016000D90008950E94E7010E949C000E948C0023
:10017000FDCF282F30E0C90186569F4FFC01949196
:100180002A573F4FF9018491882391F0E82FF0E03E
:10019000EE0FFF1FE859FF4FA591B491662329F494
:1001A0008C91909589238C9308958C91892B8C93B5
:1001B0000895482F50E0CA0182559F4FFC012491B9
:1001C000CA0186569F4FFC0194914A575F4FFA012E
:1001D00034913323D1F1222331F1233021F4809162
:1001E00080008F7705C0243031F4809180008F7DAE
:1001F0008093800018C0213019F484B58F7704C033
:10020000223021F484B58F7D84BD0DC0263021F4C9
:100210008091B0008F7705C0273029F48091B0001D
:100220008F7D8093B000E32FF0E0EE0FFF1FEE58BC
:10023000FF4FA591B491662329F48C919095892361
:100240008C9308958C91892B8C930895682F70E07E
:10025000CB0182559F4FFC012491CB0186569F4FC5
:10026000FC0144916A577F4FFB019491992319F443
:1002700020E030E038C0222331F1233021F4809196
:1002800080008F7705C0243031F4809180008F7D0D
:100290008093800018C0213019F484B58F7704C092
:1002A000223021F484B58F7D84BD0DC0263021F429
:1002B0008091B0008F7705C0273029F48091B0007D
:1002C0008F7D8093B000892F90E0880F991F84580C
:1002D0009F4FFC01A591B4918C9120E030E08423E4
:1002E00011F021E030E0C90108951F920F920FB67E
:1002F0000F9211242F933F938F939F93AF93BF93AC
:100300008091100190911101A0911201B0911301FF
:10031000309114010196A11DB11D232F2D5F2D37A2
:1003200020F02D570196A11DB11D2093140180933B
:10033000100190931101A0931201B09313018091C9
:100340000C0190910D01A0910E01B0910F01019649
:10035000A11DB11D80930C0190930D01A0930E017E
:10036000B0930F01BF91AF919F918F913F912F91CA
:100370000F900FBE0F901F901895EF92FF920F9362
:100380001F937B018C018FB7F8944091100150911D
:10039000110160911201709113018FBF2FB7F89472
:1003A0008091100190911101A0911201B09113015F
:1003B0002FBF841B950BA60BB70BE816F9060A078F
:1003C0001B0760F71F910F91FF90EF9008957894AD
:1003D00084B5826084BD84B5816084BD85B582604A
:1003E00085BD85B5816085BDEEE6F0E080818160E8
:1003F0008083E1E8F0E08081826080838081816099
:100400008083E0E8F0E0808181608083E1EBF0E0D0
:10041000808184608083E0EBF0E080818160808374
:10042000EAE7F0E08081846080838081826080835D
:100430008081816080838081806880831092C10088
:1004400008951F920F920FB60F9211242F933F938E
:100450004F935F936F937F938F939F93AF93BF93CC
:10046000EF93FF934091C600E0919501F0919601C2
:10047000CF01019660E870E00E94E0049C01809149
:100480009701909198012817390739F0EB5EFE4FDC
:1004900040833093960120939501FF91EF91BF9196
:1004A000AF919F918F917F916F915F914F913F910C
:1004B0002F910F900FBE0F901F9018955F926F9223
:1004C0007F928F929F92AF92BF92CF92DF92EF92E4
:1004D000FF920F931F93CF93DF93EC013A014B01EF
:1004E000413482E458078FE0680780E078070CF019
:1004F0007FC060E874E88EE190E0A40193010E945F
:1005000015052150304040405040CA01B90122E059
:1005100030E040E050E00E94150559016A01A60153
:100520009501209530954095509594E0220F331F0A
:10053000441F551F9A95D1F760E074E284EF90E074
:100540000E941505CA01B9012FEF30E040E050E0EC
:100550000E94C104A40193010E941505C9018150A4
:100560009F4F181619061CF4522E5A9403C0552496
:100570005394521A60E079E08DE390E0A401930176
:100580000E9415052150304040405040CA01B90139
:1005900022E030E040E050E00E94150520953095C3
:1005A0004095509583E0220F331F441F551F8A95B5
:1005B000D1F760E074E284EF90E00E941505CA0173
:1005C000B9012FEF30E040E050E00E94C104A401E7
:1005D00093010E941505C90181509F4F18161906F5
:1005E0001CF4822F815002C081E0821B851500F52A
:1005F000E885F98581E090E00A8802C0880F991F9C
:100600000A94E2F7808360E079E08DE390E0A40152
:1006100093010E9415052150304040405040CA01CE
:10062000B90122E030E040E050E00E94150504C02E
:10063000E885F98510829501EC81FD813083EE819A
:10064000FF812083EA85FB85208141E050E0CA01DB
:100650000E8402C0880F991F0A94E2F7282B20838A
:10066000EA85FB852081CA010F8402C0880F991F8B
:100670000A94E2F7282B2083EA85FB85808108888D
:1006800002C0440F551F0A94E2F7842B8083DF9148
:10069000CF911F910F91FF90EF90DF90CF90BF907F
:1006A000AF909F908F907F906F905F900895FC0126
:1006B000A085B18521898C9190E0022E02C095958C
:1006C00087950A94E2F780FFF6CF0484F585E02D44
:1006D0006083089586E091E090939A018093990158
:1006E00085E191E090939C0180939B0185EC90E0E3
:1006F00090939E0180939D0184EC90E09093A001E3
:1007000080939F0180EC90E09093A2018093A101DF
:1007100081EC90E09093A4018093A30186EC90E09B
:100720009093A6018093A50184E08093A70183E0C4
:100730008093A80187E08093A90185E08093AA01B6
:1007400081E08093AB0108950F931F93CF93DF93C4
:100750008C01EB0109C02196D801ED91FC9101902B
:10076000F081E02DC801099568816623A1F7DF912A
:10077000CF911F910F910895EF92FF920F931F93C6
:10078000CF93DF938C017B01EA010CC0D7016D91FF
:100790007D01D801ED91FC910190F081E02DC8011F
:1007A00009952197209791F7DF91CF911F910F9194
:1007B000FF90EF9008950F931F938C01DC01ED9152
:1007C000FC910190F081E02D6DE00995D801ED914B
:1007D000FC910190F081E02DC8016AE009951F911C
:1007E0000F9108952F923F924F925F926F927F9256
:1007F0008F929F92AF92BF92CF92DF92EF92FF9231
:100800000F931F93DF93CF93CDB7DEB7A0970FB6AB
:10081000F894DEBF0FBECDBF1C016A017B014115FC
:1008200051056105710549F4DC01ED91FC910190E0
:10083000F081E02D60E3099554C088249924540187
:10084000422E55246624772401E010E00C0F1D1F72
:10085000080D191DC701B601A30192010E94F304FE
:10086000F80160830894811C911CA11CB11CC70174
:10087000B601A30192010E94F304C901DA016C01DF
:100880007D01C114D104E104F104F1F681E0E82E08
:10089000F12CEC0EFD1EE80CF91C3E010894611CC5
:1008A000711CD501C4010197A109B1096C01C818D7
:1008B000D90814C0F601EE0DFF1D60816A3010F4F6
:1008C000605D01C0695CD101ED91FC910190F08106
:1008D000E02DC10109950894E108F1086E147F0428
:1008E00049F7A0960FB6F894DEBF0FBECDBFCF91EB
:1008F000DF911F910F91FF90EF90DF90CF90BF900D
:10090000AF909F908F907F906F905F904F903F90AF
:100910002F900895EF92FF920F931F93CF93DF9341
:10092000EC017A018B0177FF0FC0E881F98101901A
:10093000F081E02D6DE2099510950095F094E0941A
:10094000E11CF11C011D111DCE01B801A7012AE017
:100950000E94F203DF91CF911F910F91FF90EF90D2
:1009600008950F931F938C01AB01662757FD609587
:10097000762F0E948A04C8010E94DB031F910F9109
:100980000895629FD001739FF001829FE00DF11DD9
:10099000649FE00DF11D929FF00D839FF00D749FF9
:1009A000F00D659FF00D9927729FB00DE11DF91FA5
:1009B000639FB00DE11DF91FBD01CF011124089502
:1009C00097FB092E07260AD077FD04D049D006D020
:1009D00000201AF4709561957F4F0895F6F7909571
:1009E00081959F4F0895A1E21A2EAA1BBB1BFD0102
:1009F0000DC0AA1FBB1FEE1FFF1FA217B307E407FE
:100A0000F50720F0A21BB30BE40BF50B661F771F55
:100A1000881F991F1A9469F7609570958095909535
:100A20009B01AC01BD01CF01089597FB092E05265E
:100A30000ED057FD04D0D7DF0AD0001C38F45095F3
:100A40004095309521953F4F4F4F5F4F0895F6F7F2
:100A500090958095709561957F4F8F4F9F4F08952A
:100A6000AA1BBB1B51E107C0AA1FBB1FA617B707D4
:100A700010F0A61BB70B881F991F5A95A9F78095F0
:100A80009095BC01CD010895EE0FFF1F0590F491E4
:080A9000E02D0994F894FFCF5A
:0C0A98000A00000000005703A403BC0388
:00000001FF
