:100000000C9463000C948B000C948B000C948B006C
:100010000C948B000C948B000C948B000C948B0034
:100020000C948B000C948B000C948B000C948B0024
:100030000C948B000C948B000C948B000C948B0014
:100040000C948D070C948B000C9416090C948B0067
:100050000C948B000C948B000C948B000C948B00F4
:100060000C947B020C948B000000000024002700FD
:100070002A0000000000250028002B0000000000DE
:1000800023002600290004040404040404040202DA
:100090000202020203030303030301020408102007
:1000A0004080010204081020010204081020000012
:1000B0000007000201000003040600000000000029
:1000C0000000BC015F0A11241FBECFEFD8E0DEBFE5
:1000D000CDBF13E0A0E0B1E0E8E8FCE102C005908C
:1000E0000D92A034B107D9F714E0A0E4B3E001C049
:1000F0001D92A934B107E1F710E0C6ECD0E004C0CE
:100100002297FE010E943E0EC23CD107C9F70E9411
:1001100086070C94420E0C9400000F931F93CF930C
:10012000DF93689F8001699F100D789F100D112447
:10013000C8010E94A900EC01009729F060E070E07E
:10014000A8010E94AB01CE01DF91CF911F910F91C9
:100150000895CF93DF93BC018230910510F462E0E3
:1001600070E0A0914704B0914804ED01E0E0F0E0B8
:1001700040E050E021C0888199818617970769F493
:100180008A819B81309719F09383828304C0909376
:10019000480480934704FE0134C06817790738F497
:1001A0004115510519F08417950708F4AC01FE01BB
:1001B0008A819B819C01E9012097E9F6411551054F
:1001C000A9F1CA01861B970B049708F4BA01E0E075
:1001D000F0E02AC08D919C91119784179507F9F44E
:1001E0006417750781F412968D919C91139730973F
:1001F00019F09383828304C090934804809347044A
:10020000FD0132964CC0CA01861B970BFD01E80F19
:10021000F91F6193719302978D939C9340C0FD01E8
:10022000828193819C01D9011097A1F680914504A8
:1002300090914604892B41F48091250190912601EB
:1002400090934604809345044091270150912801E2
:100250004115510541F44DB75EB78091230190914E
:100260002401481B590B2091450430914604CA01D2
:10027000821B930B8617970780F0AB014E5F5F4F91
:100280008417950750F0420F531F50934604409334
:100290004504F9016193719302C0E0E0F0E0CF0101
:1002A000DF91CF910895CF93DF93009709F450C069
:1002B000EC0122971B821A82A0914704B091480456
:1002C000109709F140E050E0AC17BD0708F1BB837F
:1002D000AA83FE0121913191E20FF31FAE17BF07F0
:1002E00079F48D919C911197280F391F2E5F3F4F04
:1002F0003983288312968D919C9113979B838A83CF
:100300004115510571F4D0934804C093470420C0AF
:1003100012968D919C911397AD01009711F0DC011D
:10032000D3CFFA01D383C28321913191E20FF31F1E
:10033000CE17DF0769F488819981280F391F2E5F56
:100340003F4FFA01318320838A819B81938382838B
:10035000DF91CF910895DC0101C06D934150504071
:10036000E0F7089581E0809349036093440310927D
:1003700047031092480308950895DF93CF930F9297
:10038000CDB7DEB76983809149038823A9F08091B6
:1003900048038032B0F480914703E0914503F09127
:1003A0004603E80FF11D6083809147038F5F8093C0
:1003B00047038093480305C0CE01019661E00E9487
:1003C0005E020F90CF91DF9108950E94BD010895C4
:1003D0006091450370914603809144034091480326
:1003E00021E00E94190210924703109248031092D4
:1003F0004903089580E290E061E070E00E948D0082
:100400008093400390934103109242031092430360
:1004100080E290E061E070E00E948D0080934503EF
:100420009093460310924703109248030E94FD03E5
:1004300008951F93582F122F413210F081E03CC0D5
:1004400080914B038823E1F782E080934B038FEF89
:1004500080935C031092530340935403A091510383
:10046000B0915203FB0102C081918D938E2F861BA8
:100470008417D0F3852F90E0880F991F80934C0349
:1004800085EE8093BC00112321F080914B038230D4
:10049000E1F380915C038F3F11F480E00DC0809107
:1004A0005C03803211F482E007C080915C038033EA
:1004B00011F084E001C083E01F910895482F61325C
:1004C00010F081E0089580914B03843011F082E0B8
:1004D000089560935803A0915503B0915603842F5B
:1004E0009C01F90102C081918D938E2F841B861788
:1004F000D0F380E008951F920F920FB60F9211244F
:100500002F933F934F935F936F937F938F939F931B
:10051000AF93BF93EF93FF938091B90090E0887FF2
:1005200090708036910509F4E2C081369105CCF5D2
:100530008832910509F47BC089329105B4F4803189
:10054000910509F46FC0813191053CF4009709F4DD
:1005500038C1089709F040C165C08831910509F498
:1005600066C0809709F038C17FC08034910509F4D6
:10057000A3C08134910544F48033910509F47FC010
:10058000C89709F029C186C08035910509F486C055
:100590008835910509F495C08834910509F01CC18E
:1005A0009EC08839910509F404C189399105ECF49C
:1005B0008837910509F49BC0893791054CF488363A
:1005C000910509F494C08037910509F005C18FC0E9
:1005D0008838910509F4EDC08039910509F48DC082
:1005E0008038910509F0F8C088C0803B910509F476
:1005F000B2C0813B91054CF4803A910509F491C059
:10060000883A910509F0E8C0A6C0803C910509F43C
:10061000D4C0883C910509F4D0C0883B910509F00D
:10062000DBC0B1C080914C038093BB00C0C09091EF
:10063000530380915403981778F490915303E091F9
:100640005103F0915203E90FF11D80818093BB00AB
:100650009F5F90935303ABC085ED8093BC00809166
:10066000BC0084FDFCCFB6C080E280935C0385EDC6
:100670008093BC008091BC0084FDFCCFABC080E3C4
:1006800080935C0385ED8093BC008091BC0084FD69
:10069000FCCFA0C088E380935C038FC0809153039C
:1006A0009091BB00E0915103F0915203E80FF11DCE
:1006B00090838F5F809353039091530380915403F1
:1006C00074C0809153039091BB00E0915103F0916D
:1006D0005203E80FF11D90838F5F8093530385EDE4
:1006E0008093BC008091BC0084FDFCCF73C083E08C
:1006F00080934B0310925B035AC080915B0380325E
:1007000008F057C080915B039091BB00E0915903C2
:10071000F0915A03E80FF11D90838F5F80935B0384
:1007200046C080915B03803248F480915B03E09186
:100730005903F0915A03E80FF11D108260915B0399
:10074000E0914F03F09150038091590390915A0327
:1007500070E0099532C084E080934B0310925703F8
:1007600010925803E0914D03F0914E03099580914A
:100770005803882341F481E080935803E0915503A6
:10078000F0915603108290915703E0915503F09138
:100790005603E90FF11D80818093BB009F5F90930A
:1007A00057039091570380915803981710F485ECE4
:1007B00001C085E88093BC000FC085EC8093BC002D
:1007C00009C010925C0385ED8093BC008091BC0051
:1007D00084FDFCCF10924B03FF91EF91BF91AF913D
:1007E0009F918F917F916F915F914F913F912F9149
:1007F0000F900FBE0F901F90189510924B03449AC4
:10080000459AE9EBF0E080818E7F808380818D7F47
:10081000808388E48093B80085E48093BC0080E204
:1008200090E061E070E00E948D008093510390930E
:10083000520380E290E061E070E00E948D008093BE
:1008400055039093560380E290E061E070E00E94CF
:100850008D008093590390935A030895AF92BF92ED
:10086000CF92DF92EF92FF920F931F9382E00E944C
:100870003C08895F914097FF03C0909581959F4FF9
:1008800090935E0380935D032091A3033091A403B2
:10089000821793072CF430935E0320935D0304C00A
:1008A0009093A4038093A3038091A3039091A40346
:1008B0002091310130913201821B930B9093A4035C
:1008C0008093A30300D000D060915D0370915E031C
:1008D000882777FD8095982F20913301309134013E
:1008E000442737FD4095542F1FEFE12EF12C012DA9
:1008F000112DEDB7FEB7E182F28203831483BCE2CF
:10090000EB2EB1E0FB2E012D112DAA24BB24650195
:100910000E94C10B0F900F900F900F906F3F7105C9
:1009200019F014F06FEF70E077FF02C060E070E044
:10093000EFEFF0E0E61BF70BEE0FFF1FEB5CFE4F57
:10094000818180935D0310925E031F910F91FF9050
:10095000EF90DF90CF90BF90AF900895AF92BF928D
:10096000CF92DF92EF92FF920F931F9300D000D0AF
:1009700060915D0370915E03882777FD8095982FC5
:10098000EDB7FEB7118212821382148220E030E0AC
:1009900040E050E0FFEFEF2EF12C012D112DE5E0AE
:1009A000AE2EB12CC12CD12C0E94C10B0E94A20CE6
:1009B00060939503709396038093970390939803A5
:1009C000E0909103F09092030091930310919403AF
:1009D000A80197010E940A0C23E333E343E35FE39A
:1009E0000E94560D9B01AC01C801B7010E940B0C7F
:1009F0007B018C010F900F900F900F9020E030E062
:100A000040E050E00E94520D88234CF0C801B7012D
:100A100020E030E040E05FE30E940B0C08C0C8011A
:100A2000B70120E030E040E05FE30E940A0C0E9442
:100A30006F0C0E94A20C60939103709392038093B9
:100A400093039093940300D000D060915D03709164
:100A50005E03882777FD8095982FA0902901B0909C
:100A60002A01CC24B7FCC094DC2C20912D013091BC
:100A70002E01442737FD4095542FEDB7FEB7218353
:100A800032834383548320E030E040E050E00FEFB6
:100A9000E02EF12C012D112D0E94C10B70939A03B1
:100AA0006093990360915D0370915E03882777FDE1
:100AB0008095982FA0909F03B090A003CC24B7FC02
:100AC000C094DC2C2091A1033091A203442737FD70
:100AD0004095542FEDB7FEB721833283438354836F
:100AE00020E030E040E050E00E94C10B70939C0396
:100AF00060939B0360915D0370915E03882777FD8F
:100B00008095982FA0902B01B0902C01CC24B7FC9D
:100B1000C094DC2C20912F0130913001442737FD07
:100B20004095542FEDB7FEB721833283438354831E
:100B300020E030E040E050E00E94C10B162F6093AF
:100B40009D0370939E036091910370919203809135
:100B50009303909194030E946F0C9091990380915C
:100B60009B03EBE6F3E020E030E00F900F900F9056
:100B70000F900DC0928B838B148B03C0128A138A43
:100B8000148A2F5F3F4F33962630310571F02617B8
:100B9000370724F410821182128203C0908381836C
:100BA00012832617370734F7E9CF1F910F91FF9073
:100BB000EF90DF90CF90BF90AF90089582E061E01A
:100BC0000E945A0883E061E00E945A0884E060E0D5
:100BD0000E945A0885E060E00E945A088CE061E0BB
:100BE0000E945A0882E061E00E947A0883E060E097
:100BF0000E947A088CE061E00E947A0881E00E94FD
:100C000039080895DF92EF92FF920F931F93382FC8
:100C1000F62EE42ED22E0AE413E0C801632F0E94C0
:100C2000B201C8016EE670E00E94E501C8016F2DB7
:100C30000E94BD01C8016E2D0E94BD01C8016D2D2D
:100C40000E94BD01C8010E94E8011F910F91FF9011
:100C5000EF90DF900895CF92DF92EF92FF920F9383
:100C60001F93CF93DF93CC24DD2417C0F80181912B
:100C70008F01688149812A810E9402060894E11C43
:100C8000F11C2396F6E0EF16F10481F70894C11CDD
:100C9000D11C82E0C816D104B9F0C601880F991F93
:100CA0008C010C0D1D1D000F111F015A1C4FEC0172
:100CB000A3E0CC0FDD1FAA95E1F7C80FD91FC559D6
:100CC000DC4FEE24FF24D2CFDF91CF911F910F9103
:100CD000FF90EF90DF90CF9008950F931F930AE459
:100CE00013E0C8010E94FA01C80160E00E94B2014D
:100CF000C8016FE670E00E94E501C8010E94E801AA
:100D000080E060E040E020E00E9402061F910F9129
:100D10000895CF93DF93C0E0D0E082E060E00E94CE
:100D20007A0882E394E060E071E00E94D00A68E211
:100D300070E080E090E00E94D50782E061E00E94D0
:100D40007A0882E394E063E071E00E94D00A68E2EE
:100D500070E080E090E00E94D50782E394E068E2D2
:100D600070E00E94B90B82E394E067E071E00E94BA
:100D7000D00A2196C530D10581F6DF91CF91089533
:100D8000CF93DF931AC084E00E94C7088130910599
:100D9000A1F49093900380938F0383E061E00E941D
:100DA0007A0882E394E069E071E00E94EF0A6AE069
:100DB00070E080E090E00E94D50780918F039091D1
:100DC0009003892B01F322C00E9489066CED70E02C
:100DD00080E090E00E94D50780E00E94C708892B40
:100DE00071F0D0939003C0938F0383E060E00E9482
:100DF0007A0882E394E065E171E00E94EF0A6CED0D
:100E000070E080E090E00E94D50702C0C2E0D0E030
:100E100080918F03909190030197B1F225C00E94B9
:100E20002E040E94AE040E942B0665E070E080E074
:100E300090E00E94D50785E00E94C708892BA1F4A5
:100E400010925E0310925D0380E060E040E020E0DD
:100E50000E9402061092900310928F0382E394E0A6
:100E60006DE171E00E94EF0A80918F0390919003F1
:100E70000297A9F2DF91CF91089582E394E040E0D8
:100E80005BE460E070E00E9453090E94DE050E946E
:100E90006D0645E080E090E00FC030833F5F2F5F3C
:100EA00031972630D1F74A5F0196413129F420E08D
:100EB00030E051E042E019C0FC01EE0FFF1FE80FE7
:100EC000F91FEE0FFF1FEC59FC4F342F20E0E5CF48
:100ED0001082518342830196339686309105C1F783
:100EE0002F5F3F4F2230310581F0C901880F991FD4
:100EF000FC0163E0EE0FFF1F6A95E1F7E80FF91FB1
:100F0000E559FC4F80E090E0E3CF08950E94FF0791
:100F10000E943D070E94C006FDCF1F920F920FB6A0
:100F20000F9211242F933F938F939F93AF93BF936F
:100F30008091A9039091AA03A091AB03B091AC0357
:100F40003091AD030196A11DB11D232F2D5F2D37CB
:100F500020F02D570196A11DB11D2093AD03809364
:100F6000A9039093AA03A093AB03B093AC03809121
:100F7000A5039091A603A091A703B091A8030196A1
:100F8000A11DB11D8093A5039093A603A093A70371
:100F9000B093A803BF91AF919F918F913F912F91F3
:100FA0000F900FBE0F901F901895EF92FF920F9326
:100FB0001F937B018C018FB7F8944091A903509146
:100FC000AA036091AB037091AC038FBF2FB7F89465
:100FD0008091A9039091AA03A091AB03B091AC03B7
:100FE0002FBF841B950BA60BB70BE816F9060A0753
:100FF0001B0760F71F910F91FF90EF900895789471
:1010000084B5826084BD84B5816084BD85B582600D
:1010100085BD85B5816085BDEEE6F0E080818160AB
:101020008083E1E8F0E0808182608083808181605C
:101030008083E0E8F0E0808181608083E1EBF0E094
:10104000808184608083E0EBF0E080818160808338
:10105000EAE7F0E080818460808380818260808321
:101060008081816080838081806880831092C1004C
:1010700008958093350308958F709091350392956C
:10108000990F990F907C982B90937C0080917A0017
:10109000806480937A0080917A0086FDFCCF209155
:1010A000780040917900942F80E030E0282B392B94
:1010B000C9010895282F30E0C90186569F4FFC01D1
:1010C00094912A573F4FF9018491882391F0E82F9A
:1010D000F0E0EE0FFF1FE859FF4FA591B491662392
:1010E00029F48C91909589238C9308958C91892B68
:1010F0008C930895482F50E0CA0182559F4FFC0100
:101100002491CA0186569F4FFC0194914A575F4F24
:10111000FA0134913323D1F1222331F1233021F428
:10112000809180008F7705C0243031F48091800059
:101130008F7D8093800018C0213019F484B58F779B
:1011400004C0223021F484B58F7D84BD0DC02630CB
:1011500021F48091B0008F7705C0273029F4809169
:10116000B0008F7D8093B000E32FF0E0EE0FFF1F03
:10117000EE58FF4FA591B491662329F48C91909578
:1011800089238C9308958C91892B8C930895682FD3
:1011900070E0CB0182559F4FFC012491CB01865614
:1011A0009F4FFC0144916A577F4FFB019491992313
:1011B00019F420E030E038C0222331F1233021F44B
:1011C000809180008F7705C0243031F480918000B9
:1011D0008F7D8093800018C0213019F484B58F77FB
:1011E00004C0223021F484B58F7D84BD0DC026302B
:1011F00021F48091B0008F7705C0273029F48091C9
:10120000B0008F7D8093B000892F90E0880F991FE8
:1012100084589F4FFC01A591B4918C9120E030E05F
:10122000842311F021E030E0C90108951F920F924C
:101230000FB60F9211242F933F934F935F936F93A9
:101240007F938F939F93AF93BF93EF93FF934091BF
:10125000C600E0912E04F0912F04CF01019660E8C2
:1012600070E00E94D80D9C0180913004909131046F
:101270002817390739F0E255FC4F408330932F048B
:1012800020932E04FF91EF91BF91AF919F918F9189
:101290007F916F915F914F913F912F910F900FBE72
:1012A0000F901F9018955F926F927F928F929F92EE
:1012B000AF92BF92CF92DF92EF92FF920F931F9364
:1012C000CF93DF93EC013A014B01413482E458079C
:1012D0008FE0680780E078070CF07FC060E874E872
:1012E0008EE190E0A40193010E940D0E2150304048
:1012F00040405040CA01B90122E030E040E050E0F7
:101300000E940D0E59016A01A601950120953095A4
:101310004095509594E0220F331F441F551F9A9516
:10132000D1F760E074E284EF90E00E940D0ECA01F4
:10133000B9012FEF30E040E050E00E94B90DA40168
:1013400093010E940D0EC90181509F4F1816190676
:101350001CF4522E5A9403C055245394521A60E040
:1013600079E08DE390E0A40193010E940D0E2150DD
:10137000304040405040CA01B90122E030E040E036
:1013800050E00E940D0E209530954095509583E0D9
:10139000220F331F441F551F8A95D1F760E074E276
:1013A00084EF90E00E940D0ECA01B9012FEF30E0EA
:1013B00040E050E00E94B90DA40193010E940D0E7F
:1013C000C90181509F4F181619061CF4822F8150B5
:1013D00002C081E0821B851500F5E885F98581E072
:1013E00090E00A8802C0880F991F0A94E2F7808370
:1013F00060E079E08DE390E0A40193010E940D0E7E
:101400002150304040405040CA01B90122E030E054
:1014100040E050E00E940D0E04C0E885F98510827E
:101420009501EC81FD813083EE81FF812083EA8587
:10143000FB85208141E050E0CA010E8402C0880F84
:10144000991F0A94E2F7282B2083EA85FB852081E7
:10145000CA010F8402C0880F991F0A94E2F7282B53
:101460002083EA85FB858081088802C0440F551FD0
:101470000A94E2F7842B8083DF91CF911F910F9123
:10148000FF90EF90DF90CF90BF90AF909F908F90A4
:101490007F906F905F900895FC01A085B1852189B0
:1014A0008C9190E0022E02C0959587950A94E2F700
:1014B00080FFF6CF0484F585E02D608308958AE3EC
:1014C00093E090933304809332048EEA93E09093F8
:1014D00035048093340485EC90E090933704809336
:1014E000360484EC90E0909339048093380480ECC7
:1014F00090E090933B0480933A0481EC90E09093C9
:101500003D0480933C0486EC90E090933F048093EC
:101510003E0484E08093400483E08093410487E0AC
:101520008093420485E08093430481E080934404E7
:1015300008950F931F93CF93DF938C01EB0109C0A4
:101540002196D801ED91FC910190F081E02DC80128
:10155000099568816623A1F7DF91CF911F910F91C3
:101560000895EF92FF920F931F93CF93DF938C0117
:101570007B01EA010CC0D7016D917D01D801ED918D
:10158000FC910190F081E02DC801099521972097E9
:1015900091F7DF91CF911F910F91FF90EF900895F8
:1015A000DC01ED91FC910280F381E02D0995089515
:1015B0000F931F938C01DC01ED91FC910190F08160
:1015C000E02D6DE00995D801ED91FC910190F0813D
:1015D000E02DC8016AE009951F910F9108950F93BE
:1015E0001F938C010E94D00AC8010E94D80A1F9143
:1015F0000F9108952F923F924F925F926F927F9238
:101600008F929F92AF92BF92CF92DF92EF92FF9212
:101610000F931F93DF93CF93CDB7DEB7A0970FB68D
:10162000F894DEBF0FBECDBF1C016A017B014115DE
:1016300051056105710549F4DC01ED91FC910190C2
:10164000F081E02D60E3099554C088249924540169
:10165000422E55246624772401E010E00C0F1D1F54
:10166000080D191DC701B601A30192010E94EB0DDF
:10167000F80160830894811C911CA11CB11CC70156
:10168000B601A30192010E94EB0DC901DA016C01C0
:101690007D01C114D104E104F104F1F681E0E82EEA
:1016A000F12CEC0EFD1EE80CF91C3E010894611CA7
:1016B000711CD501C4010197A109B1096C01C818B9
:1016C000D90814C0F601EE0DFF1D60816A3010F4D8
:1016D000605D01C0695CD101ED91FC910190F081E8
:1016E000E02DC10109950894E108F1086E147F040A
:1016F00049F7A0960FB6F894DEBF0FBECDBFCF91CD
:10170000DF911F910F91FF90EF90DF90CF90BF90EE
:10171000AF909F908F907F906F905F904F903F9091
:101720002F900895EF92FF920F931F93CF93DF9323
:10173000EC017A018B0177FF0FC0E881F9810190FC
:10174000F081E02D6DE2099510950095F094E094FC
:10175000E11CF11C011D111DCE01B801A7012AE0F9
:101760000E94FA0ADF91CF911F910F91FF90EF90A5
:101770000895AB01662757FD6095762F0E94920B66
:1017800008952F923F924F925F926F927F928F9225
:101790009F92AF92BF92CF92DF92EF92FF920F9300
:1017A0001F93DF93CF93CDB7DEB73B014C011901F7
:1017B0002A016D897E898F89988D6A197B098C0928
:1017C0009D09621A730A840A950AA40193010E9472
:1017D000B90DE218F30804091509A80197010E9440
:1017E0000D0E2A0D3B1D4C1D5D1DB901CA01CF9187
:1017F000DF911F910F91FF90EF90DF90CF90BF90FE
:10180000AF909F908F907F906F905F904F903F90A0
:101810002F9008955058BB27AA270ED009C1FAD09F
:1018200030F0FFD020F031F49F3F11F41EF4EFC0F0
:101830000EF4E095E7FBE5C0E92F0BD180F3BA1772
:10184000620773078407950718F071F49EF523C1AA
:101850000EF4E0950B2EBA2FA02D0B01B9019001CB
:101860000C01CA01A0011124FF27591B99F0593F0F
:1018700050F4503E68F11A16F040A22F232F342F57
:101880004427585FF3CF469537952795A795F040A5
:101890005395C9F77EF41F16BA0B620B730B840BBA
:1018A000BAF09150A1F0FF0FBB1F661F771F881F72
:1018B000C2F70EC0BA0F621F731F841F48F48795CA
:1018C00077956795B795F7959E3F08F0B3CF9395B9
:1018D000880F08F09927EE0F97958795089504D003
:1018E0006894B111D9C00895BCD088F09F5790F08A
:1018F000B92F9927B751A0F0D1F0660F771F881F35
:10190000991F1AF0BA95C9F712C0B13081F0C3D04F
:10191000B1E00895C0C0672F782F8827B85F39F0ED
:10192000B93FCCF3869577956795B395D9F73EF493
:1019300090958095709561957F4F8F4F9F4F08953B
:10194000E89409C097FB3EF4909580957095619559
:101950007F4F8F4F9F4F9923A9F0F92F96E9BB270F
:101960009395F695879577956795B795F111F8CF8B
:10197000FAF4BB0F11F460FF1BC06F5F7F4F8F4FF6
:101980009F4F16C0882311F096E911C0772321F0EC
:101990009EE8872F762F05C0662371F096E8862F84
:1019A00070E060E02AF09A95660F771F881FDAF7DB
:1019B000880F9695879597F90895990F0008550F08
:1019C000AA0BE0E8FEEF16161706E807F907C0F0C5
:1019D00012161306E407F50798F0621B730B840BCD
:1019E000950B39F40A2661F0232B242B252B21F4A7
:1019F00008950A2609F4A140A6958FEF811D811D47
:101A0000089597F99F6780E870E060E008959FEF80
:101A100080EC089500240A94161617061806090685
:101A2000089500240A941216130614060506089554
:101A3000092E0394000C11F4882352F0BB0F40F4DC
:101A4000BF2B11F460FF04C06F5F7F4F8F4F9F4F1C
:101A5000089557FD9058440F551F59F05F3F71F09E
:101A60004795880F97FB991F61F09F3F79F0879505
:101A70000895121613061406551FF2CF4695F1DF8E
:101A800008C0161617061806991FF1CF869571051E
:101A9000610508940895E894BB2766277727CB0152
:101AA00097F908958ADF08F48FEF08950BD0C0CF1F
:101AB000B1DF28F0B6DF18F0952309F0A2CFA7CF49
:101AC0001124EACFC6DFA0F3959FD1F3950F50E024
:101AD000551F629FF001729FBB27F00DB11D639FE0
:101AE000AA27F00DB11DAA1F649F6627B00DA11D86
:101AF000661F829F2227B00DA11D621F739FB00D2C
:101B0000A11D621F839FA00D611D221F749F33279B
:101B1000A00D611D231F849F600D211D822F762F34
:101B20006A2F11249F5750408AF0E1F088234AF031
:101B3000EE0FFF1FBB1F661F771F881F915050407D
:101B4000A9F79E3F510570F05CCFA6CF5F3FECF345
:101B5000983EDCF3869577956795B795F795E79569
:101B60009F5FC1F7FE2B880F911D9695879597F97A
:101B70000895629FD001739FF001829FE00DF11DD7
:101B8000649FE00DF11D929FF00D839FF00D749FF7
:101B9000F00D659FF00D9927729FB00DE11DF91FA3
:101BA000639FB00DE11DF91FBD01CF011124089500
:101BB00097FB092E07260AD077FD04D049D006D01E
:101BC00000201AF4709561957F4F0895F6F790956F
:101BD00081959F4F0895A1E21A2EAA1BBB1BFD0100
:101BE0000DC0AA1FBB1FEE1FFF1FA217B307E407FC
:101BF000F50720F0A21BB30BE40BF50B661F771F54
:101C0000881F991F1A9469F7609570958095909533
:101C10009B01AC01BD01CF01089597FB092E05265C
:101C20000ED057FD04D0D7DF0AD0001C38F45095F1
:101C30004095309521953F4F4F4F5F4F0895F6F7F0
:101C400090958095709561957F4F8F4F9F4F089528
:101C5000AA1BBB1B51E107C0AA1FBB1FA617B707D2
:101C600010F0A61BB70B881F991F5A95A9F78095EE
:101C70009095BC01CD010895EE0FFF1F0590F491E2
:081C8000E02D0994F894FFCF58
:101C88006469006E672000200072696E67696E677C
:101C98002E2E2E2000616374697665200069646CBD
:101CA8006520002000490400000A00FF00FF000A28
:101CB8000032000400FFFFFAFFF5FFEFFFE9FFE342
:101CC800FFDCFFD6FFCFFFC9FFC2FFBBFFB4FFACED
:101CD800FFA5FF9DFF95FF8DFF85FF7DFF74FF6CBE
:101CE800FF63FF5AFF50FF47FF3DFF33FF29FF1FE8
:101CF800FF14FF09FFFEFEF3FEE8FEDCFED0FEC384
:101D0800FEB7FEAAFE9DFE8FFE81FE73FE65FE569F
:101D1800FE47FE38FE28FE18FE08FEF7FDE6FDD554
:101D2800FDC3FDB1FD9EFD8BFD78FD64FD4FFD3BC0
:101D3800FD25FD10FDF9FCE3FCCCFCB4FC9CFC8308
:101D4800FC6AFC50FC35FC1AFCFFFBE3FBC6FBA855
:101D5800FB8AFB6CFB4CFB2CFB0BFBEAFAC7FAA4D7
:101D6800FA81FA5CFA37FA10FAE9F9C1F999F96FC8
:101D7800F944F919F9ECF8BFF890F861F830F8FF70
:101D8800F7CCF798F763F72DF7F6F6BDF683F64824
:101D9800F60CF6CEF58FF54FF50DF5C9F485F43E42
:101DA800F4F6F3ADF362F315F3C7F277F225F2D147
:101DB800F17CF124F1CBF070F013F0B3EF52EFEEB9
:101DC800EE88EE20EEB6ED4AEDDBEC69ECF5EB7F44
:101DD800EB05EB8AEA0BEA8AE906E97FE8F5E768AA
:101DE800E7D8E644E6AEE514E576E4D6E332E38ADE
:101DF800E2DEE12FE17CE0C4DF09DF4ADE86DDBFF9
:101E0800DCF3DB22DB4DDA73D994D8B0D7C8D6DA45
:101E1800D5E7D4EED3F1D2EDD1E4D0D5CFC0CEA55D
:101E2800CD84CC5CCB2ECAFAC8BEC77CC632C5E10D
:101E3800C389C229C1C2BF52BEDBBC5BBBD3B94296
:101E4800B8A8B605B55AB3A4B1E5AF1CAE4AAC6D97
:101E5800AA85A893A695A48DA279A0599E2E9CF632
:101E680099B2976195029397901E8E978B02895E1F
:101E780086AB83E980187E377B4578437530720CD2
:101E88006FD66B8E683365C661455EB15A08574B8D
:101E980053784F914B93477E43533F103BB636429E
:101EA80032B62D10295024751F7F1A6D153E10F279
:101EB8000A8805000001000000004C0A990AB10ACE
:00000001FF
