:100000000C947B000C94A3000C94A3000C94A3000C
:100010000C94A3000C94A3000C94A3000C94A300D4
:100020000C94A3000C94A3000C94A3000C94A300C4
:100030000C94A3000C94A3000C94A3000C94A300B4
:100040000C945C160C94A3000C94A3000C94A300D5
:100050000C94A3000C94A3000C94A3000C94A30094
:100060000C94F4020C94A300084AD73B3BCE016EDB
:1000700084BCBFFDC12F3D6C74319ABD56833DDAFF
:100080003D00C77F11BED9E4BB4C3E916BAAAABE0E
:10009000000000803F00000000240027002A00002C
:1000A000000000250028002B00000000002300268F
:1000B00000290004040404040404040202020202ED
:1000C000020303030303030102040810204080011C
:1000D000020408102001020408102000000007009C
:1000E0000201000003040600000000000000000000
:1000F0003502BA05B30511241FBECFEFD8E0DEBF2D
:10010000CDBF11E0A0E0B1E0EAE1F6E302C0059066
:100110000D92A83DB107D9F713E0A8EDB1E001C0F9
:100120001D92A433B107E1F710E0C4EFD0E004C0A2
:100130002297FE010E94C51AC03FD107C9F70E944D
:1001400005070C94001B0C9400000F931F93CF9392
:10015000DF93689F8001699F100D789F100D112417
:10016000C8010E94C100EC01009729F060E070E036
:10017000A8010E942402CE01DF91CF911F910F911F
:100180000895CF93DF93BC018230910510F462E0B3
:1001900070E0A0913203B0913303ED01E0E0F0E0B4
:1001A00040E050E021C0888199818617970769F463
:1001B0008A819B81309719F09383828304C0909346
:1001C000330380933203FE0134C06817790738F493
:1001D0004115510519F08417950708F4AC01FE018B
:1001E0008A819B819C01E9012097E9F6411551051F
:1001F000A9F1CA01861B970B049708F4BA01E0E045
:10020000F0E02AC08D919C91119784179507F9F41D
:100210006417750781F412968D919C91139730970E
:1002200019F09383828304C0909333038093320345
:10023000FD0132964CC0CA01861B970BFD01E80FE9
:10024000F91F6193719302978D939C9340C0FD01B8
:10025000828193819C01D9011097A1F6809130038E
:1002600090913103892B41F4809102019091030117
:100270009093310380933003409104015091050124
:100280004115510541F44DB75EB780910001909141
:100290000101481B590B2091300330913103CA01F1
:1002A000821B930B8617970780F0AB014E5F5F4F61
:1002B0008417950750F0420F531F5093310340931A
:1002C0003003F9016193719302C0E0E0F0E0CF01E7
:1002D000DF91CF910895CF93DF93009709F450C039
:1002E000EC0122971B821A82A0913203B091330352
:1002F000109709F140E050E0AC17BD0708F1BB834F
:10030000AA83FE0121913191E20FF31FAE17BF07BF
:1003100079F48D919C911197280F391F2E5F3F4FD3
:100320003983288312968D919C9113979B838A839E
:100330004115510571F4D0933303C093320320C0AB
:1003400012968D919C911397AD01009711F0DC01ED
:10035000D3CFFA01D383C28321913191E20FF31FEE
:10036000CE17DF0769F488819981280F391F2E5F26
:100370003F4FFA01318320838A819B81938382835B
:10038000DF91CF910895A0E0B0E0E9ECF1E00C94AA
:10039000D11AEC01A880B980CA80DB80A114B10415
:1003A000C104D10441F484E2A82E89EDB82E8BE576
:1003B000C82E87E0D82EC601B5012DE133EF41E00C
:1003C00050E00E94861A27EA31E440E050E00E94A3
:1003D000531A7B018C01C601B5012DE133EF41E0D9
:1003E00050E00E94861ACA01B9012CEE34EF4FEF9B
:1003F0005FEF0E94531A6E0D7F1D801F911F97FFA4
:1004000004C06150704080409048688379838A833B
:100410009B839B01AC015F77B901CA01CDB7DEB701
:10042000EAE00C94ED1A0E94C301089586E091E081
:100430000E94C301089560930601709307018093A1
:100440000801909309010895DC0101C06D934150AA
:100450005040E0F7089581E08093E1016093DC0172
:100460001092DF011092E00108950895DF93CF9379
:100470000F92CDB7DEB769838091E1018823A9F09F
:100480008091E0018032B0F48091DF01E091DD01E4
:10049000F091DE01E80FF11D60838091DF018F5F35
:1004A0008093DF018093E00105C0CE01019661E0F9
:1004B0000E94D7020F90CF91DF9108950E943602DB
:1004C00008956091DD017091DE018091DC01409121
:1004D000E00121E00E9492021092DF011092E001FF
:1004E0001092E101089580E290E061E070E00E94E6
:1004F000A5008093D8019093D9011092DA0110924F
:10050000DB0180E290E061E070E00E94A500809352
:10051000DD019093DE011092DF011092E0010E9454
:10052000760408951F93582F122F413210F081E066
:100530003CC08091E3018823E1F782E08093E301EE
:100540008FEF8093F4011092EB014093EC01A091A6
:10055000E901B091EA01FB0102C081918D938E2FD8
:10056000861B8417D0F3852F90E0880F991F809306
:10057000E40185EE8093BC00112321F08091E3011A
:100580008230E1F38091F4018F3F11F480E00DC0DF
:100590008091F401803211F482E007C08091F4016F
:1005A000803311F084E001C083E01F910895482F4B
:1005B000613210F081E008958091E301843011F000
:1005C00082E008956093F001A091ED01B091EE01F9
:1005D000842F9C01F90102C081918D938E2F841B81
:1005E0008617D0F380E008951F920F920FB60F92F6
:1005F00011242F933F934F935F936F937F938F9328
:100600009F93AF93BF93EF93FF938091B90090E0D6
:10061000887F90708036910509F4E2C0813691059B
:10062000CCF58832910509F47BC089329105B4F488
:100630008031910509F46FC0813191053CF4009738
:1006400009F438C1089709F040C165C088319105A7
:1006500009F466C0809709F038C17FC080349105E5
:1006600009F4A3C08134910544F48033910509F461
:100670007FC0C89709F029C186C08035910509F46B
:1006800086C08835910509F495C08834910509F034
:100690001CC19EC08839910509F404C189399105AE
:1006A000ECF48837910509F49BC0893791054CF427
:1006B0008836910509F494C08037910509F005C189
:1006C0008FC08838910509F4EDC08039910509F48F
:1006D0008DC08038910509F0F8C088C0803B910535
:1006E00009F4B2C0813B91054CF4803A910509F4BC
:1006F00091C0883A910509F0E8C0A6C0803C9105F8
:1007000009F4D4C0883C910509F4D0C0883B910518
:1007100009F0DBC0B1C08091E4018093BB00C0C090
:100720009091EB018091EC01981778F49091EB0196
:10073000E091E901F091EA01E90FF11D80818093D8
:10074000BB009F5F9093EB01ABC085ED8093BC0035
:100750008091BC0084FDFCCFB6C080E28093F401A0
:1007600085ED8093BC008091BC0084FDFCCFABC0C4
:1007700080E38093F40185ED8093BC008091BC0000
:1007800084FDFCCFA0C088E38093F4018FC08091EA
:10079000EB019091BB00E091E901F091EA01E80FD3
:1007A000F11D90838F5F8093EB019091EB0180911D
:1007B000EC0174C08091EB019091BB00E091E901E4
:1007C000F091EA01E80FF11D90838F5F8093EB01B8
:1007D00085ED8093BC008091BC0084FDFCCF73C08C
:1007E00083E08093E3011092F3015AC08091F301FA
:1007F000803208F057C08091F3019091BB00E091E6
:10080000F101F091F201E80FF11D90838F5F809369
:10081000F30146C08091F301803248F48091F301E6
:10082000E091F101F091F201E80FF11D1082609169
:10083000F301E091E701F091E8018091F1019091DD
:10084000F20170E0099532C084E08093E3011092D8
:10085000EF011092F001E091E501F091E6010995B8
:100860008091F001882341F481E08093F001E091D0
:10087000ED01F091EE0110829091EF01E091ED0118
:10088000F091EE01E90FF11D80818093BB009F5F25
:100890009093EF019091EF018091F001981710F47F
:1008A00085EC01C085E88093BC000FC085EC809387
:1008B000BC0009C01092F40185ED8093BC008091CA
:1008C000BC0084FDFCCF1092E301FF91EF91BF913A
:1008D000AF919F918F917F916F915F914F913F91D8
:1008E0002F910F900FBE0F901F9018951092E3015B
:1008F000449A459AE9EBF0E080818E7F8083808185
:100900008D7F808388E48093B80085E48093BC0069
:1009100080E290E061E070E00E94A5008093E90130
:100920009093EA0180E290E061E070E00E94A5000F
:100930008093ED019093EE0180E290E061E070E041
:100940000E94A5008093F1019093F201089520E0A8
:1009500030E0FC01E20FF31F118210822E5F3F4F47
:100960002E303105B1F70895089508950F931F9320
:10097000CF93DF938C0183E061E00E949F1583E0B9
:1009800060E00E949F15C0E0D0E082E060E00E943D
:100990009F158EE190E00E94DC1680E00E943E16DA
:1009A000F801EC0FFD1F9183808382E061E00E94DB
:1009B0009F152296CE30D10541F7C801DF91CF9126
:1009C0001F910F91089580E060E00E947F1582E002
:1009D00061E00E947F1583E061E00E947F1581E065
:1009E0000E943B1683E060E00E949F1582E061E078
:1009F0000E949F1508950895FC0181850895FC01CA
:100A0000818108950F931F93CF93DF93EC018D8124
:100A10009E81AF81B8858A019B01081B190B2A0BA7
:100A20003B0BD901C80181509440A040B040C0F0B8
:100A30004D835E836F83788781E00E943E1620E0BD
:100A400030E08150924014F021E030E08B819C81B5
:100A5000880F991F282B392B3C832B8381E08987B2
:100A60002B813C81C9010196029760F490E02F5FD1
:100A70003F4F09F491E099838A81891719F09A838D
:100A800081E001C080E0DF91CF911F910F91089527
:100A90000F931F938C01FC0110828DE060E00E9497
:100AA0009F150E94A416F80165837683878390873B
:100AB00011861F910F9108950F931F938C0181E070
:100AC000F80180838DE061E00E949F150E94A416CA
:100AD000F801658376838783908711861F910F9134
:100AE00008950F931F938C010E94A416F80165834B
:100AF00076838783908781E0818711821282808349
:100B00001F910F91089581E060E00E947F158DE0B4
:100B100061E00E947F158DE061E00E949F150895BD
:100B20008130910591F46F5F7F4FE1F48EEF91E09A
:100B30000E94710588E092E06EEF71E00E947E12E3
:100B400088EE92E00E945D150895892B59F46F5F3D
:100B50007F4F41F488E092E00E9464128EEF91E0B2
:100B60000E94FB04089580E090E06FEF7FEF0E9409
:100B70009005089581E090E06FEF7FEF0E9490056F
:100B80000895982F8091FD018130F9F082301CF496
:100B9000882339F00895823059F1833009F062C01A
:100BA0003FC0992319F4662309F45CC081E0809367
:100BB000FD01992329F088EE92E00E94BA1408956D
:100BC00088EE92E00E94C9140895992339F06623B3
:100BD00009F448C082E08093FD0105C0662309F056
:100BE00041C01092FD0188EE92E00E94AF1408957A
:100BF0006623C1F59923B1F58091F5019091F60135
:100C0000A091F701B091F8018093F9019093FA0156
:100C1000A093FB01B093FC0183E08093FD01089554
:100C2000662311F4992319F082E08093FD018091ED
:100C3000F5019091F601A091F701B091F801209192
:100C4000F9013091FA014091FB015091FC01821BA6
:100C5000930BA40BB50B81509C40A040B04010F00A
:100C60001092FD0108950F931F930E94A416AB01EB
:100C7000BC014093F5015093F6016093F701709326
:100C8000F80188EE92E00E94D81488EE92E00E946B
:100C90002614082F88EE92E00E942314182F40910A
:100CA000F5015091F6016091F7017091F8018EEF16
:100CB00091E00E940205882379F08EEF91E00E9476
:100CC000FF04882329F088E092E00E94A80F04C066
:100CD00088E092E00E94A50F4091F5015091F60145
:100CE0006091F7017091F80188E092E0212F0E9455
:100CF0003E10812F602F0E94C1050E94A4169B0107
:100D0000AC018091F5019091F601A091F701B091AD
:100D1000F801281B390B4A0B5B0B243131054105C7
:100D2000510550F464E170E080E090E0621B730BC9
:100D3000840B950B0E94B2162091F5013091F601BB
:100D40004091F7015091F801232F342F452F55275B
:100D5000217089E0622F0E949F151F910F910895C5
:100D60008F92AF92BF92CF92EF92FF920F93109219
:100D7000FD0188E092E06AE071E041E02EE031E0C0
:100D800001E0F2E1EF2EF1E0FF2EE7E0CE2E5EE291
:100D9000A52E51E0B52E882483940E94800F88E010
:100DA00092E060E00E94A20F88E092E00E9453125D
:100DB00088EE92E00E9434158EEF91E00E94830548
:100DC0000E94A4166093F5017093F6018093F701D9
:100DD0009093F80188E092E00E94AC0F08C00E9456
:100DE000A416AB01BC018EEF91E00E94020588E0E1
:100DF00092E00E94B70F882391F30F91FF90EF903C
:100E0000CF90BF90AF908F9008950E94EA160E94F5
:100E1000B0060E943306FDCF2F923F924F925F9211
:100E20006F927F928F929F92AF92BF92CF92DF92FA
:100E3000EF92FF920F931F93CF93DF937B012901D2
:100E40003A01C92EC694C6942FE1C222DD249C012A
:100E500045E0369527954A95E1F72F71222E3324E8
:100E60008F71C82FD0E0B601882777FD8095982F25
:100E70000E94AC184B015C016F2D6695669570E081
:100E80006F7170706C197D09882777FD8095982F98
:100E90000E94AC18A30192010E9488199B01AC0129
:100EA000C501B4010E9447170E947E18D62EDD0CA2
:100EB000DD0CCC24B101882777FD8095982F0E9406
:100EC000AC184B015C01B70195E0769567959A9552
:100ED000E1F770E06F71707062197309882777FD10
:100EE0008095982F0E94AC18A30192010E94881946
:100EF0009B01AC01C501B4010E9447170E947E18F6
:100F000070E085E0660F771F8A95E1F7C62AD72A39
:100F1000BE01882777FD8095982F0E94AC184B0161
:100F20005C01FF248FE1E822FF24EC1AFD0A002770
:100F3000F7FC0095102FC801B7010E94AC18A3015F
:100F400092010E9488199B01AC01C501B4010E9465
:100F500047170E947E189B01AC0130E02C293D29E7
:100F60003068C901DF91CF911F910F91FF90EF90F1
:100F7000DF90CF90BF90AF909F908F907F906F90B9
:100F80005F904F903F902F9008950F931F938C0187
:100F900060E07FEF0E94CF12C80160E070E00E9425
:100FA000C61281E090E01F910F910895E091FE023A
:100FB000F091FF02E0FD0CC064E0F695E7956A95BC
:100FC000E1F7EE0FFF1FE858FE4F6081718102C00C
:100FD00060E070E00E94C6128091FE029091FF02D4
:100FE000019691709093FF028093FE0281E090E061
:100FF00008950F931F93CF93DF93EC018B018091A2
:10100000000391E0892780930003CE0160E070E047
:101010000E94C612CE0160EA70E00E94CF12C801A1
:101020000E94E30F8150904C30F0CE0161E040E02F
:1010300050E00E94DA12C8010E94E30F8150904DE7
:1010400030F0CE0164E048EC50E00E94DA1281E01A
:1010500090E0DF91CF911F910F9108959F92AF92F1
:10106000BF92CF92DF92EF92FF920F931F93CF9395
:10107000DF936C0180913301481781F0442361F4C0
:10108000109206038FE190E890930A03809309037E
:10109000909308038093070340933301CB010E9490
:1010A000EB0F5C01EE24FF24C0E0D0E09C2EFE019B
:1010B000EE7FEA0DFB1D86819781E816F90608F49C
:1010C0007C0164E670E00E94721A062F0095065FAC
:1010D00010E0101744F02091090330910A03C60173
:1010E000692D412F05C0C601692D412F20E030E058
:1010F0000E94E7121F5F1A3061F72196C630D105B2
:10110000A9F681E2E81683E0F80688F0E09106038C
:10111000EF5FEF71E0930603F0E0EE0FFF1FE8587A
:10112000FE4F808191819093080380930703609123
:101130000703709108038091090390910A032DEC35
:101140003CEC4CEC5DE30E940C0790930A03809307
:10115000090381E090E0DF91CF911F910F91FF9003
:10116000EF90DF90CF90BF90AF909F9008958F92B7
:101170009F92AF92BF92CF92DF92EF92FF920F9326
:101180001F93CF93DF934C0180913401481781F076
:10119000442361F410920B038FE190E890930F03C6
:1011A00080930E0390930D0380930C0340933401BE
:1011B000CB010E94EB0F5C01CC24DD24C0E0D0E029
:1011C0000C2FFE01EE7FEA0DFB1D66817781C616AE
:1011D000D70608F46B01E0900E03F0900F0382E055
:1011E0006935780710F068E572E080E090E00E94D1
:1011F000AA1820E030E046E154E40E9411189B0157
:10120000AC0180E090E0B7010E940C077C0110E087
:10121000C401602F412F97010E94E7121F5F1A300F
:10122000B9F72196C630D10559F681E2C81683E098
:10123000D80688F0E0910B03EF5FEF71E0930B03AA
:10124000F0E0EE0FFF1FE858FE4F808191819093F0
:101250000D0380930C0360910C0370910D0380913A
:101260000E0390910F032DEC3CEC4CEC5DE30E94DF
:101270000C0790930F0380930E0381E090E0DF91C1
:10128000CF911F910F91FF90EF90DF90CF90BF9083
:10129000AF909F908F900895AF92BF92CF92DF92C0
:1012A000EF92FF920F931F93CF93DF935C01CB01DB
:1012B0000E94EB0FFC010085118560911203709173
:1012C0001303882777FD8095982F0E94AC1826E697
:1012D00036E646E65FE30E9488190E947918980175
:1012E000220F331F260F371F30931303209312034F
:1012F0008091140390911503821B930B9093150317
:1013000080931403C801F2E001301F0710F080E061
:1013100092E06C01D694C794EE24FF2480911203CE
:101320009091130320911403309115038952934235
:101330009CF0C701982F88279295907F820F931F6A
:10134000E92FE695E695E695F0E0EE0FFF1FE858E9
:10135000FE4FC081D1812EC0C701982F882792955A
:10136000990F907E820F931FE92FE695E695E695FB
:10137000F0E0E854FE4F808190E0FC01EC9DC0015C
:10138000ED9D900DFC9D900D1124892F86958695DD
:10139000869590E0EC01DC2FCC27DD0FDD0F9C0162
:1013A000B5E0220F331FBA95E1F7C22BD32BC82B20
:1013B000D92BD06810E0C501612F4E2D9E010E94EF
:1013C000E7121F5F1630B9F70894E11CF11CFAE030
:1013D000EF16F10409F0A2CF81E090E0DF91CF9108
:1013E0001F910F91FF90EF90DF90CF90BF90AF9043
:1013F0000895AF92BF92CF92DF92EF92FF920F9338
:101400001F93CF93DF935C016B01142F8091320106
:101410004817B9F0442399F4CB010E94E30FFC0173
:10142000EF71F070EE0FFF1FE858FE4F6081718181
:101430007093050360930403C5010E94C6121093C4
:101440003201C6010E94EB0FFC0180859185853633
:10145000910508F487C07C0105E0F694E7940A95AD
:10146000E1F7C0E0D0E014C0C60166E070E00E9481
:10147000DD0F182FC6016AE070E00E94DD0F482FD3
:101480002091040330910503C501612F0E94E712EA
:1014900021968E2D8C1B87FFE7CFEE2400E013C032
:1014A000C501612F402F0E94FC122091040330914E
:1014B00005038217930709F4E3941F5F163081F741
:1014C0000F5F0A3011F010E0EBCFFCE3EF1609F0EC
:1014D00049C0C6010E94E30FFC01EF71F070EE0FEE
:1014E000FF1FE858FE4FE080F180C60164E670E01F
:1014F0000E94DD0F2F2D26952695122F00E00070FB
:101500001C719701B5E036952795BA95E1F730E063
:10151000A3E0220F331FAA95E1F7207E3070022B43
:10152000132B2E2D30E02F71307035952795359582
:101530002795022B132B1068A0E0B0E0BC01CD0171
:101540000E94AA1820E030E048EC52E40E941118F2
:101550009B01AC01C801B7010E940C0790930503E1
:1015600080930403DF91CF911F910F91FF90EF9033
:10157000DF90CF90BF90AF9008956F927F928F923F
:101580009F92AF92BF92CF92DF92EF92FF920F9312
:101590001F93CF93DF936C01F42E80913501481790
:1015A00009F14423B9F4C6E1D3E000E0E9E0AE2E4E
:1015B000B12CB982A88210E0C601602F412F20E033
:1015C00030E00E94E7121F5F1A30B1F70F5F2296DA
:1015D000063079F7F092350176E1E72E73E0F72EC9
:1015E00010E032C0CB010E94EB0FEC0110912203FE
:1015F000A6E1B3E040E050E066EFE62E6FEFF62E96
:10160000FA01EE7FEC0FFD1F6681778183E0613286
:10161000780714F01F5F1F718D919C911197845270
:101620009A4F6E9D90016F9D300D7E9D300D11245F
:10163000820F931F8D939D934F5F5F4F46305105EF
:10164000F9F610932203C8CFF701808191816AE9EE
:1016500079E10E94721A062FC0E0D0E0862F90E058
:101660003C010894610871084C010894811C911C8C
:101670000C17C9F4C601612F402F0E94FC12E091A3
:101680002203F0E0EE0FFF1FE858FE4F60817181EA
:1016900020E030E040E05FE30E940C079C01C601BF
:1016A000612F402F69C0C615D70519F0C815D90597
:1016B000C9F4C601612F4C2F0E94FC12E091220355
:1016C000F0E0EE0FFF1FE858FE4F608171812DECB6
:1016D0003CEC4CEC5DE30E940C079C01C601612FC1
:1016E0004C2F4AC0BC2EC601612F4C2F0E94FC1209
:1016F000BC01872F86958695992787FD90958F71D8
:101700009070823091051CF440E050E007C0AC01BD
:1017100042505040542F4427550F550FCB0125E020
:10172000969587952A95E1F7282F332727FD309541
:101730002F713070223031051CF420E030E007C0FA
:101740002250304095E0220F331F9A95E1F7862F03
:10175000992787FD90958F719070823091051CF4C8
:1017600080E090E001C00297242B352B282B392BE9
:101770003068C601612F4B2D0E94E7122196CA30B6
:10178000D10509F075CF1F5F82E090E0E80EF91EE9
:10179000163009F059CF81E090E0DF91CF911F9191
:1017A0000F91FF90EF90DF90CF90BF90AF909F9000
:1017B0008F907F906F9008956F927F928F929F92FB
:1017C000AF92BF92CF92DF92EF92FF920F931F934F
:1017D000CF93DF934C013B01EE240EE31EEF37C0A5
:1017E000BE01882777FD8095982F0E94AC189B0139
:1017F000AC01C601B5010E94BA1723E839EF42EAED
:1018000050E40E9488190E947918DC01CB012091D4
:10181000100330911103820F931F8F719070880F06
:10182000991F88589E4FFC0120813181C4016F2D82
:101830004E2D0E94E712F394CC59DF4FF6E0FF16CD
:1018400079F6E3940C591F4F8AE0E81669F0B80165
:10185000882777FD8095982F0E94AC185B016C015A
:10186000FF24C6E0DFEFBCCFC3010E94EB0FFC01F9
:1018700020853185220F232F221F330B3195809134
:10188000100390911103820F931F90931103809383
:101890001003DF91CF911F910F91FF90EF90DF9098
:1018A000CF90BF90AF909F908F907F906F90089552
:1018B0002F923F924F925F926F927F928F929F9260
:1018C000AF92BF92CF92DF92EF92FF920F931F934E
:1018D0003B014C0119012A01C801B701A401930180
:1018E0000E94461720E535E545ED5FE30E94881923
:1018F0007B018C01C601B501A20191010E9446172E
:101900005B016C01C801B701A80197010E94881909
:101910007B018C01C601B501A60195010E948819C1
:101920009B01AC01C801B7010E9447170E94EF1943
:101930001F910F91FF90EF90DF90CF90BF90AF90ED
:101940009F908F907F906F905F904F903F902F90DF
:1019500008952F923F924F925F926F927F928F9253
:101960009F92AF92BF92CF92DF92EF92FF920F932E
:101970001F93DF93CF93CDB7DEB7E0970FB6F89400
:10198000DEBF0FBECDBF9A8789878B0160910303AD
:10199000E62EFF24F7013896EF71F070E854FE4F01
:1019A000608170E0882777FD8095982F0E94AC18A1
:1019B00020E030E04FE753E40E94111820E030E0CF
:1019C00040EA50E40E9488196F8F78A389A39AA3F4
:1019D0002FE1E222FF2488EB91E0E80EF91ED70107
:1019E0006C9170E0882777FD8095982F0E94AC1845
:1019F00020E030E04FE753E40E94111820E030E08F
:101A000040E151E40E9488196B8F7C8F8D8F9E8FEF
:101A100080910203E82EFF24E8E0F0E0EE19FF09D0
:101A2000EF71F070E854FE4F608170E0882777FD19
:101A30008095982F0E94AC1820E030E04FE753E4E7
:101A40000E94111820E030E040EA50E40E9488191A
:101A50006F8B788F898F9A8FEE27FF27EE19FF09FA
:101A6000EF71F070E854FE4F608170E0882777FDD9
:101A70008095982F0E94AC1820E030E04FE753E4A7
:101A80000E94111820E030E040E151E40E948819E2
:101A90006B8B7C8B8D8B9E8B60910103E62EFF24DC
:101AA000E8E1F0E0EE0EFF1EF701EF71F070E85490
:101AB000FE4F608170E0882777FD8095982F0E9407
:101AC000AC1820E030E04FE753E40E94111820E00A
:101AD00030E040EA50E40E9488196F87788B898B48
:101AE0009A8B28EF3FEFE20EF31E3FE1E322FF2443
:101AF00088EB91E0E80EF91ED7016C9170E0882721
:101B000077FD8095982F0E94AC1820E030E04FE7D9
:101B100053E40E94111820E030E040E151E40E94BB
:101B200088196B877C878D879E87C8010E94EB0F81
:101B30001A82FC013696F8A7EFA39C01285F3F4F5D
:101B40003AA729A7DC011A96BCA7ABA798C1EFA1B9
:101B5000F8A5608171816C597F4F80E090E00E9410
:101B6000AA182FE632E143E05CE30E9488193B01AA
:101B70004C01F9816F2F772767FD7095872F972F7D
:101B80000E94AC186D837E838F8398876BA17CA1A4
:101B90008DA19EA10E94AC181B012C016D817E813C
:101BA0008F819885A2019101EF8DF8A1D9A0CAA0DB
:101BB0007F010D2D1C2DEB8DFC8DAD8DBE8D5F013C
:101BC0006D010E94580C9B01AC01C401B3010E943D
:101BD000461720E030E040E050E00E940D188823D6
:101BE00014F41C8236C0EFA1F8A5608171816C5994
:101BF0007F4F80E090E00E94AA182FE632E143E098
:101C00005CE30E9488193B014C016D817E818F81CC
:101C10009885A2019101EF8DF8A1D9A0CAA07F01FA
:101C20000D2D1C2DEB8DFC8DAD8DBE8D5F016D01DD
:101C30000E94580C9B01AC01C401B3010E944617DD
:101C400020E030E048EF51E40E9488190E947E189D
:101C50006C83E9A5FAA5608171816C597F4F80E0A2
:101C600090E00E94AA1826EA3BE944EC5BE30E945C
:101C700088193B014C016D817E818F819885A2017D
:101C80009101EF89F88DD98CCA8C7F010D2D1C2D07
:101C9000EB89FC89AD89BE895F016D010E94580CFA
:101CA0009B01AC01C401B3010E94461720E030E063
:101CB00040E050E00E940D18882314F41B8236C0C7
:101CC000E9A5FAA5608171816C597F4F80E090E0B1
:101CD0000E94AA1826EA3BE944EC5BE30E948819BB
:101CE0003B014C016D817E818F819885A20191011C
:101CF000EF89F88DD98CCA8C7F010D2D1C2DEB89B5
:101D0000FC89AD89BE895F016D010E94580C9B0161
:101D1000AC01C401B3010E94461720E030E048EF57
:101D200051E40E9488190E947E186B83EBA5FCA5E4
:101D3000608171816C597F4F80E090E00E94AA1809
:101D40002FE632E143E05CE30E9488193B014C013D
:101D50006D817E818F819885A2019101EF85F8893F
:101D6000D988CA887F010D2D1C2DEB85FC85AD859A
:101D7000AFA7BE85B8AB5F016D010E94580C9B01F7
:101D8000AC01C401B3010E94461720E030E040E0FE
:101D900050E00E940D18882314F460E03DC0EBA5CC
:101DA000FCA5608171816C597F4F80E090E00E94BA
:101DB000AA182FE632E143E05CE30E9488193B0158
:101DC0004C016D817E818F819885A2019101EF8503
:101DD000F889D988CA887F010D2D1C2DEB85FC85DB
:101DE0005D844E845F01C52CD42C0E94580C9B014D
:101DF000AC01C401B3010E94461720E030E048EF77
:101E000051E40E9488190E947E186F3128F020E06A
:101E10003CE73EA72DA704C0660F660F6EA71DA660
:101E20003B813F3118F020EE33E008C08B81282F32
:101E300030E015E0220F331F1A95E1F79C819F31A6
:101E400018F06FE170E003C0AC816A2F70E0EDA57F
:101E5000FEA52E2B3F2B262B372B306889859A85A4
:101E600069814A810E94E712F981FF5FF983F630A8
:101E700009F06DCE2A812F5F2A832A3061F0198202
:101E80008A81992787FD9095A92FB92F8BA39CA3B1
:101E9000ADA3BEA35CCEAFA1B8A511969C918091D5
:101EA0000303890F80930303E9A5FAA5918180912B
:101EB0000103890F80930103ABA5BCA511969C91EA
:101EC00080910203890F8093020381E090E0E09605
:101ED0000FB6F894DEBF0FBECDBFCF91DF911F913B
:101EE0000F91FF90EF90DF90CF90BF90AF909F90B9
:101EF0008F907F906F905F904F903F902F900895BC
:101F00008F92AF92BF92CF92EF92FF920F93DF9397
:101F1000CF93CDB7DEB7FC0171836083F582E48295
:101F200033832283B782A68242870487C686808A4B
:101F3000CF91DF910F91FF90EF90CF90BF90AF9036
:101F40008F900895FC01678B0895FC01148A089511
:101F500021E0FC01248B0895FC0181E0808711863B
:101F6000E252FF4F808191810E94480508950F93AE
:101F70001F93CF93DF93EC018885882311F481E0D0
:101F800017C08E0102521F4FF801808191810E947B
:101F9000FC04882369F08985882341F481E08987DE
:101FA000F801808191810E945C0501C0188680E063
:101FB000DF91CF911F910F91089580E090E00E94F2
:101FC0002417CB0108956FEF7FEF80E090E00E942F
:101FD0002417CB01089580539F4F0E94B5040895A4
:101FE000EF92FF920F931F93CF93DF93EC017A014F
:101FF0008B018E898823A1F18091260329A13AA122
:102000004BA15CA18823B1F0D801C701821B930BBF
:10201000A40BB50B89559B41A040B04008F18BE063
:1020200060E00E949F15E9A2FAA20BA31CA31092E4
:10203000260316C0D801C701821B930BA40BB50B56
:1020400081389105A105B10558F08BE061E00E944F
:102050009F15E9A2FAA20BA31CA381E0809326039B
:10206000DF91CF911F910F91FF90EF900895FC01A8
:10207000168A8BE060E00E949F150895CF92DF9250
:10208000EF92FF920F931F93CF93DF93EC016A01BE
:102090007B01022F0E94F00F898D9A8DAB8DBC8D34
:1020A000A7019601281B390B4A0B5B0B2531310523
:1020B0004105510508F4E1C1C98EDA8EEB8EFC8E24
:1020C00010E08091230390912403892B09F411E0FF
:1020D0008F89803109F453C0813124F4823008F0B3
:1020E000CCC00AC0843109F4ACC0823409F4B0C059
:1020F000823109F0C2C085C08AE00E94EC15892BAC
:10210000B1F081E08F8B112371F18D858F5F8D8709
:102110009C8589170CF01D868D85992787FD9095E4
:10212000880F991F880F991FEA81FB8114C01F8AAD
:102130001123C9F08B858F5F8B879A8589170CF0E7
:102140001B868B85992787FD9095880F991F880F8F
:10215000991FE881F981E80FF91F8281938190939B
:10216000240380932303002311F080E18F8B8C895B
:10217000882309F482C080E48F8B1D8A7EC08A89FF
:102180009B89009731F4CE010E9437108FEF9FEFAB
:1021900004C0181619061CF401979B8B8A8B112317
:1021A000C9F08F858F5F8F879E8589170CF01F86FA
:1021B0008F85992787FD9095880F991F880F991F04
:1021C000EC81FD81E80FF91F8281938190932403B4
:1021D00080932303002311F481E18F8B8D8D9E8DDD
:1021E000AF8DB8A1A7019601281B390B4A0B5B0BD9
:1021F000DA01C901815E9349AF4FBF4FF0F182E12F
:102200001EC01123C9F089898F5F898B988989172E
:102210000CF0198A8989992787FD9095880F991F55
:10222000880F991FEE81FF81E80FF91F828193814A
:1022300090932403809323030023F9F481E18F8B8F
:102240001CC0CE010E94B70F8823B9F01F8A15C0A9
:102250008C89882331F41D8ACE010E94AC0F84E161
:102260008F8B898D9A8DAB8DBC8D8050984FAF4FE1
:10227000BF4F898F9A8FAB8FBC8F9F89888D8917AD
:1022800009F4A0C0988F109225031F89113109F419
:1022900061C012313CF41130B1F01031D9F1112389
:1022A00071F090C0133109F46AC013310CF44AC0C4
:1022B000103409F469C0113409F084C07AC0CE0129
:1022C0000E94371023C0CE01859660E070E00E9426
:1022D000CF128D89882309F41E8B8D858F5F8D87A2
:1022E0009C8589170CF01D868D85992787FD909513
:1022F000880F991F880F991FEA81FB81E80FF91F4A
:1023000082819381909324038093230381E08093BF
:10231000250358C0CD8EDE8EEF8EF8A210922403D6
:10232000109223038D89882311F481E08E8B80E045
:1023300094E09B8B8A8BCE01859660E070E00E94D2
:10234000CF12E4CFCE010E943710109224031092D6
:102350002303DCCFCE010E943710CE0185960E9468
:102360001113898D9A8DAB8DBC8D8050984FAF4FD6
:10237000BF4F898F9A8FAB8FBC8F83E122C0CE0174
:102380000E94AC0F84E11DC0CE010E943710CE0127
:1023900085960E941113898D9A8DAB8DBC8D8050CE
:1023A000984FAF4FBF4F898F9A8FAB8FBC8F81E40F
:1023B00008C0FE01E252FF4F808191810E944805D2
:1023C00082E48F8B80912503882309F44BC0CE01D2
:1023D00080539F4F0E94B6048F898130A9F08230CC
:1023E0001CF4882331F03AC08031C9F08231B1F554
:1023F00021C08B85992787FD9095880F991F880F9D
:10240000991FE881F98120C08D85992787FD9095D6
:10241000880F991F880F991FEA81FB8115C08F854E
:10242000992787FD9095880F991F880F991FEC8138
:10243000FD810AC08989992787FD9095880F991F8A
:10244000880F991FEE81FF81E80FF91F0190F0813D
:10245000E02DCE018596BE0141E00995CE0185961D
:102460000E9474138091230390912403009729F014
:1024700001979093240380932303DF91CF911F91C1
:102480000F91FF90EF90DF90CF9008958AE060E089
:102490000E947F158BE061E00E947F158BE060E079
:1024A0000E949F1508950F931F938C0185960E949B
:1024B0001614C80180539F4F0E94E304C8010E9474
:1024C00046121F910F910895EF92FF920F931F9361
:1024D0008C01B5E2EB2EF12CE80EF91EC7010E942B
:1024E000C512C80180539F4F0E94B404C7010E94C7
:1024F000C4121F910F91FF90EF900895EF92FF92F9
:102500000F931F938C017B0185960E94B512C80121
:1025100080539F4F0E94A704F801168A0E94A416B8
:10252000F801618F728F838F948F61A372A383A34D
:1025300094A302521F4FF801F182E0820E5D104019
:102540008FEFF801808F138615861786118A148AFB
:10255000158A10861186158E168E178E10A2178A70
:102560001F910F91FF90EF900895FC01E655FF4FEA
:102570001082EA5AF040CF0180569F4F119211927B
:10258000E817F907D9F7089508950895FC018056D2
:102590009F4F61937193E817F907D9F70895FC01EC
:1025A000E056FF4F86559F4F61937193E817F907E7
:1025B000D9F70895E62FFF27E7FDF095E05BFF4F81
:1025C000EE0FFF1FE80FF91F518340830895E42F9A
:1025D000FF27E7FDF09553E0EE0FFF1F5A95E1F757
:1025E000772767FD7095E60FF71FEE0FFF1FE80FC7
:1025F000F91F318320830895E42FFF27E7FDF0952D
:1026000073E0EE0FFF1F7A95E1F7772767FD70956E
:10261000E60FF71FEE0FFF1FE80FF91F8081918172
:1026200008950F931F9302EE11E0C80160E00E942D
:102630002B02C8016FE670E00E945E02C8010E9492
:102640006102C80160E00E942B02C80166E670E0EA
:102650000E945E02C80162E370E00E945E02C8014F
:102660000E946102C80160E00E942B02C80163E67B
:1026700070E00E945E02C80160E070E00E945E02AD
:10268000C80160E070E00E945E02C80160E070E096
:102690000E945E02C8010E9461021F910F9108957D
:1026A0000F931F9302EE11E0C80160E00E942B021D
:1026B000C8016FE670E00E945E02C8010E946102DC
:1026C000C80160E00E942B02C80166E670E00E942B
:1026D0005E02C80160EC70E00E945E02C8010E94C8
:1026E00061021F910F9108957F928F929F92AF92F6
:1026F000BF92CF92DF92EF92FF920F931F93CF93EF
:10270000DF934C010E94501326E3C22E21E0D22E0B
:10271000AA24BB2444C0F701608167FD2CC0088156
:10272000198182EE91E00E942B0282EE91E063E635
:102730000E943602602F660F660F660F82EE91E0F0
:102740000E9436021695079516950795602F687FAB
:1027500082EE91E00E94360285E0169507958A95F3
:10276000E1F7087F82EE91E0602F0E94360282EE50
:1027700091E00E9461020894E11CF11C739422967E
:10278000F6E07F1641F686E090E0C80ED91E089468
:10279000A11CB11C92E7C91691E0D90659F0E501D8
:1027A00014E0CC0FDD1F1A95E1F7C80DD91D760195
:1027B0007724B1CFE401C056DF4FB2E7EB2EB1E092
:1027C000FB2E1881098182EE91E0F70161917F0172
:1027D0000E942B0282EE91E063E60E94360282EEB6
:1027E00091E0612F0E94360282EE91E0602F0E94FC
:1027F000360282EE91E060E00E94360282EE91E0C5
:102800000E9461022296F7E7EF16F1E0FF06C9F693
:10281000DF91CF911F910F91FF90EF90DF90CF90BC
:10282000BF90AF909F908F907F9008950F931F93CC
:102830008C0182EE91E00E947302C8010E94111384
:102840001F910F910895FC0180810895FC01818101
:102850000895CF93DF93EC018C899D89A0E0B0E0CF
:102860002E813F8148855985281B390B4A0B5B0B0C
:1028700089E056954795379527958A95D1F7217028
:102880008F85281739F02F8789898F5F898B86304C
:102890000CF0198A8D859989882349F4933074F452
:1028A00085E060E00E949F1581E08D8707C093302E
:1028B0002CF085E061E00E949F151D86DF91CF918D
:1028C0000895CF93DF93EC018A899B89A0E0B0E063
:1028D0002E813F8148855985281B390B4A0B5B0B9C
:1028E00099E056954795379527959A95D1F7217098
:1028F0008E85281739F02E8788898F5F888B8630E0
:102900000CF0188A8C859889882349F4933074F4E4
:1029100088E060E00E949F1581E08C8707C09330BB
:102920002CF088E061E00E949F151C86DF91CF911A
:102930000895FC01138684E060E00E949F1585E005
:1029400061E00E949F150895FC01128687E060E017
:102950000E949F1588E061E00E949F1508950F93E3
:102960001F938C010E94A414C8010E9499141F9106
:102970000F910895FC0121E02387158686819781B8
:10298000958B848B2787118A84E061E00E949F15D4
:102990000895FC0121E02287148686819781938B1C
:1029A000828B2687108A87E061E00E949F15089538
:1029B0000F931F93CF93DF93EC018E819F81A885A6
:1029C000B9858A019B01081B190B2A0B3B0B0330AD
:1029D000110521053105F0F04E835F836887798703
:1029E0000A811B81000F111F8CE00E94EC15817081
:1029F0009070802B912B9B838A830C811D81000F0B
:102A0000111F86E00E94EC1581709070802B912B35
:102A10009D838C832A813B81C9010196029798F49A
:102A20008C819D810196029770F418822F5F3F4F31
:102A300011F481E0888320E08C819D818F5F9F4F1E
:102A400009F421E029838A85882319F0CE010E94A8
:102A500061148B85882319F0CE010E942914DF911F
:102A6000CF911F910F9108958CE060E00E947F1537
:102A700086E060E00E947F1587E061E00E947F159C
:102A800084E061E00E947F1588E061E00E947F158C
:102A900085E061E00E947F1587E060E00E949F155D
:102AA00084E060E00E949F1588E061E00E949F152D
:102AB00085E061E00E949F1508950F931F938C019C
:102AC000FC01108211828AEA9AEA938382839583B9
:102AD00084830E94A416F801668377838087918798
:102AE000128613861486158616861786108A118A12
:102AF000138A128A158A148A1F910F910895282F1C
:102B000030E0C90189539F4FFC0194912D543F4FF0
:102B1000F9018491882391F0E82FF0E0EE0FFF1F78
:102B2000EB56FF4FA591B491662329F48C919095B3
:102B300089238C9308958C91892B8C930895482F29
:102B400050E0CA0185529F4FFC012491CA0189536C
:102B50009F4FFC0194914D545F4FFA013491332300
:102B6000D1F1222331F1233021F4809180008F773D
:102B700005C0243031F4809180008F7D80938000E7
:102B800018C0213019F484B58F7704C0223021F4A5
:102B900084B58F7D84BD0DC0263021F48091B000B6
:102BA0008F7705C0273029F48091B0008F7D809306
:102BB000B000E32FF0E0EE0FFF1FE156FF4FA591AD
:102BC000B491662329F48C91909589238C93089570
:102BD0008C91892B8C930895682F70E0CB018552DE
:102BE0009F4FFC012491CB0189539F4FFC014491DD
:102BF0006D547F4FFB019491992319F420E030E04C
:102C000038C0222331F1233021F4809180008F7766
:102C100005C0243031F4809180008F7D8093800046
:102C200018C0213019F484B58F7704C0223021F404
:102C300084B58F7D84BD0DC0263021F48091B00015
:102C40008F7705C0273029F48091B0008F7D809365
:102C5000B000892F90E0880F991F87559F4FFC0186
:102C6000A591B4918C9120E030E0842311F021E013
:102C700030E0C90108958093770108958F70909195
:102C800077019295990F990F907C982B90937C00E7
:102C900080917A00806480937A0080917A0086FD2A
:102CA000FCCF2091780040917900942F80E030E0B3
:102CB000282B392BC90108951F920F920FB60F923E
:102CC00011242F933F938F939F93AF93BF93809142
:102CD0002B0390912C03A0912D03B0912E033091E2
:102CE0002F030196A11DB11D232F2D5F2D3720F03D
:102CF0002D570196A11DB11D20932F0380932B0307
:102D000090932C03A0932D03B0932E03809127035F
:102D100090912803A0912903B0912A030196A11D47
:102D2000B11D8093270390932803A0932903B093A8
:102D30002A03BF91AF919F918F913F912F910F9057
:102D40000FBE0F901F9018958FB7F89420912B030A
:102D500030912C0340912D0350912E038FBFB90168
:102D6000CA010895EF92FF920F931F937B018C018C
:102D70008FB7F89440912B0350912C0360912D0351
:102D800070912E038FBF2FB7F89480912B039091F1
:102D90002C03A0912D03B0912E032FBF841B950B04
:102DA000A60BB70BE816F9060A071B0760F71F9179
:102DB0000F91FF90EF900895019759F0FC01EE0FED
:102DC000FF1FEE0FFF1F32978FB7F8943197F1F77F
:102DD0008FBF0895789484B5826084BD84B5816086
:102DE00084BD85B5826085BD85B5816085BDEEE613
:102DF000F0E0808181608083E1E8F0E080818260A2
:102E00008083808181608083E0E8F0E08081816060
:102E10008083E1EBF0E0808184608083E0EBF0E090
:102E2000808181608083EAE7F0E080818460808334
:102E300080818260808380818160808380818068DE
:102E400080831092C1000895EF92FF920F931F9319
:102E50007B018C01611571058105910529F420E044
:102E600030E040E050E00BC00E941602A80197013C
:102E70000E94861AAC01CB01DA019C01AD01B901B7
:102E8000CA011F910F91FF90EF9008955058BB27F2
:102E9000AA270ED0FCC1EDD130F0F2D120F031F4F0
:102EA0009F3F11F41EF4BDC10EF4E095E7FBB3C1E2
:102EB000E92FFED180F3BA176207730784079507DD
:102EC00018F071F49EF516C20EF4E0950B2EBA2F91
:102ED000A02D0B01B90190010C01CA01A001112420
:102EE000FF27591B99F0593F50F4503E68F11A16CC
:102EF000F040A22F232F342F4427585FF3CF46955D
:102F000037952795A795F0405395C9F77EF41F167E
:102F1000BA0B620B730B840BBAF09150A1F0FF0F48
:102F2000BB1F661F771F881FC2F70EC0BA0F621F34
:102F3000731F841F48F4879577956795B795F79524
:102F40009E3F08F0B3CF9395880F08F09927EE0FB6
:102F50009795879508958DD158F080E891E009F410
:102F60009EEF8ED128F040E851E059F45EEF09C0A1
:102F700058C1C0C1E92FE0789BD168F3092E052A1A
:102F8000C1F3261737074807590738F00E2E07F800
:102F9000E02569F0E025E0640AC0EF6307F80094DB
:102FA00007FADB01B9019D01DC01CA01AD01EF9314
:102FB00047D06DD10AD05F91552331F02BED3FE022
:102FC00049E450FD49EC63CF0895DF93DD27B92F25
:102FD000BF7740E85FE31616170648075B0710F453
:102FE000D92F8FD19F938F937F936F9342D2E8E62F
:102FF000F0E01AD14CD12F913F914F915F9194D134
:10300000DD2349F09058A2EA2AED3FE049EC5FE366
:10301000D0785D274DDFDF913AC1D9D008F481E047
:1030200008950CD034C12CD140F023D130F021F4DC
:103030005F3F19F0F0C051115EC1F3C039D198F370
:103040009923C9F35523B1F3951B550BBB27AA2729
:1030500062177307840738F09F5F5F4F220F331F9B
:10306000441FAA1FA9F333D00E2E3AF0E0E830D067
:1030700091505040E695001CCAF729D0FE2F27D06A
:10308000660F771F881FBB1F261737074807AB0738
:10309000B0E809F0BB0B802DBF01FF2793585F4FAD
:1030A0002AF09E3F510568F0B6C025C15F3FECF3A2
:1030B000983EDCF3869577956795B795F7959F5F72
:1030C000C9F7880F911D9695879597F90895E1E0C6
:1030D000660F771F881FBB1F621773078407BA0725
:1030E00020F0621B730B840BBA0BEE1F88F7E09580
:1030F000089504D06894B111FEC00895E1D088F01D
:103100009F5790F0B92F9927B751A0F0D1F0660FD3
:10311000771F881F991F1AF0BA95C9F712C0B130EE
:1031200081F0E8D0B1E00895E5C0672F782F8827B7
:10313000B85F39F0B93FCCF3869577956795B3952D
:10314000D9F73EF490958095709561957F4F8F4F9C
:103150009F4F0895E89409C097FB3EF490958095A1
:10316000709561957F4F8F4F9F4F9923A9F0F92F4D
:1031700096E9BB279395F695879577956795B795CB
:10318000F111F8CFFAF4BB0F11F460FF1BC06F5FB1
:103190007F4F8F4F9F4F16C0882311F096E911C0C3
:1031A000772321F09EE8872F762F05C0662371F0E4
:1031B00096E8862F70E060E02AF09A95660F771FF8
:1031C000881FDAF7880F9695879597F90895990FD4
:1031D0000008550FAA0BE0E8FEEF16161706E807E1
:1031E000F907C0F012161306E407F50798F0621B02
:1031F000730B840B950B39F40A2661F0232B242BD7
:10320000252B21F408950A2609F4A140A6958FEFF5
:10321000811D811D089597F99F6780E870E060E047
:1032200008959FEF80EC0895DF93CF931F930F9342
:10323000FF92EF92DF927B018C01689405C0DA2E39
:10324000EF0172D0FE01E894A59125913591459149
:103250005591AEF3EF012CDEFE019701A801DA943F
:1032600079F7DF90EF90FF900F911F91CF91DF9151
:10327000089500240A9416161706180609060895DC
:1032800000240A9412161306140605060895092E42
:103290000394000C11F4882352F0BB0F40F4BF2BB1
:1032A00011F460FF04C06F5F7F4F8F4F9F4F0895F1
:1032B00057FD9058440F551F59F05F3F71F04795E7
:1032C000880F97FB991F61F09F3F79F087950895CC
:1032D000121613061406551FF2CF4695F1DF08C0EB
:1032E000161617061806991FF1CF86957105610508
:1032F00008940895E894BB2766277727CB0197F9B0
:1033000008959B01AC0160E070E080E89FE389CE06
:103310000BD0BDCFAEDF28F0B3DF18F0952309F056
:103320007ACF7FCF1124E7CFC3DFA0F3959FD1F3EE
:10333000950F50E0551F629FF001729FBB27F00D63
:10334000B11D639FAA27F00DB11DAA1F649F6627B8
:10335000B00DA11D661F829F2227B00DA11D621F07
:10336000739FB00DA11D621F839FA00D611D221FC1
:10337000749F3327A00D611D231F849F600D211DA5
:10338000822F762F6A2F11249F5750408AF0E1F048
:1033900088234AF0EE0FFF1FBB1F661F771F881F91
:1033A00091505040A9F79E3F510570F034CFA3CF04
:1033B0005F3FECF3983EDCF3869577956795B7957C
:1033C000F795E7959F5FC1F7FE2B880F911D9695A6
:1033D000879597F9089511F40EF423CF4DC070DF4F
:1033E000D0F39923D9F3CEF39F57550B87FF54D0D1
:1033F00056959795B0E020F4660F771F881FBB1F86
:103400001F930F9300249001A0018001F001A0E818
:103410000E0F1F1F0A1E511D601B710B8009B50B7B
:1034200048F4600F711F801DB51F0E1B1F0B0A0A89
:10343000510907C02E0F3F1F4A1F0E0F1F1F0A1EE4
:10344000511D660F771F881FBB1FA695F795E7953F
:10345000F8F60617170708065B07211D311D411DE9
:103460000F911F91B901842F9158880F96958795D8
:1034700008959B01AC014CCF9F3F49F0915028F437
:10348000869577956795B7959F5F80389F4F880F92
:103490009695879597F9089591505040660F771F3C
:1034A000881FD2F70895629FD001739FF001829F19
:1034B000E00DF11D649FE00DF11D929FF00D839FC3
:1034C000F00D749FF00D659FF00D9927729FB00D60
:1034D000E11DF91F639FB00DE11DF91FBD01CF0173
:1034E00011240895AA1BBB1B51E107C0AA1FBB1FD3
:1034F000A617B70710F0A61BB70B881F991F5A9580
:10350000A9F780959095BC01CD01089597FB092EF0
:1035100005260ED057FD04D014D00AD0001C38F474
:1035200050954095309521953F4F4F4F5F4F0895EF
:10353000F6F790958095709561957F4F8F4F9F4FCF
:103540000895A1E21A2EAA1BBB1BFD010DC0AA1FE4
:10355000BB1FEE1FFF1FA217B307E407F50720F0FC
:10356000A21BB30BE40BF50B661F771F881F991F77
:103570001A9469F760957095809590959B01AC01C0
:10358000BD01CF010895EE0FFF1F0590F491E02DCE
:1035900009942F923F924F925F926F927F928F92F7
:1035A0009F92AF92BF92CF92DF92EF92FF920F93D2
:1035B0001F93CF93DF93CDB7DEB7CA1BDB0B0FB6DC
:1035C000F894DEBF0FBECDBF09942A883988488899
:1035D0005F846E847D848C849B84AA84B984C8842F
:1035E000DF80EE80FD800C811B81AA81B981CE0F26
:1035F000D11D0FB6F894DEBF0FBECDBFED0108950B
:1036000010E0C4EFD0E004C0FE010E94C51A22966B
:0A361000C63FD107C9F7F894FFCFB9
:10361A0020003403000001000000F9070002D60769
:10362A000004F9090008A90C0008BD0A0008DC0B0F
:10363A0000042E080010B70800084C090008C50746
:10364A000002FFFFFFFF0A0C0D0F101213151618C8
:10365A00191B1C1E1F212224252728FFFF2D2E306F
:10366A0031FFFF3637FFFFFFFF3F40FFFFFFFF48F5
:10367A0049FFFF4E4F5152545557585A5B5D5E6091
:10368A0061630104050203011F80BF807F813F82BD
:10369A00FF82BF83FB83F583EF83E983E383E087BC
:1036AA00E09FE0B7E0CFE0E7E0FF20FF60FEA0FD8B
:1036BA00E0FC20FC03FC09FC0FFC15FC1BFC1FF4BE
:1036CA001FDC1FC41FAC1F947F98B0C6D9E9F5FC54
:1036DA00FFFCF5E9D9C6B0987F664E382515090270
:0836EA000002091525384E66A7
:00000001FF
