:100000000C9463000C948B000C948B000C948B006C
:100010000C948B000C948B000C948B000C948B0034
:100020000C948B000C948B000C948B000C948B0024
:100030000C948B000C948B000C948B000C948B0014
:100040000C94120A0C948B000C94290B0C948B00CA
:100050000C948B000C948B000C948B000C948B00F4
:100060000C94DC020C948B0000000000240027009C
:100070002A0000000000250028002B0000000000DE
:1000800023002600290004040404040404040202DA
:100090000202020203030303030301020408102007
:1000A0004080010204081020010204081020000012
:1000B0000007000201000003040600000000000029
:1000C00000001D02720C11241FBECFEFD8E0DEBF6E
:1000D000CDBF13E0A0E0B1E0EAE2F1E202C005909A
:1000E0000D92A235B107D9F715E0A2E5B3E001C042
:1000F0001D92AD32B107E1F710E0C6ECD0E004C0CC
:100100002297FE010E945810C23CD107C9F70E94F5
:100110002E090C9493100C9400000F931F93CF930F
:10012000DF93689F8001699F100D789F100D112447
:10013000C8010E94A900EC01009729F060E070E07E
:10014000A8010E940C02CE01DF91CF911F910F9167
:100150000895CF93DF93BC018230910510F462E0E3
:1001600070E0A0912B05B0912C05ED01E0E0F0E0EE
:1001700040E050E021C0888199818617970769F493
:100180008A819B81309719F09383828304C0909376
:100190002C0580932B05FE0134C06817790738F4CD
:1001A0004115510519F08417950708F4AC01FE01BB
:1001B0008A819B819C01E9012097E9F6411551054F
:1001C000A9F1CA01861B970B049708F4BA01E0E075
:1001D000F0E02AC08D919C91119784179507F9F44E
:1001E0006417750781F412968D919C91139730973F
:1001F00019F09383828304C090932C0580932B0580
:10020000FD0132964CC0CA01861B970BFD01E80F19
:10021000F91F6193719302978D939C9340C0FD01E8
:10022000828193819C01D9011097A1F680912905C3
:1002300090912A05892B41F4809125019091260106
:1002400090932A0580932905409127015091280118
:100250004115510541F44DB75EB78091230190914E
:100260002401481B590B2091290530912A05CA0108
:10027000821B930B8617970780F0AB014E5F5F4F91
:100280008417950750F0420F531F50932A0540934F
:100290002905F9016193719302C0E0E0F0E0CF011C
:1002A000DF91CF910895CF93DF93009709F450C069
:1002B000EC0122971B821A82A0912B05B0912C058C
:1002C000109709F140E050E0AC17BD0708F1BB837F
:1002D000AA83FE0121913191E20FF31FAE17BF07F0
:1002E00079F48D919C911197280F391F2E5F3F4F04
:1002F0003983288312968D919C9113979B838A83CF
:100300004115510571F4D0932C05C0932B0520C0E5
:1003100012968D919C911397AD01009711F0DC011D
:10032000D3CFFA01D383C28321913191E20FF31F1E
:10033000CE17DF0769F488819981280F391F2E5F56
:100340003F4FFA01318320838A819B81938382838B
:10035000DF91CF910895A0E0B0E0E1EBF1E00C94E3
:100360006410EC01A880B980CA80DB80A114B104BC
:10037000C104D10441F484E2A82E89EDB82E8BE5A6
:10038000C82E87E0D82EC601B5012DE133EF41E03C
:1003900050E00E94271027EA31E440E050E00E943C
:1003A000D30F7B018C01C601B5012DE133EF41E094
:1003B00050E00E942710CA01B9012CEE34EF4FEF34
:1003C0005FEF0E94D30F6E0D7F1D801F911F97FF5F
:1003D00004C06150704080409048688379838A836C
:1003E0009B839B01AC015F77B901CA01CDB7DEB732
:1003F000EAE00C9480100E94AB01089589E291E03C
:100400000E94AB0108956093290170932A018093A3
:100410002B0190932C010895DC0101C06D93415094
:100420005040E0F7089581E080935B0360935603AA
:100430001092590310925A0308950895DF93CF93B1
:100440000F92CDB7DEB7698380915B038823A9F053
:1004500080915A038032B0F480915903E0915703A0
:10046000F0915803E80FF11D6083809159038F5F6D
:100470008093590380935A0305C0CE01019661E031
:100480000E94BF020F90CF91DF9108950E941E023B
:1004900008956091570370915803809156034091DD
:1004A0005A0321E00E947A021092590310925A03D3
:1004B00010925B03089580E290E061E070E00E949A
:1004C0008D00809352039093530310925403109223
:1004D000550380E290E061E070E00E948D0080931F
:1004E0005703909358031092590310925A030E9495
:1004F0005E0408951F93582F122F413210F081E0AF
:100500003CC080915D038823E1F782E080935D0326
:100510008FEF80936E031092650340936603A09162
:100520006303B0916403FB0102C081918D938E2F10
:10053000861B8417D0F3852F90E0880F991F809336
:100540005E0385EE8093BC00112321F080915D0352
:100550008230E1F380916E038F3F11F480E00DC093
:1005600080916E03803211F482E007C080916E03A7
:10057000803311F084E001C083E01F910895482F7B
:10058000613210F081E0089580915D03843011F0B4
:1005900082E0089560936A03A0916703B0916803B5
:1005A000842F9C01F90102C081918D938E2F841BB1
:1005B0008617D0F380E008951F920F920FB60F9226
:1005C00011242F933F934F935F936F937F938F9358
:1005D0009F93AF93BF93EF93FF938091B90090E007
:1005E000887F90708036910509F4E2C081369105CC
:1005F000CCF58832910509F47BC089329105B4F4B9
:100600008031910509F46FC0813191053CF4009768
:1006100009F438C1089709F040C165C088319105D7
:1006200009F466C0809709F038C17FC08034910515
:1006300009F4A3C08134910544F48033910509F491
:100640007FC0C89709F029C186C08035910509F49B
:1006500086C08835910509F495C08834910509F064
:100660001CC19EC08839910509F404C189399105DE
:10067000ECF48837910509F49BC0893791054CF457
:100680008836910509F494C08037910509F005C1B9
:100690008FC08838910509F4EDC08039910509F4BF
:1006A0008DC08038910509F0F8C088C0803B910565
:1006B00009F4B2C0813B91054CF4803A910509F4EC
:1006C00091C0883A910509F0E8C0A6C0803C910528
:1006D00009F4D4C0883C910509F4D0C0883B910549
:1006E00009F0DBC0B1C080915E038093BB00C0C045
:1006F0009091650380916603981778F49091650353
:10070000E0916303F0916403E90FF11D8081809310
:10071000BB009F5F90936503ABC085ED8093BC00E9
:100720008091BC0084FDFCCFB6C080E280936E0354
:1007300085ED8093BC008091BC0084FDFCCFABC0F4
:1007400080E380936E0385ED8093BC008091BC00B4
:1007500084FDFCCFA0C088E380936E038FC080919E
:1007600065039091BB00E0916303F0916403E80F8F
:10077000F11D90838F5F8093650390916503809155
:10078000660374C0809165039091BB00E0916303A0
:10079000F0916403E80FF11D90838F5F80936503F0
:1007A00085ED8093BC008091BC0084FDFCCF73C0BC
:1007B00083E080935D0310926D035AC080916D03B6
:1007C000803208F057C080916D039091BB00E0919A
:1007D0006B03F0916C03E80FF11D90838F5F8093A2
:1007E0006D0346C080916D03803248F480916D03A3
:1007F000E0916B03F0916C03E80FF11D10826091A2
:100800006D03E0916103F091620380916B0390911D
:100810006C0370E0099532C084E080935D03109210
:10082000690310926A03E0915F03F09160030995F8
:1008300080916A03882341F481E080936A03E09108
:100840006703F0916803108290916903E091670358
:10085000F0916803E90FF11D80818093BB009F5FD9
:10086000909369039091690380916A03981710F43B
:1008700085EC01C085E88093BC000FC085EC8093B7
:10088000BC0009C010926E0385ED8093BC0080917E
:10089000BC0084FDFCCF10925D03FF91EF91BF91EE
:1008A000AF919F918F917F916F915F914F913F9108
:1008B0002F910F900FBE0F901F90189510925D030F
:1008C000449A459AE9EBF0E080818E7F80838081B5
:1008D0008D7F808388E98093B80085E48093BC0095
:1008E00080E290E061E070E00E948D0080936303FD
:1008F0009093640380E290E061E070E00E948D00DC
:10090000809367039093680380E290E061E070E079
:100910000E948D0080936B0390936C030895AF92B7
:10092000BF92CF92DF92EF92FF920F931F9382E0DC
:100930000E94F409895F914097FF03C090958195CB
:100940009F4F9093700380936F03209187043091A1
:100950008804821793072CF43093700320936F035D
:1009600004C09093880480938704809187049091B9
:1009700088042091430130914401821B930B909392
:1009800088048093870400D000D060916F03709139
:100990007003882777FD8095982F2091450130912D
:1009A0004601442737FD4095542FFFEFEF2EF12CE1
:1009B000012D112DEDB7FEB7E182F282038314837E
:1009C000ECE2EE2EE1E0FE2E012D112DAA24BB2437
:1009D00065010E94BE0A0F900F900F900F906F3F1D
:1009E000710519F014F06FEF70E077FF02C060E05E
:1009F00070E0EFEFF0E0E61BF70BEE0FFF1FE95B97
:100A0000FE4F818180936F03109270031F910F91AD
:100A1000FF90EF90DF90CF90BF90AF900895AF928E
:100A2000BF92CF92DF92EF92FF920F931F9300D06D
:100A300000D060916F0370917003882777FD8095D7
:100A4000982FA0903301B0903401CC24B7FCC0940F
:100A5000DC2C2091310130913201442737FD409543
:100A6000542FEDB7FEB7218332834383548320E0B4
:100A700030E040E050E0BFEFEB2EF12C012D112DC6
:100A80000E94BE0A70938204609381048091830463
:100A9000909184040F900F900F900F9086179707F6
:100AA000B4F080917F04909180048B3091052CF0FC
:100AB0001092800410927F0405C0019690938004E8
:100AC00080937F04109284041092830405C00196E1
:100AD000909384048093830420918504309186044C
:100AE0008091410190914201281739073CF42F5F12
:100AF0003F4F30938604209385042AC06FEF70E047
:100B000080E090E00E94070B70933C0160933B01F2
:100B10006FEF70E080E090E00E94070B70933E0161
:100B200060933D016FEF70E080E090E00E94070B62
:100B30007093400160933F016091350170913601DF
:100B400086E195E00E94D40D1092860410928504EF
:100B50006091350170913601882777FD8095982F37
:100B60000E94E40E7B018C0160913B0170913C017D
:100B7000882777FD8095982F0E94E40EA8019701A1
:100B80000E94E40D2DEC3CEC4CE45EE30E94700FFF
:100B90009B01AC01C801B7010E94E50D0E94B10E96
:100BA000C62E6093350170933601609137017091C4
:100BB0003801882777FD8095982F0E94E40E7B01ED
:100BC0008C0160913D0170913E01882777FD8095F1
:100BD000982F0E94E40EA80197010E94E40D2DECCD
:100BE0003CEC4CE45EE30E94700F9B01AC01C80139
:100BF000B7010E94E50D0E94B10ED62E6093370119
:100C0000709338016091390170913A01882777FD1E
:100C10008095982F0E94E40E7B018C0160913F012A
:100C200070914001882777FD8095982F0E94E40EEF
:100C3000A80197010E94E40D2DEC3CEC4CE45EE32E
:100C40000E94700F9B01AC01C801B7010E94E50D25
:100C50000E94B10E862F6093390170933A01609122
:100C60007F047091800449E754E020E030E016C032
:100C70002617370721F4C082D182828303C01082F5
:100C800011821282B196E417F50791F72F5F3F4F5B
:100C9000AF014D5F5F4F2B30310541F0F901EE0F91
:100CA000FF1FE20FF31FED54FC4FE2CF1F910F9196
:100CB000FF90EF90DF90CF90BF90AF9008952F926C
:100CC0003F924F925F926F927F928F929F92AF92DC
:100CD000BF92CF92DF92EF92FF920F931F93DF9319
:100CE000CF93CDB7DEB72A970FB6F894DEBF0FBE0D
:100CF000CDBF60916F0370917003882777FD809559
:100D0000982F0E94E40E20E030E04FE753E40E9469
:100D1000490E6D837E838F8398871C821B826BC0F4
:100D200068EE73E080E090E00E94070B0E94E40E02
:100D30009B01AC016D817E818F8198850E94700F2F
:100D400020E030E04AE754E40E94490E5B016C0168
:100D50006FEF70E080E090E00E94070B7B018C0158
:100D60006FEF70E080E090E00E94070B3B014C01C8
:100D70006FEF70E080E090E00E94070B1B012C01F8
:100D8000C801B7010E94E40EA60195010E94700FF0
:100D90000E94B10EE985FA856083C401B3010E9407
:100DA000E40EA60195010E94700F0E94B10EE98524
:100DB000FA856183C201B1010E94E40EA60195018A
:100DC0000E94700F0E94B10EE985FA856283298125
:100DD0003A812F5F3F4F3A832983B196FA87E9879B
:100DE0002630310509F09CCF8B819C8101969C8334
:100DF0008B830B9779F0EB81FC81EE0FFF1F2B812A
:100E00003C81E20FF31FED54FC4FFA87E9871A8209
:100E1000198286CF62E370E080E090E00E945A0A77
:100E20002A960FB6F894DEBF0FBECDBFCF91DF91EB
:100E30001F910F91FF90EF90DF90CF90BF90AF90F8
:100E40009F908F907F906F905F904F903F902F90EA
:100E5000089582E061E00E94350983E061E00E942C
:100E6000350984E060E00E94350985E060E00E9479
:100E700035098CE061E00E94350982E061E00E9462
:100E8000550983E060E00E9455098CE061E00E9412
:100E9000550981E00E94F1090895DF92EF92FF92D7
:100EA0000F931F93382FF62EE42ED22E0CE513E06D
:100EB000C801632F0E941302C8016EE670E00E9411
:100EC0004602C8016F2D0E941E02C8016E2D0E94AD
:100ED0001E02C8016D2D0E941E02C8010E94490217
:100EE0001F910F91FF90EF90DF900895AF92BF9206
:100EF000CF92DF92EF92FF920F931F93CF93DF93E6
:100F0000EE24FF248BE0A82EB12C15C0F6018191B0
:100F10006F01688149812A810E944D070F5F1F4F31
:100F200023960B30110591F70894E11CF11CF6E0B3
:100F3000EF16F104C1F0EA9C6001EB9CD00CFA9C26
:100F4000D00C112481E793E0C80ED91EE70105E01B
:100F5000CC0FDD1F0A95E1F7CE0DDF1DCD54DC4F20
:100F600000E010E0D3CFDF91CF911F910F91FF9060
:100F7000EF90DF90CF90BF90AF9008950F931F93A5
:100F80000CE513E0C8010E945B02C80160E00E940A
:100F90001302C8016FE670E00E944602C8010E9479
:100FA000490280E060E040E020E00E944D071F9190
:100FB0000F910895CF93DF93C0E0D0E082E060E02E
:100FC0000E94550986E195E060E071E00E94E30C23
:100FD00068E270E080E090E00E945A0A82E061E0FE
:100FE0000E94550986E195E063E071E00E94E30C00
:100FF00068E270E080E090E00E945A0A86E195E0A5
:1010000068E270E00E94CC0D86E195E067E071E057
:101010000E94E30C2196C530D10581F6DF91CF9176
:1010200008951F93CF93DF931AC084E00E94A20912
:1010300081309105A1F490937A048093790483E040
:1010400061E00E94550986E195E069E071E00E9447
:10105000020D6AE070E080E090E00E945A0A809100
:10106000790490917A04892B01F322C00E94DA0757
:101070006CED70E080E090E00E945A0A80E00E94EF
:10108000A209892B71F0D0937A04C093790483E08C
:1010900060E00E94550986E195E065E171E00E94FB
:1010A000020D6CED70E080E090E00E945A0A02C0F0
:1010B000C2E0D0E08091790490917A040197B1F276
:1010C00072C00E948F0480917B0490917C048130D7
:1010D0009105F9F082309105F9F0892BF9F420E0BF
:1010E00030E00DC01083118312820196B1968630D4
:1010F0009105C1F72F5F3F4F2B30310579F0F90192
:10110000EE0FFF1FE20FF31FED54FC4F80E090E065
:10111000E9CF0E945F0602C00E940F050E94760779
:1011200065E070E080E090E00E945A0A85E00E944D
:10113000A209892BA1F41092700310926F0380E032
:1011400060E040E020E00E944D0710927A04109287
:10115000790486E195E06DE171E00E94020D8091D5
:101160007D0490917E04019690937E0480937D048B
:1011700020912F013091300182179307ACF010922B
:101180007E0410927D0480917B0490917C04609198
:101190002D0170912E0101960E94F20F90937C0414
:1011A00080937B0401C01FEF8091790490917A04B1
:1011B000029709F486CFDF91CF911F91089586E1C0
:1011C00095E040E05BE460E070E00E94660B0E9406
:1011D00029070E94BE0745E020E030E06BE070E0A8
:1011E00010C090839F5F8F5F31978B30D1F7455F41
:1011F0002F5F3F4F473429F420E030E051E042E0D8
:1012000019C0269FF001279FF00D369FF00D112485
:10121000E558FC4F942F80E0E4CF10825183428345
:10122000019633968B309105C1F72F5F3F4F2630E3
:10123000310569F0F90165E0EE0FFF1F6A95E1F7EE
:10124000E20FF31FED54FC4F80E090E0E6CF82E028
:1012500090E090937A048093790408950E94840A20
:101260000E94DF080E941108FDCF282F30E0C9013D
:1012700086569F4FFC0194912A573F4FF901849164
:10128000882391F0E82FF0E0EE0FFF1FE859FF4FA1
:10129000A591B491662329F48C91909589238C9320
:1012A00008958C91892B8C930895482F50E0CA01A2
:1012B00082559F4FFC012491CA0186569F4FFC0125
:1012C00094914A575F4FFA0134913323D1F122238D
:1012D00031F1233021F4809180008F7705C02430D4
:1012E00031F4809180008F7D8093800018C0213080
:1012F00019F484B58F7704C0223021F484B58F7D32
:1013000084BD0DC0263021F48091B0008F7705C0D8
:10131000273029F48091B0008F7D8093B000E32FB7
:10132000F0E0EE0FFF1FEE58FF4FA591B49166233A
:1013300029F48C91909589238C9308958C91892B15
:101340008C930895682F70E0CB0182559F4FFC016C
:101350002491CB0186569F4FFC0144916A577F4FE1
:10136000FB019491992319F420E030E038C0222346
:1013700031F1233021F4809180008F7705C0243033
:1013800031F4809180008F7D8093800018C02130DF
:1013900019F484B58F7704C0223021F484B58F7D91
:1013A00084BD0DC0263021F48091B0008F7705C038
:1013B000273029F48091B0008F7D8093B000892F71
:1013C00090E0880F991F84589F4FFC01A591B4911C
:1013D0008C9120E030E0842311F021E030E0C9015D
:1013E00008958093470308958F70909147039295D5
:1013F000990F990F907C982B90937C0080917A00A4
:10140000806480937A0080917A0086FDFCCF2091E1
:10141000780040917900942F80E030E0282B392B20
:10142000C90108951F920F920FB60F9211242F93A6
:101430003F938F939F93AF93BF9380918D0490912F
:101440008E04A0918F04B091900430919104019684
:10145000A11DB11D232F2D5F2D3720F02D57019693
:10146000A11DB11D2093910480938D0490938E044F
:10147000A0938F04B09390048091890490918A0482
:10148000A0918B04B0918C040196A11DB11D809395
:10149000890490938A04A0938B04B0938C04BF9129
:1014A000AF919F918F913F912F910F900FBE0F9011
:1014B0001F901895EF92FF920F931F937B018C0161
:1014C0008FB7F89440918D0450918E0460918F04F1
:1014D000709190048FBF2FB7F89480918D049091F4
:1014E0008E04A0918F04B09190042FBF841B950BA4
:1014F000A60BB70BE816F9060A071B0760F71F9142
:101500000F91FF90EF900895789484B5826084BD28
:1015100084B5816084BD85B5826085BD85B58160F7
:1015200085BDEEE6F0E0808181608083E1E8F0E057
:10153000808182608083808181608083E0E8F0E048
:10154000808181608083E1EBF0E080818460808332
:10155000E0EBF0E0808181608083EAE7F0E0808169
:1015600084608083808182608083808181608083C9
:101570008081806880831092C10008952F923F92ED
:101580004F925F926F927F928F929F92AF92BF9293
:10159000CF92DF92EF92FF920F931F93DF93CF933F
:1015A000CDB7DEB73B014C0119012A016D897E8957
:1015B0008F89988D6A197B098C099D09621A730AB3
:1015C000840A950AA40193010E94D30FE218F3083C
:1015D00004091509A80197010E9427102A0D3B1D37
:1015E0004C1D5D1DB901CA01CF91DF911F910F9173
:1015F000FF90EF90DF90CF90BF90AF909F908F9033
:101600007F906F905F904F903F902F900895EF9252
:10161000FF920F931F937B018C016115710581056A
:10162000910529F420E030E040E050E00BC00E943A
:10163000FE01A80197010E942710AC01CB01DA013D
:101640009C01AD01B901CA011F910F91FF90EF906C
:1016500008951F920F920FB60F9211242F933F936C
:101660004F935F936F937F938F939F93AF93BF93AA
:10167000EF93FF934091C600E0911205F09113059E
:10168000CF01019660E870E00E94F20F9C0180910A
:101690001405909115052817390739F0EE56FB4FC0
:1016A00040833093130520931205FF91EF91BF9172
:1016B000AF919F918F917F916F915F914F913F91EA
:1016C0002F910F900FBE0F901F9018955F926F9201
:1016D0007F928F929F92AF92BF92CF92DF92EF92C2
:1016E000FF920F931F93CF93DF93EC013A014B01CD
:1016F000413482E458078FE0680780E078070CF0F7
:101700007FC060E874E88EE190E0A40193010E943C
:1017100027102150304040405040CA01B90122E01A
:1017200030E040E050E00E94271059016A01A60114
:101730009501209530954095509594E0220F331FE8
:10174000441F551F9A95D1F760E074E284EF90E052
:101750000E942710CA01B9012FEF30E040E050E0AD
:101760000E94D30FA40193010E942710C901815048
:101770009F4F181619061CF4522E5A9403C0552474
:101780005394521A60E079E08DE390E0A401930154
:101790000E9427102150304040405040CA01B901FA
:1017A00022E030E040E050E00E9427102095309584
:1017B0004095509583E0220F331F441F551F8A9593
:1017C000D1F760E074E284EF90E00E942710CA0134
:1017D000B9012FEF30E040E050E00E94D30FA401A8
:1017E00093010E942710C90181509F4F18161906B6
:1017F0001CF4822F815002C081E0821B851500F508
:10180000E885F98581E090E00A8802C0880F991F79
:101810000A94E2F7808360E079E08DE390E0A40130
:1018200093010E9427102150304040405040CA018F
:10183000B90122E030E040E050E00E94271004C0EF
:10184000E885F98510829501EC81FD813083EE8178
:10185000FF812083EA85FB85208141E050E0CA01B9
:101860000E8402C0880F991F0A94E2F7282B208368
:10187000EA85FB852081CA010F8402C0880F991F69
:101880000A94E2F7282B2083EA85FB85808108886B
:1018900002C0440F551F0A94E2F7842B8083DF9126
:1018A000CF911F910F91FF90EF90DF90CF90BF905D
:1018B000AF909F908F907F906F905F900895FC0104
:1018C000A085B18521898C9190E0022E02C095956A
:1018D00087950A94E2F780FFF6CF0484F585E02D22
:1018E000608308958CE493E0909317058093160528
:1018F00082E994E0909319058093180585EC90E0B7
:1019000090931B0580931A0584EC90E090931D053D
:1019100080931C0580EC90E090931F0580931E053A
:1019200081EC90E0909321058093200586EC90E077
:10193000909323058093220584E08093240583E01F
:101940008093250587E08093260585E08093270511
:1019500081E08093280508950F931F93CF93DF9321
:101960008C01EB0109C02196D801ED91FC91019009
:10197000F081E02DC801099568816623A1F7DF9108
:10198000CF911F910F910895EF92FF920F931F93A4
:10199000CF93DF938C017B01EA010CC0D7016D91DD
:1019A0007D01D801ED91FC910190F081E02DC801FD
:1019B00009952197209791F7DF91CF911F910F9172
:1019C000FF90EF900895DC01ED91FC910280F3818E
:1019D000E02D099508950F931F938C01DC01ED9183
:1019E000FC910190F081E02D6DE00995D801ED9119
:1019F000FC910190F081E02DC8016AE009951F91EA
:101A00000F9108950F931F938C010E94E30CC8015E
:101A10000E94EB0C1F910F9108952F923F924F92CD
:101A20005F926F927F928F929F92AF92BF92CF926E
:101A3000DF92EF92FF920F931F93DF93CF93CDB777
:101A4000DEB7A0970FB6F894DEBF0FBECDBF1C0166
:101A50006A017B01411551056105710549F4DC01FD
:101A6000ED91FC910190F081E02D60E3099554C067
:101A7000882499245401422E55246624772401E0B9
:101A800010E00C0F1D1F080D191DC701B601A301A1
:101A900092010E940510F80160830894811C911C3A
:101AA000A11CB11CC701B601A30192010E9405103F
:101AB000C901DA016C017D01C114D104E104F10412
:101AC000F1F681E0E82EF12CEC0EFD1EE80CF91C7D
:101AD0003E010894611C711CD501C4010197A10944
:101AE000B1096C01C818D90814C0F601EE0DFF1D2C
:101AF00060816A3010F4605D01C0695CD101ED91D4
:101B0000FC910190F081E02DC10109950894E10854
:101B1000F1086E147F0449F7A0960FB6F894DEBF63
:101B20000FBECDBFCF91DF911F910F91FF90EF902E
:101B3000DF90CF90BF90AF909F908F907F906F90ED
:101B40005F904F903F902F900895EF92FF920F93E8
:101B50001F93CF93DF93EC017A018B0177FF0FC0C6
:101B6000E881F9810190F081E02D6DE209951095F1
:101B70000095F094E094E11CF11C011D111DCE01B3
:101B8000B801A7012AE00E940D0DDF91CF911F91AE
:101B90000F91FF90EF900895AB01662757FD609578
:101BA000762F0E94A50D08950F931F938C01AB0112
:101BB000662757FD6095762F0E94A50DC8010E94EB
:101BC000EB0C1F910F9108955058BB27AA270ED0F8
:101BD0004DC13ED130F043D120F031F49F3F11F49C
:101BE0001EF433C10EF4E095E7FB29C1E92F4FD174
:101BF00080F3BA17620773078407950718F071F42A
:101C00009EF567C10EF4E0950B2EBA2FA02D0B01A7
:101C1000B90190010C01CA01A0011124FF27591B31
:101C200099F0593F50F4503E68F11A16F040A22F37
:101C3000232F342F4427585FF3CF469537952795A8
:101C4000A795F0405395C9F77EF41F16BA0B620BA7
:101C5000730B840BBAF09150A1F0FF0FBB1F661FEE
:101C6000771F881FC2F70EC0BA0F621F731F841F31
:101C700048F4879577956795B795F7959E3F08F057
:101C8000B3CF9395880F08F09927EE0F9795879516
:101C900008950CD0EBC0E3D040F0DAD030F021F45E
:101CA0005F3F19F0CCC0511115C1CFC0F0D098F3EF
:101CB0009923C9F35523B1F3951B550BBB27AA27CD
:101CC00062177307840738F09F5F5F4F220F331F3F
:101CD000441FAA1FA9F333D00E2E3AF0E0E830D00B
:101CE00091505040E695001CCAF729D0FE2F27D00E
:101CF000660F771F881FBB1F261737074807AB07DC
:101D0000B0E809F0BB0B802DBF01FF2793585F4F50
:101D10002AF09E3F510568F092C0DCC05F3FECF3B3
:101D2000983EDCF3869577956795B795F7959F5F15
:101D3000C9F7880F911D9695879597F90895E1E069
:101D4000660F771F881FBB1F621773078407BA07C8
:101D500020F0621B730B840BBA0BEE1F88F7E09523
:101D6000089504D06894B111B5C0089598D088F052
:101D70009F5790F0B92F9927B751A0F0D1F0660F77
:101D8000771F881F991F1AF0BA95C9F712C0B13092
:101D900081F09FD0B1E008959CC0672F782F8827ED
:101DA000B85F39F0B93FCCF3869577956795B395D1
:101DB000D9F73EF490958095709561957F4F8F4F40
:101DC0009F4F0895E89409C097FB3EF49095809545
:101DD000709561957F4F8F4F9F4F9923A9F0F92FF1
:101DE00096E9BB279395F695879577956795B7956F
:101DF000F111F8CFFAF4BB0F11F460FF1BC06F5F55
:101E00007F4F8F4F9F4F16C0882311F096E911C066
:101E1000772321F09EE8872F762F05C0662371F087
:101E200096E8862F70E060E02AF09A95660F771F9B
:101E3000881FDAF7880F9695879597F9089597F98F
:101E40009F6780E870E060E008959FEF80EC089560
:101E500000240A9416161706180609060895002489
:101E60000A9412161306140605060895092E039403
:101E7000000C11F4882352F0BB0F40F4BF2B11F477
:101E800060FF04C06F5F7F4F8F4F9F4F089557FDD6
:101E90009058440F551F59F05F3F71F04795880FD8
:101EA00097FB991F61F09F3F79F08795089512166F
:101EB00013061406551FF2CF4695F1DF08C016161B
:101EC00017061806991FF1CF8695710561050894CC
:101ED0000895E894BB2766277727CB0197F90895E3
:101EE0000BD0C4CFB5DF28F0BADF18F0952309F086
:101EF000A6CFABCF1124EECFCADFA0F3959FD1F3CD
:101F0000950F50E0551F629FF001729FBB27F00DA7
:101F1000B11D639FAA27F00DB11DAA1F649F6627FC
:101F2000B00DA11D661F829F2227B00DA11D621F4B
:101F3000739FB00DA11D621F839FA00D611D221F05
:101F4000749F3327A00D611D231F849F600D211DE9
:101F5000822F762F6A2F11249F5750408AF0E1F08C
:101F600088234AF0EE0FFF1FBB1F661F771F881FD5
:101F700091505040A9F79E3F510570F060CFAACF15
:101F80005F3FECF3983EDCF3869577956795B795C0
:101F9000F795E7959F5FC1F7FE2B880F911D9695EA
:101FA000879597F90895629FD001739FF001829FF2
:101FB000E00DF11D649FE00DF11D929FF00D839FD8
:101FC000F00D749FF00D659FF00D9927729FB00D75
:101FD000E11DF91F639FB00DE11DF91FBD01CF0188
:101FE0001124089597FB092E07260AD077FD04D007
:101FF00049D006D000201AF4709561957F4F08955E
:10200000F6F7909581959F4F0895A1E21A2EAA1B8D
:10201000BB1BFD010DC0AA1FBB1FEE1FFF1FA21798
:10202000B307E407F50720F0A21BB30BE40BF50B95
:10203000661F771F881F991F1A9469F7609570951E
:10204000809590959B01AC01BD01CF01089597FB50
:10205000092E05260ED057FD04D0D7DF0AD0001C6C
:1020600038F450954095309521953F4F4F4F5F4F35
:102070000895F6F790958095709561957F4F8F4FF5
:102080009F4F0895AA1BBB1B51E107C0AA1FBB1F8E
:10209000A617B70710F0A61BB70B881F991F5A95F4
:1020A000A9F780959095BC01CD010895EE0FFF1F13
:1020B0000590F491E02D09942F923F924F925F92F8
:1020C0006F927F928F929F92AF92BF92CF92DF9248
:1020D000EF92FF920F931F93CF93DF93CDB7DEB7AD
:1020E000CA1BDB0B0FB6F894DEBF0FBECDBF099441
:1020F0002A88398848885F846E847D848C849B8498
:10210000AA84B984C884DF80EE80FD800C811B81A5
:10211000AA81B981CE0FD11D0FB6F894DEBF0FBED4
:0A212000CDBFED010895F894FFCF44
:10212A006469006E672000200072696E67696E67D5
:10213A002E2E2E2000616374697665200069646C16
:10214A0065200020002D050000010000000100BCF0
:10215A000202001400FF00FF00FF00FF00FF00FF63
:10216A0000320032000400FFFFFAFFF5FFEFFFE93B
:10217A00FFE3FFDCFFD6FFCFFFC9FFC2FFBBFFB4FF
:10218A00FFACFFA5FF9DFF95FF8DFF85FF7DFF74C7
:10219A00FF6CFF63FF5AFF50FF47FF3DFF33FF29E4
:1021AA00FF1FFF14FF09FFFEFEF3FEE8FEDCFED070
:1021BA00FEC3FEB7FEAAFE9DFE8FFE81FE73FE657C
:1021CA00FE56FE47FE38FE28FE18FE08FEF7FDE61C
:1021DA00FDD5FDC3FDB1FD9EFD8BFD78FD64FD4F70
:1021EA00FD3BFD25FD10FDF9FCE3FCCCFCB4FC9C99
:1021FA00FC83FC6AFC50FC35FC1AFCFFFBE3FBC6C3
:10220A00FBA8FB8AFB6CFB4CFB2CFB0BFBEAFAC71B
:10221A00FAA4FA81FA5CFA37FA10FAE9F9C1F999DB
:10222A00F96FF944F919F9ECF8BFF890F861F83048
:10223A00F8FFF7CCF798F763F72DF7F6F6BDF683B4
:10224A00F648F60CF6CEF58FF54FF50DF5C9F4857F
:10225A00F43EF4F6F3ADF362F315F3C7F277F22521
:10226A00F2D1F17CF124F1CBF070F013F0B3EF521C
:10227A00EFEEEE88EE20EEB6ED4AEDDBEC69ECF51A
:10228A00EB7FEB05EB8AEA0BEA8AE906E97FE8F5D8
:10229A00E768E7D8E644E6AEE514E576E4D6E33245
:1022AA00E38AE2DEE12FE17CE0C4DF09DF4ADE8671
:1022BA00DDBFDCF3DB22DB4DDA73D994D8B0D7C8A3
:1022CA00D6DAD5E7D4EED3F1D2EDD1E4D0D5CFC06A
:1022DA00CEA5CD84CC5CCB2ECAFAC8BEC77CC6328A
:1022EA00C5E1C389C229C1C2BF52BEDBBC5BBBD335
:1022FA00B942B8A8B605B55AB3A4B1E5AF1CAE4AFF
:10230A00AC6DAA85A893A695A48DA279A0599E2EF4
:10231A009CF699B2976195029397901E8E978B02BD
:10232A00895E86AB83E980187E377B4578437530B2
:10233A00720C6FD66B8E683365C661455EB15A08FA
:10234A00574B53784F914B93477E43533F103BB6BD
:10235A00364232B62D10295024751F7F1A6D153E4C
:10236A0010F20A8805000001000000005F0CAC0CA6
:02237A00C40C91
:00000001FF
