:100000000C9463000C948B000C948B000C948B006C
:100010000C948B000C948B000C948B000C948B0034
:100020000C948B000C948B000C948B000C948B0024
:100030000C948B000C948B000C948B000C948B0014
:100040000C94090B0C948B000C94200C0C948B00DA
:100050000C948B000C948B000C948B000C948B00F4
:100060000C94DC020C948B0000000000240027009C
:100070002A0000000000250028002B0000000000DE
:1000800023002600290004040404040404040202DA
:100090000202020203030303030301020408102007
:1000A0004080010204081020010204081020000012
:1000B0000007000201000003040600000000000029
:1000C00000001D02690D11241FBECFEFD8E0DEBF76
:1000D000CDBF13E0A0E0B1E0E8E6F3E202C0059096
:1000E0000D92AA35B107D9F714E0AAE5B3E001C033
:1000F0001D92A738B107E1F710E0C6ECD0E004C0CC
:100100002297FE010E947711C23CD107C9F70E94D5
:10011000250A0C94B2110C9400000F931F93CF93F7
:10012000DF93689F8001699F100D789F100D112447
:10013000C8010E94A900EC01009729F060E070E07E
:10014000A8010E940C02CE01DF91CF911F910F9167
:100150000895CF93DF93BC018230910510F462E0E3
:1001600070E0A0918504B0918604ED01E0E0F0E03C
:1001700040E050E021C0888199818617970769F493
:100180008A819B81309719F09383828304C0909376
:10019000860480938504FE0134C06817790738F41B
:1001A0004115510519F08417950708F4AC01FE01BB
:1001B0008A819B819C01E9012097E9F6411551054F
:1001C000A9F1CA01861B970B049708F4BA01E0E075
:1001D000F0E02AC08D919C91119784179507F9F44E
:1001E0006417750781F412968D919C91139730973F
:1001F00019F09383828304C09093860480938504CE
:10020000FD0132964CC0CA01861B970BFD01E80F19
:10021000F91F6193719302978D939C9340C0FD01E8
:10022000828193819C01D9011097A1F6809183046A
:1002300090918404892B41F48091250190912601AD
:100240009093840480938304409127015091280166
:100250004115510541F44DB75EB78091230190914E
:100260002401481B590B2091830430918404CA0156
:10027000821B930B8617970780F0AB014E5F5F4F91
:100280008417950750F0420F531F509384044093F6
:100290008304F9016193719302C0E0E0F0E0CF01C3
:1002A000DF91CF910895CF93DF93009709F450C069
:1002B000EC0122971B821A82A0918504B0918604DA
:1002C000109709F140E050E0AC17BD0708F1BB837F
:1002D000AA83FE0121913191E20FF31FAE17BF07F0
:1002E00079F48D919C911197280F391F2E5F3F4F04
:1002F0003983288312968D919C9113979B838A83CF
:100300004115510571F4D0938604C093850420C033
:1003100012968D919C911397AD01009711F0DC011D
:10032000D3CFFA01D383C28321913191E20FF31F1E
:10033000CE17DF0769F488819981280F391F2E5F56
:100340003F4FFA01318320838A819B81938382838B
:10035000DF91CF910895A0E0B0E0E1EBF1E00C94E3
:100360008311EC01A880B980CA80DB80A114B1049C
:10037000C104D10441F484E2A82E89EDB82E8BE5A6
:10038000C82E87E0D82EC601B5012DE133EF41E03C
:1003900050E00E94461127EA31E440E050E00E941C
:1003A000F2107B018C01C601B5012DE133EF41E074
:1003B00050E00E944611CA01B9012CEE34EF4FEF14
:1003C0005FEF0E94F2106E0D7F1D801F911F97FF3F
:1003D00004C06150704080409048688379838A836C
:1003E0009B839B01AC015F77B901CA01CDB7DEB732
:1003F000EAE00C949F110E94AB01089589E291E01C
:100400000E94AB0108956093290170932A018093A3
:100410002B0190932C010895DC0101C06D93415094
:100420005040E0F7089581E08093630360935E039A
:10043000109261031092620308950895DF93CF93A1
:100440000F92CDB7DEB76983809163038823A9F04B
:10045000809162038032B0F480916103E0915F0388
:10046000F0916003E80FF11D6083809161038F5F5D
:10047000809361038093620305C0CE01019661E021
:100480000E94BF020F90CF91DF9108950E941E023B
:10049000089560915F037091600380915E034091C5
:1004A000620321E00E947A021092610310926203BB
:1004B00010926303089580E290E061E070E00E9492
:1004C0008D0080935A0390935B0310925C0310920B
:1004D0005D0380E290E061E070E00E948D00809317
:1004E0005F039093600310926103109262030E9475
:1004F0005E0408951F93582F122F413210F081E0AF
:100500003CC0809165038823E1F782E08093650316
:100510008FEF8093760310926D0340936E03A0914A
:100520006B03B0916C03FB0102C081918D938E2F00
:10053000861B8417D0F3852F90E0880F991F809336
:10054000660385EE8093BC00112321F08091650342
:100550008230E1F3809176038F3F11F480E00DC08B
:1005600080917603803211F482E007C08091760397
:10057000803311F084E001C083E01F910895482F7B
:10058000613210F081E0089580916503843011F0AC
:1005900082E0089560937203A0916F03B09170039D
:1005A000842F9C01F90102C081918D938E2F841BB1
:1005B0008617D0F380E008951F920F920FB60F9226
:1005C00011242F933F934F935F936F937F938F9358
:1005D0009F93AF93BF93EF93FF938091B90090E007
:1005E000887F90708036910509F4E2C081369105CC
:1005F000CCF58832910509F47BC089329105B4F4B9
:100600008031910509F46FC0813191053CF4009768
:1006100009F438C1089709F040C165C088319105D7
:1006200009F466C0809709F038C17FC08034910515
:1006300009F4A3C08134910544F48033910509F491
:100640007FC0C89709F029C186C08035910509F49B
:1006500086C08835910509F495C08834910509F064
:100660001CC19EC08839910509F404C189399105DE
:10067000ECF48837910509F49BC0893791054CF457
:100680008836910509F494C08037910509F005C1B9
:100690008FC08838910509F4EDC08039910509F4BF
:1006A0008DC08038910509F0F8C088C0803B910565
:1006B00009F4B2C0813B91054CF4803A910509F4EC
:1006C00091C0883A910509F0E8C0A6C0803C910528
:1006D00009F4D4C0883C910509F4D0C0883B910549
:1006E00009F0DBC0B1C0809166038093BB00C0C03D
:1006F00090916D0380916E03981778F490916D033B
:10070000E0916B03F0916C03E90FF11D8081809300
:10071000BB009F5F90936D03ABC085ED8093BC00E1
:100720008091BC0084FDFCCFB6C080E2809376034C
:1007300085ED8093BC008091BC0084FDFCCFABC0F4
:1007400080E38093760385ED8093BC008091BC00AC
:1007500084FDFCCFA0C088E3809376038FC0809196
:100760006D039091BB00E0916B03F0916C03E80F77
:10077000F11D90838F5F80936D0390916D03809145
:100780006E0374C080916D039091BB00E0916B0388
:10079000F0916C03E80FF11D90838F5F80936D03E0
:1007A00085ED8093BC008091BC0084FDFCCF73C0BC
:1007B00083E080936503109275035AC0809175039E
:1007C000803208F057C0809175039091BB00E09192
:1007D0007303F0917403E80FF11D90838F5F809392
:1007E000750346C080917503803248F4809175038B
:1007F000E0917303F0917403E80FF11D1082609192
:100800007503E0916903F0916A03809173039091FD
:10081000740370E0099532C084E080936503109200
:10082000710310927203E0916703F09168030995D8
:1008300080917203882341F481E080937203E091F8
:100840006F03F0917003108290917103E0916F0338
:10085000F0917003E90FF11D80818093BB009F5FD1
:10086000909371039091710380917203981710F423
:1008700085EC01C085E88093BC000FC085EC8093B7
:10088000BC0009C01092760385ED8093BC00809176
:10089000BC0084FDFCCF10926503FF91EF91BF91E6
:1008A000AF919F918F917F916F915F914F913F9108
:1008B0002F910F900FBE0F901F9018951092650307
:1008C000449A459AE9EBF0E080818E7F80838081B5
:1008D0008D7F808388E48093B80085E48093BC009A
:1008E00080E290E061E070E00E948D0080936B03F5
:1008F00090936C0380E290E061E070E00E948D00D4
:1009000080936F039093700380E290E061E070E069
:100910000E948D0080937303909374030895AF92A7
:10092000BF92CF92DF92EF92FF920F931F9382E0DC
:100930000E94EB0A895F914097FF03C090958195D3
:100940009F4F90937803809377032091E103309138
:10095000E203821793072CF43093780320937703F4
:1009600004C09093E2038093E1038091E1039091AE
:10097000E20320914B0130914C01821B930B909329
:10098000E2038093E10300D000D06091770370917F
:100990007803882777FD8095982F20914D0130911D
:1009A0004E01442737FD4095542FFFEFEF2EF12CD9
:1009B000012D112DEDB7FEB7E182F282038314837E
:1009C000ECE2EE2EE1E0FE2E012D112DAA24BB2437
:1009D00065010E94B50B0F900F900F900F906F3F25
:1009E000710519F014F06FEF70E077FF02C060E05E
:1009F00070E0EFEFF0E0E61BF70BEE0FFF1FE15B9F
:100A0000FE4F818180937703109278031F910F919D
:100A1000FF90EF90DF90CF90BF90AF900895AF928E
:100A2000BF92CF92DF92EF92FF920F931F9300D06D
:100A300000D06091770370917803882777FD8095C7
:100A4000982FEDB7FEB7118212821382148220E034
:100A500030E040E050E0F8E7EF2EF12C012D112DB1
:100A6000E2E0AE2EB12CC12CD12C0E94B50B6F5FF1
:100A70007F4F8F4F9F4F0E94DB0F6093CB0370938C
:100A8000CC038093CD039093CE03E090C703F09006
:100A9000C8030091C9031091CA03A80197010E94DD
:100AA000DB0E23E333E343E35FE30E948F109B01FC
:100AB000AC01C801B7010E94DC0E7B018C010F90D4
:100AC0000F900F900F9020E030E040E050E00E9447
:100AD0008B1088234CF0C801B70120E030E040E0E3
:100AE0005FE30E94DC0E08C0C801B70120E030E0DF
:100AF00040E05FE30E94DB0E0E94A80F0E94DB0F24
:100B00006093C7037093C8038093C9039093CA038B
:100B100000D000D06091770370917803882777FD2B
:100B20008095982FA0903101B0903201CC24B7FC71
:100B3000C094DC2C2091350130913601442737FDDB
:100B40004095542FEDB7FEB72183328343835483FE
:100B500020E030E040E050E0BFEFEB2EF12C012D23
:100B6000112D0E94B50B7093D0036093CF03609159
:100B7000770370917803882777FD8095982FA09050
:100B8000D503B090D603CC24B7FCC094DC2C2091C4
:100B9000D7033091D803442737FD4095542FEDB744
:100BA000FEB7218332834383548320E030E040E06A
:100BB00050E00E94B50B7093D2036093D103609113
:100BC000770370917803882777FD8095982FA09000
:100BD0003301B0903401CC24B7FCC094DC2C2091BC
:100BE000370130913801442737FD4095542FEDB738
:100BF000FEB7218332834383548320E030E040E01A
:100C000050E00E94B50B162F6093D3037093D4036A
:100C10006091C7037091C8038091C9039091CA0382
:100C20000E94A80F9091CF038091D10341EC53E033
:100C300020E030E00F900F900F900F9016C0261715
:100C4000370724F090838183128303C010821182BE
:100C500012823996E417F50791F72F5F3F4FAF01E6
:100C60004D5F5F4F2330310541F0F901EE0FFF1F5B
:100C7000E20FF31FE557FC4FE2CF1F910F91FF905A
:100C8000EF90DF90CF90BF90AF900895AF92BF925A
:100C9000CF92DF92EF92FF920F931F9300D000D07C
:100CA0006091770370917803882777FD8095982F5E
:100CB000A0903B01B0903C01CC24B7FCC094DC2C4C
:100CC0002091390130913A01442737FD4095542F46
:100CD000EDB7FEB7218332834383548320E030E0B5
:100CE00040E050E0BFEFEB2EF12C012D112D0E94C2
:100CF000B50B7093DC036093DB038091DD0390916F
:100D0000DE030F900F900F900F9086179707B4F0A7
:100D10008091D9039091DA03833091052CF01092E1
:100D2000DA031092D90305C001969093DA038093F9
:100D3000D9031092DE031092DD0305C00196909353
:100D4000DE038093DD032091DF033091E003809187
:100D5000490190914A01281739073CF42F5F3F4F12
:100D60003093E0032093DF032AC06FEF70E080E050
:100D700090E00E94FE0B70934401609343016FEF7B
:100D800070E080E090E00E94FE0B7093460160935B
:100D900045016FEF70E080E090E00E94FE0B7093E1
:100DA00048016093470160913D0170913E0180E7E9
:100DB00094E00E94CB0E1092E0031092DF0360914A
:100DC0003D0170913E01882777FD8095982F0E9404
:100DD000DB0F7B018C0160914301709144018827F6
:100DE00077FD8095982F0E94DB0FA80197010E9444
:100DF000DB0E2DEC3CEC4CE45EE30E948F109B017B
:100E0000AC01C801B7010E94DC0E0E94A80FC62EDB
:100E100060933D0170933E0160913F0170914001EC
:100E2000882777FD8095982F0E94DB0F7B018C012E
:100E30006091450170914601882777FD8095982F34
:100E40000E94DB0FA80197010E94DB0E2DEC3CEC09
:100E50004CE45EE30E948F109B01AC01C801B70116
:100E60000E94DC0E0E94A80FD62E60933F01709363
:100E700040016091410170914201882777FD809582
:100E8000982F0E94DB0F7B018C01609147017091CC
:100E90004801882777FD8095982F0E94DB0FA801D5
:100EA00097010E94DB0E2DEC3CEC4CE45EE30E94CB
:100EB0008F109B01AC01C801B7010E94DC0E0E949B
:100EC000A80F862F60934101709342016091D9036E
:100ED0007091DA0341EC53E020E030E016C02617B1
:100EE000370721F4C082D182828303C0108211822D
:100EF00012823996E417F50791F72F5F3F4FAF0144
:100F00004D5F5F4F2330310541F0F901EE0FFF1FB8
:100F1000E20FF31FE557FC4FE2CF1F910F91FF90B7
:100F2000EF90DF90CF90BF90AF9008952F923F92B7
:100F30004F925F926F927F928F929F92AF92BF92E9
:100F4000CF92DF92EF92FF920F931F93DF93CF9395
:100F5000CDB7DEB72A970FB6F894DEBF0FBECDBF70
:100F60006091770370917803882777FD8095982F9B
:100F70000E94DB0F20E030E04FE753E40E94400F77
:100F80006D837E838F8398871C821B826BC068EE83
:100F900073E080E090E00E94FE0B0E94DB0F9B015B
:100FA000AC016D817E818F8198850E948F1020E039
:100FB00030E04AE754E40E94400F5B016C016FEFA0
:100FC00070E080E090E00E94FE0B7B018C016FEFEF
:100FD00070E080E090E00E94FE0B3B014C016FEF5F
:100FE00070E080E090E00E94FE0B1B012C01C80124
:100FF000B7010E94DB0FA60195010E948F100E948D
:10100000A80FE985FA856083C401B3010E94DB0F54
:10101000A60195010E948F100E94A80FE985FA850C
:101020006183C201B1010E94DB0FA60195010E94FC
:101030008F100E94A80FE985FA85628329813A8181
:101040002F5F3F4F3A8329833996FA87E987263005
:10105000310509F09CCF8B819C8101969C838B8309
:10106000039779F0EB81FC81EE0FFF1F2B813C8110
:10107000E20FF31FE557FC4FFA87E9871A821982BE
:1010800086CF62E370E080E090E00E94510B2A96E8
:101090000FB6F894DEBF0FBECDBFCF91DF911F9189
:1010A0000F91FF90EF90DF90CF90BF90AF909F9007
:1010B0008F907F906F905F904F903F902F9008950A
:1010C00082E061E00E942C0A83E061E00E942C0A29
:1010D00084E060E00E942C0A85E060E00E942C0A17
:1010E0008CE061E00E942C0A82E061E00E944C0AE0
:1010F00083E060E00E944C0A8CE061E00E944C0AB0
:1011000081E00E94E80A0895DF92EF92FF920F9328
:101110001F93382FF62EE42ED22E04E613E0C801DA
:10112000632F0E941302C8016EE670E00E9446021F
:10113000C8016F2D0E941E02C8016E2D0E941E0262
:10114000C8016D2D0E941E02C8010E9449021F9114
:101150000F91FF90EF90DF900895CF92DF92EF9282
:10116000FF920F931F93CF93DF9300E010E015C021
:10117000F70181917F01688149812A810E94840859
:101180000894C11CD11C2396F3E0CF16D10481F73B
:101190000F5F1F4F06301105B1F07801EE0CFF1CF8
:1011A000E00EF11E89E793E0E80EF91EE80183E006
:1011B000CC0FDD1F8A95E1F7C00FD11FC557DC4F5B
:1011C000CC24DD24D5CFDF91CF911F910F91FF90DB
:1011D000EF90DF90CF9008950F931F9304E613E0F4
:1011E000C8010E945B02C80160E00E941302C801AE
:1011F0006FE670E00E944602C8010E94490280E04A
:1012000060E040E020E00E9484081F910F91089563
:10121000CF93DF93C0E0D0E082E060E00E944C0A10
:1012200080E794E060E071E00E94DA0D68E270E02F
:1012300080E090E00E94510B82E061E00E944C0A45
:1012400080E794E063E071E00E94DA0D68E270E00C
:1012500080E090E00E94510B80E794E068E270E04B
:101260000E94C30E80E794E067E071E00E94DA0D0F
:101270002196C530D10581F6DF91CF910895CF93A6
:10128000DF931AC084E00E94990A81309105A1F48D
:101290009093C2038093C10383E061E00E944C0AF3
:1012A00080E794E069E071E00E94F90D6AE070E087
:1012B00080E090E00E94510B8091C1039091C203A5
:1012C000892B01F322C00E9408096CED70E080E0D8
:1012D00090E00E94510B80E00E94990A892B71F0E6
:1012E000D093C203C093C10383E060E00E944C0A24
:1012F00080E794E065E171E00E94F90D6CED70E02B
:1013000080E090E00E94510B02C0C2E0D0E08091EA
:10131000C1039091C2030197B1F25FC00E948F0494
:101320008091C3039091C4038130910541F08230D4
:10133000910541F0892B41F40E940F0505C00E94E0
:10134000960702C00E9446060E94AD0865E070E064
:1013500080E090E00E94510B85E00E94990A892B61
:10136000A1F4109278031092770380E060E040E0EF
:1013700020E00E9484081092C2031092C10380E70B
:1013800094E06DE171E00E94F90D8091C5039091A8
:10139000C60301969093C6038093C50320912F0145
:1013A0003091300182179307C4F01092C603109257
:1013B000C5038091C3039091C40301969093C40325
:1013C0008093C30320912D0130912E018217930742
:1013D00024F01092C4031092C3038091C103909132
:1013E000C203029709F49ACFDF91CF91089580E765
:1013F00094E040E05BE460E070E00E945D0C0E94DD
:1014000060080E94EC08E9E7F3E085E005C0EBE83E
:10141000F3E091E082E00AC082838F5F81838F5F77
:1014200080838F5F33968731B9F7F1CF1082918334
:10143000828313829483858316829783808739966B
:1014400023E0E13CF20791F708950E947B0B0E9494
:10145000F7090E943F09FDCF282F30E0C9018656C9
:101460009F4FFC0194912A573F4FF90184918823A3
:1014700091F0E82FF0E0EE0FFF1FE859FF4FA59124
:10148000B491662329F48C91909589238C930895C7
:101490008C91892B8C930895482F50E0CA01825576
:1014A0009F4FFC012491CA0186569F4FFC019491E5
:1014B0004A575F4FFA0134913323D1F1222331F19E
:1014C000233021F4809180008F7705C0243031F4DF
:1014D000809180008F7D8093800018C0213019F4A6
:1014E00084B58F7704C0223021F484B58F7D84BD0C
:1014F0000DC0263021F48091B0008F7705C02730D1
:1015000029F48091B0008F7D8093B000E32FF0E04C
:10151000EE0FFF1FEE58FF4FA591B491662329F4FB
:101520008C91909589238C9308958C91892B8C9321
:101530000895682F70E0CB0182559F4FFC012491E4
:10154000CB0186569F4FFC0144916A577F4FFB01A8
:101550009491992319F420E030E038C0222331F12E
:10156000233021F4809180008F7705C0243031F43E
:10157000809180008F7D8093800018C0213019F405
:1015800084B58F7704C0223021F484B58F7D84BD6B
:101590000DC0263021F48091B0008F7705C0273030
:1015A00029F48091B0008F7D8093B000892F90E066
:1015B000880F991F84589F4FFC01A591B4918C917D
:1015C00020E030E0842311F021E030E0C9010895EB
:1015D00080934F0308958F7090914F039295990FC8
:1015E000990F907C982B90937C0080917A00806476
:1015F00080937A0080917A0086FDFCCF209178005C
:1016000040917900942F80E030E0282B392BC901DC
:1016100008951F920F920FB60F9211242F933F93AC
:101620008F939F93AF93BF938091E7039091E803CB
:10163000A091E903B091EA033091EB030196A11D5B
:10164000B11D232F2D5F2D3720F02D570196A11DA1
:10165000B11D2093EB038093E7039093E803A093DD
:10166000E903B093EA038091E3039091E403A0912E
:10167000E503B091E6030196A11DB11D8093E3033C
:101680009093E403A093E503B093E603BF91AF9179
:101690009F918F913F912F910F900FBE0F901F90B0
:1016A0001895EF92FF920F931F937B018C018FB7D8
:1016B000F8944091E7035091E8036091E903709139
:1016C000EA038FBF2FB7F8948091E7039091E80366
:1016D000A091E903B091EA032FBF841B950BA60BE1
:1016E000B70BE816F9060A071B0760F71F910F9161
:1016F000FF90EF900895789484B5826084BD84B59E
:10170000816084BD85B5826085BD85B5816085BDFC
:10171000EEE6F0E0808181608083E1E8F0E08081A6
:1017200082608083808181608083E0E8F0E0808156
:1017300081608083E1EBF0E0808184608083E0EB76
:10174000F0E0808181608083EAE7F0E0808184605E
:1017500080838081826080838081816080838081BA
:10176000806880831092C10008952F923F924F921B
:101770005F926F927F928F929F92AF92BF92CF9221
:10178000DF92EF92FF920F931F93DF93CF93CDB72A
:10179000DEB73B014C0119012A016D897E898F89D1
:1017A000988D6A197B098C099D09621A730A840A4B
:1017B000950AA40193010E94F210E218F3080409AB
:1017C0001509A80197010E9446112A0D3B1D4C1DC9
:1017D0005D1DB901CA01CF91DF911F910F91FF905B
:1017E000EF90DF90CF90BF90AF909F908F907F90C1
:1017F0006F905F904F903F902F900895EF92FF92DF
:101800000F931F937B018C01611571058105910573
:1018100029F420E030E040E050E00BC00E94FE01DF
:10182000A80197010E944611AC01CB01DA019C018D
:10183000AD01B901CA011F910F91FF90EF9008957A
:101840001F920F920FB60F9211242F933F934F9335
:101850005F936F937F938F939F93AF93BF93EF9318
:10186000FF934091C600E0916C04F0916D04CF01AC
:10187000019660E870E00E9411119C0180916E0455
:1018800090916F042817390739F0E451FC4F4083D9
:1018900030936D0420936C04FF91EF91BF91AF9151
:1018A0009F918F917F916F915F914F913F912F9178
:1018B0000F900FBE0F901F9018955F926F927F92BE
:1018C0008F929F92AF92BF92CF92DF92EF92FF9250
:1018D0000F931F93CF93DF93EC013A014B014134F7
:1018E00082E458078FE0680780E078070CF07FC03B
:1018F00060E874E88EE190E0A40193010E94461133
:101900002150304040405040CA01B90122E030E04F
:1019100040E050E00E94461159016A01A60195017C
:10192000209530954095509594E0220F331F441F29
:10193000551F9A95D1F760E074E284EF90E00E9421
:101940004611CA01B9012FEF30E040E050E00E949B
:10195000F210A40193010E944611C90181509F4FCA
:10196000181619061CF4522E5A9403C05524539489
:10197000521A60E079E08DE390E0A40193010E94A7
:1019800046112150304040405040CA01B90122E088
:1019900030E040E050E00E9446112095309540959F
:1019A000509583E0220F331F441F551F8A95D1F7AE
:1019B00060E074E284EF90E00E944611CA01B90130
:1019C0002FEF30E040E050E00E94F210A4019301BC
:1019D0000E944611C90181509F4F181619061CF428
:1019E000822F815002C081E0821B851500F5E885B9
:1019F000F98581E090E00A8802C0880F991F0A9457
:101A0000E2F7808360E079E08DE390E0A401930148
:101A10000E9446112150304040405040CA01B90157
:101A200022E030E040E050E00E94461104C0E8852A
:101A3000F98510829501EC81FD813083EE81FF8173
:101A40002083EA85FB85208141E050E0CA010E84B5
:101A500002C0880F991F0A94E2F7282B2083EA8599
:101A6000FB852081CA010F8402C0880F991F0A9448
:101A7000E2F7282B2083EA85FB858081088802C055
:101A8000440F551F0A94E2F7842B8083DF91CF9196
:101A90001F910F91FF90EF90DF90CF90BF90AF908C
:101AA0009F908F907F906F905F900895FC01A0852C
:101AB000B18521898C9190E0022E02C09595879581
:101AC0000A94E2F780FFF6CF0484F585E02D608369
:101AD000089584E593E090937104809370048CEEF4
:101AE00093E0909373048093720485EC90E090935C
:101AF00075048093740484EC90E090937704809351
:101B0000760480EC90E0909379048093780481ECE3
:101B100090E090937B0480937A0486EC90E090931D
:101B20007D0480937C0484E080937E0483E0809332
:101B30007F0487E08093800485E08093810481E0C6
:101B40008093820408950F931F93CF93DF938C01AA
:101B5000EB0109C02196D801ED91FC910190F08133
:101B6000E02DC801099568816623A1F7DF91CF9127
:101B70001F910F910895EF92FF920F931F93CF93B0
:101B8000DF938C017B01EA010CC0D7016D917D01CF
:101B9000D801ED91FC910190F081E02DC8010995EB
:101BA0002197209791F7DF91CF911F910F91FF908F
:101BB000EF900895DC01ED91FC910280F381E02D1E
:101BC000099508950F931F938C01DC01ED91FC9111
:101BD0000190F081E02D6DE00995D801ED91FC9127
:101BE0000190F081E02DC8016AE009951F910F91E5
:101BF00008950F931F938C010E94DA0DC8010E9473
:101C0000E20D1F910F9108952F923F924F925F9294
:101C10006F927F928F929F92AF92BF92CF92DF92FC
:101C2000EF92FF920F931F93DF93CF93CDB7DEB761
:101C3000A0970FB6F894DEBF0FBECDBF1C016A019E
:101C40007B01411551056105710549F4DC01ED91F8
:101C5000FC910190F081E02D60E3099554C0882447
:101C600099245401422E55246624772401E010E083
:101C70000C0F1D1F080D191DC701B601A30192010C
:101C80000E942411F80160830894811C911CA11CFE
:101C9000B11CC701B601A30192010E942411C90120
:101CA000DA016C017D01C114D104E104F104F1F603
:101CB00081E0E82EF12CEC0EFD1EE80CF91C3E0133
:101CC0000894611C711CD501C4010197A109B109D7
:101CD0006C01C818D90814C0F601EE0DFF1D608113
:101CE0006A3010F4605D01C0695CD101ED91FC9136
:101CF0000190F081E02DC10109950894E108F108F7
:101D00006E147F0449F7A0960FB6F894DEBF0FBE9D
:101D1000CDBFCF91DF911F910F91FF90EF90DF909A
:101D2000CF90BF90AF909F908F907F906F905F907B
:101D30004F903F902F900895EF92FF920F931F9333
:101D4000CF93DF93EC017A018B0177FF0FC0E8811D
:101D5000F9810190F081E02D6DE2099510950095D3
:101D6000F094E094E11CF11C011D111DCE01B8019D
:101D7000A7012AE00E94040EDF91CF911F910F91DD
:101D8000FF90EF900895AB01662757FD6095762F81
:101D90000E949C0E08950F931F938C01AB01662740
:101DA00057FD6095762F0E949C0EC8010E94E20D9F
:101DB0001F910F9108955058BB27AA270ED071C1CB
:101DC00062D130F067D120F031F49F3F11F41EF45E
:101DD00057C10EF4E095E7FB4DC1E92F73D180F3B5
:101DE000BA17620773078407950718F071F49EF518
:101DF0008BC10EF4E0950B2EBA2FA02D0B01B9016B
:101E000090010C01CA01A0011124FF27591B99F070
:101E1000593F50F4503E68F11A16F040A22F232F7C
:101E2000342F4427585FF3CF469537952795A795CC
:101E3000F0405395C9F77EF41F16BA0B620B730B73
:101E4000840BBAF09150A1F0FF0FBB1F661F771FE4
:101E5000881FC2F70EC0BA0F621F731F841F48F499
:101E6000879577956795B795F7959E3F08F0B3CF1F
:101E70009395880F08F09927EE0F97958795089509
:101E80000CD00FC107D140F0FED030F021F45F3FFD
:101E900019F0F0C0511139C1F3C014D198F399234E
:101EA000C9F35523B1F3951B550BBB27AA2762171E
:101EB0007307840738F09F5F5F4F220F331F441F63
:101EC000AA1FA9F333D00E2E3AF0E0E830D091509B
:101ED0005040E695001CCAF729D0FE2F27D0660F88
:101EE000771F881FBB1F261737074807AB07B0E8C7
:101EF00009F0BB0B802DBF01FF2793585F4F2AF0DD
:101F00009E3F510568F0B6C000C15F3FECF3983EBC
:101F1000DCF3869577956795B795F7959F5FC9F739
:101F2000880F911D9695879597F90895E1E0660FC2
:101F3000771F881FBB1F621773078407BA0720F03B
:101F4000621B730B840BBA0BEE1F88F7E0950895A4
:101F500004D06894B111D9C00895BCD088F09F57BF
:101F600090F0B92F9927B751A0F0D1F0660F771FE5
:101F7000881F991F1AF0BA95C9F712C0B13081F0C5
:101F8000C3D0B1E00895C0C0672F782F8827B85F0D
:101F900039F0B93FCCF3869577956795B395D9F726
:101FA0003EF490958095709561957F4F8F4F9F4F30
:101FB0000895E89409C097FB3EF49095809570953C
:101FC00061957F4F8F4F9F4F9923A9F0F92F96E985
:101FD000BB279395F695879577956795B795F111FA
:101FE000F8CFFAF4BB0F11F460FF1BC06F5F7F4F97
:101FF0008F4F9F4F16C0882311F096E911C07723A9
:1020000021F09EE8872F762F05C0662371F096E8B1
:10201000862F70E060E02AF09A95660F771F881F80
:10202000DAF7880F9695879597F90895990F000824
:10203000550FAA0BE0E8FEEF16161706E807F9079A
:10204000C0F012161306E407F50798F0621B730B35
:10205000840B950B39F40A2661F0232B242B252BB6
:1020600021F408950A2609F4A140A6958FEF811D59
:10207000811D089597F99F6780E870E060E00895FA
:102080009FEF80EC089500240A9416161706180690
:102090000906089500240A9412161306140605066C
:1020A0000895092E0394000C11F4882352F0BB0FFD
:1020B00040F4BF2B11F460FF04C06F5F7F4F8F4F60
:1020C0009F4F089557FD9058440F551F59F05F3F9B
:1020D00071F04795880F97FB991F61F09F3F79F04A
:1020E00087950895121613061406551FF2CF4695CC
:1020F000F1DF08C0161617061806991FF1CF86954E
:102100007105610508940895E894BB276627772731
:10211000CB0197F908958ADF08F48FEF08950BD06B
:10212000C0CFB1DF28F0B6DF18F0952309F0A2CFB9
:10213000A7CF1124EACFC6DFA0F3959FD1F3950F67
:1021400050E0551F629FF001729FBB27F00DB11D3B
:10215000639FAA27F00DB11DAA1F649F6627B00DCB
:10216000A11D661F829F2227B00DA11D621F739FB4
:10217000B00DA11D621F839FA00D611D221F749FC2
:102180003327A00D611D231F849F600D211D822F09
:10219000762F6A2F11249F5750408AF0E1F0882350
:1021A0004AF0EE0FFF1FBB1F661F771F881F91505D
:1021B0005040A9F79E3F510570F05CCFA6CF5F3F1E
:1021C000ECF3983EDCF3869577956795B795F79590
:1021D000E7959F5FC1F7FE2B880F911D9695879518
:1021E00097F90895629FD001739FF001829FE00DDF
:1021F000F11D649FE00DF11D929FF00D839FF00D86
:10220000749FF00D659FF00D9927729FB00DE11D31
:10221000F91F639FB00DE11DF91FBD01CF0111240E
:10222000089597FB092E07260AD077FD04D049D0E0
:1022300006D000201AF4709561957F4F0895F6F747
:10224000909581959F4F0895A1E21A2EAA1BBB1B62
:10225000FD010DC0AA1FBB1FEE1FFF1FA217B30772
:10226000E407F50720F0A21BB30BE40BF50B661F88
:10227000771F881F991F1A9469F76095709580954C
:1022800090959B01AC01BD01CF01089597FB092EEC
:1022900005260ED057FD04D0D7DF0AD0001C38F435
:1022A00050954095309521953F4F4F4F5F4F089582
:1022B000F6F790958095709561957F4F8F4F9F4F62
:1022C0000895AA1BBB1B51E107C0AA1FBB1FA6177D
:1022D000B70710F0A61BB70B881F991F5A95A9F7CF
:1022E00080959095BC01CD010895EE0FFF1F0590DC
:1022F000F491E02D09942F923F924F925F926F924A
:102300007F928F929F92AF92BF92CF92DF92EF9285
:10231000FF920F931F93CF93DF93CDB7DEB7CA1B06
:10232000DB0B0FB6F894DEBF0FBECDBF09942A8831
:10233000398848885F846E847D848C849B84AA84D9
:10234000B984C884DF80EE80FD800C811B81AA8166
:10235000B981CE0FD11D0FB6F894DEBF0FBECDBF31
:08236000ED010895F894FFCF90
:102368006469006E672000200072696E67696E6795
:102378002E2E2E2000616374697665200069646CD6
:10238800652000200087040000010000000300BC55
:10239800020A00FF00FF000A0002001400FF00FF0D
:1023A80000FF00FF00FF00FF00320032000400FFC2
:1023B800FFFAFFF5FFEFFFE9FFE3FFDCFFD6FFCFF2
:1023C800FFC9FFC2FFBBFFB4FFACFFA5FF9DFF9590
:1023D800FF8DFF85FF7DFF74FF6CFF63FF5AFF5081
:1023E800FF47FF3DFF33FF29FF1FFF14FF09FFFED3
:1023F800FEF3FEE8FEDCFED0FEC3FEB7FEAAFE9D9D
:10240800FE8FFE81FE73FE65FE56FE47FE38FE28EF
:10241800FE18FE08FEF7FDE6FDD5FDC3FDB1FD9EE5
:10242800FD8BFD78FD64FD4FFD3BFD25FD10FDF99D
:10243800FCE3FCCCFCB4FC9CFC83FC6AFC50FC3543
:10244800FC1AFCFFFBE3FBC6FBA8FB8AFB6CFB4CFE
:10245800FB2CFB0BFBEAFAC7FAA4FA81FA5CFA3701
:10246800FA10FAE9F9C1F999F96FF944F919F9EC8F
:10247800F8BFF890F861F830F8FFF7CCF798F763F1
:10248800F72DF7F6F6BDF683F648F60CF6CEF58F7F
:10249800F54FF50DF5C9F485F43EF4F6F3ADF362A6
:1024A800F315F3C7F277F225F2D1F17CF124F1CBE1
:1024B800F070F013F0B3EF52EFEEEE88EE20EEB6C8
:1024C800ED4AEDDBEC69ECF5EB7FEB05EB8AEA0B0B
:1024D800EA8AE906E97FE8F5E768E7D8E644E6AE80
:1024E800E514E576E4D6E332E38AE2DEE12FE17C27
:1024F800E0C4DF09DF4ADE86DDBFDCF3DB22DB4D2B
:10250800DA73D994D8B0D7C8D6DAD5E7D4EED3F1F0
:10251800D2EDD1E4D0D5CFC0CEA5CD84CC5CCB2E26
:10252800CAFAC8BEC77CC632C5E1C389C229C1C2BE
:10253800BF52BEDBBC5BBBD3B942B8A8B605B55A1F
:10254800B3A4B1E5AF1CAE4AAC6DAA85A893A69515
:10255800A48DA279A0599E2E9CF699B297619502F6
:102568009397901E8E978B02895E86AB83E98018BD
:102578007E377B4578437530720C6FD66B8E683327
:1025880065C661455EB15A08574B53784F914B93D6
:10259800477E43533F103BB6364232B62D10295082
:1025A80024751F7F1A6D153E10F20A880500000178
:0A25B80000000000560DA30DBB0D3E
:00000001FF
