:100000000C9462000C948A000C948A000C948A0070
:100010000C948A000C948A000C948A000C948A0038
:100020000C948A000C948A000C948A000C948A0028
:100030000C948A000C948A000C948A000C948A0018
:100040000C94AB020C948A000C94C8040C948A00A3
:100050000C948A000C948A000C948A000C948A00F8
:100060000C948A000C948A000000000024002700F1
:100070002A0000000000250028002B0000000000DE
:1000800023002600290004040404040404040202DA
:100090000202020203030303030301020408102007
:1000A0004080010204081020010204081020000012
:1000B0000007000201000003040600000000000029
:1000C0000000110611241FBECFEFD8E0DEBFCDBF68
:1000D00011E0A0E0B1E0ECEAFDE002C005900D9275
:1000E000AE35B107D9F712E0AEE5B1E001C01D921F
:1000F000A23DB107E1F710E0C4ECD0E004C02297C4
:10010000FE010E94D006C23CD107C9F70E94C0017F
:100110000C94D4060C940000AF92BF92CF92DF9261
:10012000EF92FF920F931F93CF93DF9300913002D2
:1001300010913102000F111F005A1E4F80912E02A4
:1001400090912F02F80120813181821B930B9093B3
:100150002F0280932E0280915E010E94C701F80158
:10016000918380832091300230913102F901EE0FAA
:10017000FF1FE05AFE4F0190F081E02D80912E028A
:1001800090912F02E80FF91FF0932F02E0932E02B7
:100190002F5F3F4F309331022093300224363105D8
:1001A00024F01092310210923002CF0164E670E028
:1001B0000E946A067093290260932802809136019A
:1001C0000E94C7012091500130915101821B930B75
:1001D00090932B0280932A029C0197FF03C03095D5
:1001E00021953F4F30932D0220932C0200D000D058
:1001F000B901882777FD8095982F2EEF30E040E0F9
:1002000050E0EDB7FEB7218332834383548320E06F
:1002100030E040E050E0E12CE4E0FE2E012D112D15
:10022000AA24BB2465010E947F047B018C018B0101
:100230000F900F900F900F908FEB92E060E071E0C5
:100240000E948E0380915E010E94C701BC018FEB6A
:1002500092E00E9477048FEB92E067E071E00E94E9
:100260008E03809136010E94C701BC018FEB92E0A2
:100270000E9477048FEB92E06EE071E00E948E03A3
:1002800060912C0270912D028FEB92E00E94770416
:100290008FEB92E06CE171E00E948E038FEB92E0B5
:1002A000B7010E9477048FEB92E06AE271E00E944E
:1002B0008E0384E4E82E81E0F82EC8E3D1E020919B
:1002C0002C0230912D02F701808191812817390786
:1002D0004CF08881B8010E94E5018FEB92E062E367
:1002E00071E009C0888160E070E00E94E5018FEB59
:1002F00092E064E371E00E948E0360E070E080E0D1
:1003000090E00E94F30282E090E0E80EF91E22964F
:1003100090E5E91691E0F90691F68FEB92E064E33F
:1003200071E00E94AD03DF91CF911F910F91FF907B
:10033000EF90DF90CF90BF90AF900895CF93DF9371
:10034000C8E3D1E0888161E00E943E02229681E00C
:10035000C434D807B9F780915E0160E00E943E0284
:100360008091360160E00E943E028FEB92E040E80F
:1003700055E260E070E00E940505DF91CF9108959D
:100380000E941D030E949E010E948C00FDCF8F7071
:10039000909152019295990F990F907C982B909380
:1003A0007C0080917A00806480937A0080917A004A
:1003B00086FDFCCF2091780040917900942F80E059
:1003C00030E0282B392BC90108951F93CF93DF9379
:1003D000182FEB0161E00E943E02E12FF0E0E255B0
:1003E000FF4F8491833051F4809180008068809326
:1003F0008000D0938900C09388003CC0843051F4C1
:1004000080918000806280938000D0938B00C093A5
:100410008A0030C0813039F4209729F184B5806892
:1004200084BDC7BD27C0823039F42097E1F084B580
:10043000806284BDC8BD1EC0863041F48091B0008A
:1004400080688093B000C093B30014C0873041F43B
:100450008091B00080628093B000C093B4000AC065
:10046000C038D1051CF4812F60E002C0812F61E00B
:100470000E945E02DF91CF911F910895282F30E0F6
:10048000C90186569F4FFC0194912A573F4FF901AD
:100490008491882391F0E82FF0E0EE0FFF1FE859D8
:1004A000FF4FA591B491662329F48C9190958923EF
:1004B0008C9308958C91892B8C930895482F50E04C
:1004C000CA0182559F4FFC012491CA0186569F4F55
:1004D000FC0194914A575F4FFA0134913323D1F1D3
:1004E000222331F1233021F4809180008F7705C0E1
:1004F000243031F4809180008F7D8093800018C07B
:10050000213019F484B58F7704C0223021F484B5EA
:100510008F7D84BD0DC0263021F48091B0008F778F
:1005200005C0273029F48091B0008F7D8093B00002
:10053000E32FF0E0EE0FFF1FEE58FF4FA591B491AF
:10054000662329F48C91909589238C9308958C913E
:10055000892B8C9308951F920F920FB60F9211243E
:100560002F933F938F939F93AF93BF9380913602C6
:1005700090913702A0913802B091390230913A023D
:100580000196A11DB11D232F2D5F2D3720F02D5772
:100590000196A11DB11D20933A02809336029093DB
:1005A0003702A0933802B0933902809132029091C1
:1005B0003302A0913402B09135020196A11DB11D04
:1005C0008093320290933302A0933402B0933502A9
:1005D000BF91AF919F918F913F912F910F900FBE3F
:1005E0000F901F901895EF92FF920F931F937B012E
:1005F0008C018FB7F8944091360250913702609188
:100600003802709139028FBF2FB7F894809136026B
:1006100090913702A0913802B09139022FBF841B0C
:10062000950BA60BB70BE816F9060A071B0760F730
:100630001F910F91FF90EF900895789484B5826098
:1006400084BD84B5816084BD85B5826085BD85B576
:10065000816085BDEEE6F0E0808181608083E1E825
:10066000F0E0808182608083808181608083E0E827
:10067000F0E0808181608083E1EBF0E08081846044
:100680008083E0EBF0E0808181608083EAE7F0E046
:1006900080818460808380818260808380818160AA
:1006A00080838081806880831092C10008950F93B9
:1006B0001F93CF93DF938C01EB0109C02196D801E2
:1006C000ED91FC910190F081E02DC80109956881C0
:1006D0006623A1F7DF91CF911F910F910895EF92BB
:1006E000FF920F931F93CF93DF938C017B01EA015D
:1006F0000CC0D7016D917D01D801ED91FC91019065
:10070000F081E02DC80109952197209791F7DF919D
:10071000CF911F910F91FF90EF900895DC01ED9123
:10072000FC910280F381E02D099508950F931F93AA
:100730008C01DC01ED91FC910190F081E02D6DE0E8
:100740000995D801ED91FC910190F081E02DC8014F
:100750006AE009951F910F9108950F931F938C01E3
:100760000E948E03C8010E9496031F910F91089565
:100770002F923F924F925F926F927F928F929F92B1
:10078000AF92BF92CF92DF92EF92FF920F931F939F
:10079000DF93CF93CDB7DEB7A0970FB6F894DEBF47
:1007A0000FBECDBF1C016A017B01411551056105DA
:1007B000710549F4DC01ED91FC910190F081E02D8F
:1007C00060E3099554C0882499245401422E55248D
:1007D0006624772401E010E00C0F1D1F080D191D81
:1007E000C701B601A30192010E947D06F801608352
:1007F0000894811C911CA11CB11CC701B601A30166
:1008000092010E947D06C901DA016C017D01C114CB
:10081000D104E104F104F1F681E0E82EF12CEC0EB4
:10082000FD1EE80CF91C3E010894611C711CD501E9
:10083000C4010197A109B1096C01C818D90814C0F5
:10084000F601EE0DFF1D60816A3010F4605D01C09D
:10085000695CD101ED91FC910190F081E02DC10125
:1008600009950894E108F1086E147F0449F7A096F1
:100870000FB6F894DEBF0FBECDBFCF91DF911F91B1
:100880000F91FF90EF90DF90CF90BF90AF909F902F
:100890008F907F906F905F904F903F902F90089532
:1008A000EF92FF920F931F93CF93DF93EC017A01A6
:1008B0008B0177FF0FC0E881F9810190F081E02D75
:1008C0006DE2099510950095F094E094E11CF11CFF
:1008D000011D111DCE01B801A7012AE00E94B80335
:1008E000DF91CF911F910F91FF90EF900895AB0191
:1008F000662757FD6095762F0E94500408952F9229
:100900003F924F925F926F927F928F929F92AF929F
:10091000BF92CF92DF92EF92FF920F931F93DF93DC
:10092000CF93CDB7DEB73B014C0119012A016D8988
:100930007E898F89988D6A197B098C099D09621AB5
:10094000730A840A950AA40193010E944B06E218D7
:10095000F30804091509A80197010E949F062A0DB2
:100960003B1D4C1D5D1DB901CA01CF91DF911F9147
:100970000F91FF90EF90DF90CF90BF90AF909F903E
:100980008F907F906F905F904F903F902F90089541
:100990001F920F920FB60F9211242F933F934F93F4
:1009A0005F936F937F938F939F93AF93BF93EF93D7
:1009B000FF934091C600E091BB02F091BC02CF01D1
:1009C000019660E870E00E946A069C018091BD0279
:1009D0009091BE022817390739F0E55CFD4F40833E
:1009E0003093BC022093BB02FF91EF91BF91AF9176
:1009F0009F918F917F916F915F914F913F912F9137
:100A00000F900FBE0F901F9018955F926F927F927C
:100A10008F929F92AF92BF92CF92DF92EF92FF920E
:100A20000F931F93CF93DF93EC013A014B014134B5
:100A300082E458078FE0680780E078070CF07FC0F9
:100A400060E874E88EE190E0A40193010E949F06A3
:100A50002150304040405040CA01B90122E030E00E
:100A600040E050E00E949F0659016A01A6019501ED
:100A7000209530954095509594E0220F331F441FE8
:100A8000551F9A95D1F760E074E284EF90E00E94E0
:100A90009F06CA01B9012FEF30E040E050E00E940C
:100AA0004B06A40193010E949F06C90181509F4FEC
:100AB000181619061CF4522E5A9403C05524539448
:100AC000521A60E079E08DE390E0A40193010E9466
:100AD0009F062150304040405040CA01B90122E0F9
:100AE00030E040E050E00E949F0620953095409510
:100AF000509583E0220F331F441F551F8A95D1F76D
:100B000060E074E284EF90E00E949F06CA01B901A0
:100B10002FEF30E040E050E00E944B06A40193012B
:100B20000E949F06C90181509F4F181619061CF498
:100B3000822F815002C081E0821B851500F5E88577
:100B4000F98581E090E00A8802C0880F991F0A9415
:100B5000E2F7808360E079E08DE390E0A401930107
:100B60000E949F062150304040405040CA01B901C8
:100B700022E030E040E050E00E949F0604C0E8859B
:100B8000F98510829501EC81FD813083EE81FF8132
:100B90002083EA85FB85208141E050E0CA010E8474
:100BA00002C0880F991F0A94E2F7282B2083EA8558
:100BB000FB852081CA010F8402C0880F991F0A9407
:100BC000E2F7282B2083EA85FB858081088802C014
:100BD000440F551F0A94E2F7842B8083DF91CF9155
:100BE0001F910F91FF90EF90DF90CF90BF90AF904B
:100BF0009F908F907F906F905F900895FC01A085EB
:100C0000B18521898C9190E0022E02C0959587953F
:100C10000A94E2F780FFF6CF0484F585E02D608327
:100C2000089587E591E09093C0028093BF028BE323
:100C300092E09093C2028093C10285EC90E0909381
:100C4000C4028093C30284EC90E09093C602809328
:100C5000C50280EC90E09093C8028093C70281ECBB
:100C600090E09093CA028093C90286EC90E0909342
:100C7000CC028093CB0284E08093CD0283E080930A
:100C8000CE0287E08093CF0285E08093D00281E09E
:100C90008093D1020895629FD001739FF001829FDB
:100CA000E00DF11D649FE00DF11D929FF00D839FFB
:100CB000F00D749FF00D659FF00D9927729FB00D98
:100CC000E11DF91F639FB00DE11DF91FBD01CF01AB
:100CD0001124089597FB092E07260AD077FD04D02A
:100CE00049D006D000201AF4709561957F4F089581
:100CF000F6F7909581959F4F0895A1E21A2EAA1BB1
:100D0000BB1BFD010DC0AA1FBB1FEE1FFF1FA217BB
:100D1000B307E407F50720F0A21BB30BE40BF50BB8
:100D2000661F771F881F991F1A9469F76095709541
:100D3000809590959B01AC01BD01CF01089597FB73
:100D4000092E05260ED057FD04D0D7DF0AD0001C8F
:100D500038F450954095309521953F4F4F4F5F4F58
:100D60000895F6F790958095709561957F4F8F4F18
:100D70009F4F0895AA1BBB1B51E107C0AA1FBB1FB1
:100D8000A617B70710F0A61BB70B881F991F5A9517
:100D9000A9F780959095BC01CD010895EE0FFF1F36
:0C0DA0000590F491E02D0994F894FFCF29
:100DAC00567265663A20002056696E3A2000204340
:100DBC006C65616E4C6576656C3A200020436C6501
:100DCC00616E4C696768743A2000202F2056553AA2
:100DDC0020004F002000020003000500060009005F
:100DEC000A000B00320064008200E1002C01680153
:0E0DFC00C2010100000000FE0557036F030056
:00000001FF
