:100000000C9462000C948A000C948A000C948A0070
:100010000C948A000C948A000C948A000C948A0038
:100020000C948A000C948A000C948A000C948A0028
:100030000C948A000C948A000C948A000C948A0018
:100040000C9424010C948A000C94A6010C948A0050
:100050000C948A000C948A000C948A000C948A00F8
:100060000C948A000C948A000000000024002700F1
:100070002A0000000000250028002B0000000000DE
:1000800023002600290004040404040404040202DA
:100090000202020203030303030301020408102007
:1000A0004080010204081020010204081020000012
:1000B0000007000201000003040600000000000029
:1000C0000000170311241FBECFEFD8E0DEBFCDBF65
:1000D00011E0A0E0B1E0E4E7F8E002C005900D9285
:1000E000AA30B107D9F711E0AAE0B1E001C01D9232
:1000F000AB3AB107E1F710E0C4ECD0E004C02297BE
:10010000FE010E943404C23CD107C9F70E94B0002E
:100110000C9438040C9400000F931F9308E911E02D
:10012000C8010E94DC02682F80930A01C8010E9466
:100130009F0381E080930A018AE061E00E94D7007A
:100140001F910F91089588E991E040E855E260E041
:1001500070E00E94E3018AE061E00E94B700089528
:100160000E946C010E94A3000E948C00FDCF282FEA
:1001700030E0C90186569F4FFC0194912A573F4FAA
:10018000F9018491882391F0E82FF0E0EE0FFF1F32
:10019000E859FF4FA591B491662329F48C9190956D
:1001A00089238C9308958C91892B8C930895482FE3
:1001B00050E0CA0182559F4FFC012491CA01865626
:1001C0009F4FFC0194914A575F4FFA0134913323BA
:1001D000D1F1222331F1233021F4809180008F77F7
:1001E00005C0243031F4809180008F7D80938000A1
:1001F00018C0213019F484B58F7704C0223021F45F
:1002000084B58F7D84BD0DC0263021F48091B0006F
:100210008F7705C0273029F48091B0008F7D8093BF
:10022000B000E32FF0E0EE0FFF1FEE58FF4FA59157
:10023000B491662329F48C91909589238C93089529
:100240008C91892B8C9308951F920F920FB60F9269
:1002500011242F933F938F939F93AF93BF938091DC
:100260000F0190911001A0911101B09112013091F4
:1002700013010196A11DB11D232F2D5F2D3720F0F5
:100280002D570196A11DB11D2093130180930F01DD
:1002900090931001A0931101B093120180910B0172
:1002A00090910C01A0910D01B0910E010196A11D3C
:1002B000B11D80930B0190930C01A0930D01B0939D
:1002C0000E01BF91AF919F918F913F912F910F9010
:1002D0000FBE0F901F901895789484B5826084BDEE
:1002E00084B5816084BD85B5826085BD85B581603A
:1002F00085BDEEE6F0E0808181608083E1E8F0E09A
:10030000808182608083808181608083E0E8F0E08A
:10031000808181608083E1EBF0E080818460808374
:10032000E0EBF0E0808181608083EAE7F0E08081AB
:10033000846080838081826080838081816080830B
:100340008081806880831092C10008951F920F926F
:100350000FB60F9211242F933F934F935F936F9398
:100360007F938F939F93AF93BF93EF93FF934091AE
:10037000C600E0919401F0919501CF01019660E8EB
:1003800070E00E94CE039C018091960190919701AC
:100390002817390739F0EC5EFE4F40833093950102
:1003A00020939401FF91EF91BF91AF919F918F9115
:1003B0007F916F915F914F913F912F910F900FBE61
:1003C0000F901F9018955F926F927F928F929F92DD
:1003D000AF92BF92CF92DF92EF92FF920F931F9353
:1003E000CF93DF93EC013A014B01413482E458078B
:1003F0008FE0680780E078070CF07FC060E874E861
:100400008EE190E0A40193010E940304215030404A
:1004100040405040CA01B90122E030E040E050E0E5
:100420000E94030459016A01A601950120953095A7
:100430004095509594E0220F331F441F551F9A9505
:10044000D1F760E074E284EF90E00E940304CA01F7
:10045000B9012FEF30E040E050E00E94AF03A4016B
:1004600093010E940304C90181509F4F1816190679
:100470001CF4522E5A9403C055245394521A60E02F
:1004800079E08DE390E0A40193010E9403042150E0
:10049000304040405040CA01B90122E030E040E025
:1004A00050E00E940304209530954095509583E0DC
:1004B000220F331F441F551F8A95D1F760E074E265
:1004C00084EF90E00E940304CA01B9012FEF30E0ED
:1004D00040E050E00E94AF03A40193010E94030496
:1004E000C90181509F4F181619061CF4822F8150A4
:1004F00002C081E0821B851500F5E885F98581E061
:1005000090E00A8802C0880F991F0A94E2F780835E
:1005100060E079E08DE390E0A40193010E94030480
:100520002150304040405040CA01B90122E030E043
:1005300040E050E00E94030404C0E885F985108281
:100540009501EC81FD813083EE81FF812083EA8576
:10055000FB85208141E050E0CA010E8402C0880F73
:10056000991F0A94E2F7282B2083EA85FB852081D6
:10057000CA010F8402C0880F991F0A94E2F7282B42
:100580002083EA85FB858081088802C0440F551FBF
:100590000A94E2F7842B8083DF91CF911F910F9112
:1005A000FF90EF90DF90CF90BF90AF909F908F9093
:1005B0007F906F905F900895CF93DF93DC01129648
:1005C000ED91FC911397EF01CE57DF4F4881598190
:1005D000E058FF4F80819181E058F04084179507E3
:1005E00019F42FEF3FEF0CC0E40FF51F2081CA0173
:1005F000019660E870E00E94CE039983888330E022
:10060000C901DF91CF910895FC01A085B1852189B1
:100610008C9190E0022E02C0959587950A94E2F79E
:1006200080FFF6CF0484F585E02D6083089584E093
:1006300091E0909399018093980184E191E09093E7
:100640009B0180939A0185EC90E090939D018093AB
:100650009C0184EC90E090939F0180939E0180EC3C
:1006600090E09093A1018093A00181EC90E09093A1
:10067000A3018093A20186EC90E09093A501809362
:10068000A40184E08093A60183E08093A70187E022
:100690008093A80185E08093A90181E08093AA015D
:1006A00008950F931F93CF93DF938C01EB0109C043
:1006B0002196D801ED91FC910190F081E02DC801C7
:1006C000099568816623A1F7DF91CF911F910F9162
:1006D0000895EF92FF920F931F93CF93DF938C01B6
:1006E0007B01EA010CC0D7016D917D01D801ED912C
:1006F000FC910190F081E02DC80109952197209788
:1007000091F7DF91CF911F910F91FF90EF90089596
:100710000F931F938C01DC01ED91FC910190F0810E
:10072000E02D6DE00995D801ED91FC910190F081EB
:10073000E02DC8016AE009951F910F9108950F936C
:100740001F938C01DC01ED91FC910190F081E02D73
:100750000995C8010E9488031F910F910895629F17
:10076000D001739FF001829FE00DF11D649FE00DA9
:10077000F11D929FF00D839FF00D749FF00D659F0A
:10078000F00D9927729FB00DE11DF91F639FB00D09
:10079000E11DF91FBD01CF011124089597FB092E1A
:1007A00007260AD077FD04D049D006D000201AF4DD
:1007B000709561957F4F0895F6F7909581959F4FBD
:1007C0000895A1E21A2EAA1BBB1BFD010DC0AA1F92
:1007D000BB1FEE1FFF1FA217B307E407F50720F0AA
:1007E000A21BB30BE40BF50B661F771F881F991F25
:1007F0001A9469F760957095809590959B01AC016E
:10080000BD01CF01089597FB092E05260ED057FD97
:1008100004D0D7DF0AD0001C38F4509540953095AD
:1008200021953F4F4F4F5F4F0895F6F79095809574
:10083000709561957F4F8F4F9F4F0895AA1BBB1BEB
:1008400051E107C0AA1FBB1FA617B70710F0A61BD0
:10085000B70B881F991F5A95A9F780959095BC01F1
:10086000CD010895EE0FFF1F0590F491E02D09943E
:04087000F894FFCF2A
:0A08740000000000040351036903B3
:00000001FF
