:100000000C9462000C948A000C948A000C948A0070
:100010000C948A000C948A000C948A000C948A0038
:100020000C948A000C948A000C948A000C948A0028
:100030000C948A000C948A000C948A000C948A0018
:100040000C94C7010C948A000C94D4020C948A007E
:100050000C948A000C948A000C948A000C948A00F8
:100060000C948A000C948A000000000024002700F1
:100070002A0000000000250028002B0000000000DE
:1000800023002600290004040404040404040202DA
:100090000202020203030303030301020408102007
:1000A0004080010204081020010204081020000012
:1000B0000007000201000003040600000000000029
:1000C00000001D0411241FBECFEFD8E0DEBFCDBF5E
:1000D00011E0A0E0B1E0E4ECF9E002C005900D927F
:1000E000A832B107D9F711E0A8E2B1E001C01D9232
:1000F000A73FB107E1F710E0C4ECD0E004C02297BD
:10010000FE010E94DC04C23CD107C9F70E94350100
:100110000C94E0040C9400000F931F93CF93DF9393
:1001200020915601C22FD0E0CC0FDD1FC65DDE4FFF
:10013000809154019091550128813981821B930B44
:100140009093550180935401809111010E943C01CC
:100150009983888320915601E22FF0E0EE0FFF1F74
:10016000E65DFE4F0190F081E02D80915401909169
:100170005501E80FF91FF0935501E09354012F5FEB
:1001800020935601243110F010925601CF0164E102
:1001900070E00E947604709353016093520184EEE4
:1001A00091E060E071E00E94AA0206E111E0C3E183
:1001B000D1E0809112010E943C01F8014081209120
:1001C000280130912901240F311D821793074CF02B
:1001D000888161E00E947A0184EE91E06DE071E037
:1001E00008C0888160E00E947A0184EE91E06FE0AF
:1001F00071E00E94AA026AE070E080E090E00E9454
:100200000F020F5F1F4F2196F1E009311F0789F69A
:1002100084EE91E06FE071E00E94C902DF91CF911E
:100220001F910F9108958091130161E00E945A017E
:100230008091140161E00E945A018091150161E0F2
:100240000E945A018091110160E00E945A01809140
:10025000120160E00E945A0184EE91E040E855E20C
:1002600060E070E00E94110308950E9439020E942C
:1002700013010E948C00FDCF8F7090911C0192950C
:10028000990F990F907C982B90937C0080917A0025
:10029000806480937A0080917A0086FDFCCF209163
:1002A000780040917900942F80E030E0282B392BA2
:1002B000C9010895282F30E0C90186569F4FFC01DF
:1002C00094912A573F4FF9018491882391F0E82FA8
:1002D000F0E0EE0FFF1FE859FF4FA591B4916623A0
:1002E00029F48C91909589238C9308958C91892B76
:1002F0008C930895482F50E0CA0182559F4FFC010E
:100300002491CA0186569F4FFC0194914A575F4F32
:10031000FA0134913323D1F1222331F1233021F436
:10032000809180008F7705C0243031F48091800067
:100330008F7D8093800018C0213019F484B58F77A9
:1003400004C0223021F484B58F7D84BD0DC02630D9
:1003500021F48091B0008F7705C0273029F4809177
:10036000B0008F7D8093B000E32FF0E0EE0FFF1F11
:10037000EE58FF4FA591B491662329F48C91909586
:1003800089238C9308958C91892B8C9308951F92C7
:100390000F920FB60F9211242F933F938F939F9339
:1003A000AF93BF9380915B0190915C01A0915D013F
:1003B000B0915E0130915F010196A11DB11D232F07
:1003C0002D5F2D3720F02D570196A11DB11D2093D3
:1003D0005F0180935B0190935C01A0935D01B093FA
:1003E0005E018091570190915801A0915901B091FF
:1003F0005A010196A11DB11D809357019093580198
:10040000A0935901B0935A01BF91AF919F918F91E1
:100410003F912F910F900FBE0F901F901895EF9264
:10042000FF920F931F937B018C018FB7F89440913B
:100430005B0150915C0160915D0170915E018FBF25
:100440002FB7F89480915B0190915C01A0915D01C0
:10045000B0915E012FBF841B950BA60BB70BE8165E
:10046000F9060A071B0760F71F910F91FF90EF90A5
:100470000895789484B5826084BD84B5816084BD1C
:1004800085B5826085BD85B5816085BDEEE6F0E00D
:10049000808181608083E1E8F0E0808182608083F8
:1004A000808181608083E0E8F0E0808181608083EA
:1004B000E1EBF0E0808184608083E0EBF0E080811C
:1004C00081608083EAE7F0E08081846080838081BE
:1004D0008260808380818160808380818068808366
:1004E0001092C10008950F931F93CF93DF938C0157
:1004F000EB0109C02196D801ED91FC910190F081AA
:10050000E02DC801099568816623A1F7DF91CF919D
:100510001F910F910895EF92FF920F931F93CF9326
:10052000DF938C017B01EA010CC0D7016D917D0145
:10053000D801ED91FC910190F081E02DC801099561
:100540002197209791F7DF91CF911F910F91FF9005
:10055000EF900895DC01ED91FC910280F381E02D94
:10056000099508950F931F938C01DC01ED91FC9187
:100570000190F081E02D6DE00995D801ED91FC919D
:100580000190F081E02DC8016AE009951F910F915B
:1005900008950F931F938C010E94AA02C8010E9424
:1005A000B2021F910F9108951F920F920FB60F92F2
:1005B00011242F933F934F935F936F937F938F9368
:1005C0009F93AF93BF93EF93FF934091C600E09149
:1005D000E001F091E101CF01019660E870E00E9436
:1005E00076049C018091E2019091E301281739077C
:1005F00039F0E05AFE4F40833093E1012093E0014F
:10060000FF91EF91BF91AF919F918F917F916F91EA
:100610005F914F913F912F910F900FBE0F901F90C0
:1006200018955F926F927F928F929F92AF92BF9236
:10063000CF92DF92EF92FF920F931F93CF93DF93AE
:10064000EC013A014B01413482E458078FE068071E
:1006500080E078070CF07FC060E874E88EE190E0FD
:10066000A40193010E94AB0421503040404050400F
:10067000CA01B90122E030E040E050E00E94AB0442
:1006800059016A01A6019501209530954095509534
:1006900094E0220F331F441F551F9A95D1F760E055
:1006A00074E284EF90E00E94AB04CA01B9012FEF1D
:1006B00030E040E050E00E945704A40193010E9402
:1006C000AB04C90181509F4F181619061CF4522E15
:1006D0005A9403C055245394521A60E079E08DE394
:1006E00090E0A40193010E94AB04215030404040AF
:1006F0005040CA01B90122E030E040E050E00E94E1
:10070000AB04209530954095509583E0220F331F20
:10071000441F551F8A95D1F760E074E284EF90E0A2
:100720000E94AB04CA01B9012FEF30E040E050E075
:100730000E945704A40193010E94AB04C901815097
:100740009F4F181619061CF4822F815002C081E0B9
:10075000821B851500F5E885F98581E090E00A881F
:1007600002C0880F991F0A94E2F7808360E079E065
:100770008DE390E0A40193010E94AB04215030402E
:1007800040405040CA01B90122E030E040E050E072
:100790000E94AB0404C0E885F98510829501EC81C4
:1007A000FD813083EE81FF812083EA85FB852081F6
:1007B00041E050E0CA010E8402C0880F991F0A94DC
:1007C000E2F7282B2083EA85FB852081CA010F846C
:1007D00002C0880F991F0A94E2F7282B2083EA852C
:1007E000FB858081088802C0440F551F0A94E2F7F8
:1007F000842B8083DF91CF911F910F91FF90EF9019
:10080000DF90CF90BF90AF909F908F907F906F9030
:100810005F900895FC01A085B18521898C9190E0BD
:10082000022E02C0959587950A94E2F780FFF6CFD5
:100830000484F585E02D6083089581E291E0909332
:10084000E5018093E40180E691E09093E7018093D5
:10085000E60185EC90E09093E9018093E80184EC57
:1008600090E09093EB018093EA0180EC90E090930C
:10087000ED018093EC0181EC90E09093EF01809387
:10088000EE0186EC90E09093F1018093F00184E01A
:100890008093F20183E08093F30187E08093F40179
:1008A00085E08093F50181E08093F6010895629FD1
:1008B000D001739FF001829FE00DF11D649FE00D58
:1008C000F11D929FF00D839FF00D749FF00D659FB9
:1008D000F00D9927729FB00DE11DF91F639FB00DB8
:1008E000E11DF91FBD01CF011124089597FB092EC9
:1008F00007260AD077FD04D049D006D000201AF48C
:10090000709561957F4F0895F6F7909581959F4F6B
:100910000895A1E21A2EAA1BBB1BFD010DC0AA1F40
:10092000BB1FEE1FFF1FA217B307E407F50720F058
:10093000A21BB30BE40BF50B661F771F881F991FD3
:100940001A9469F760957095809590959B01AC011C
:10095000BD01CF01089597FB092E05260ED057FD46
:1009600004D0D7DF0AD0001C38F45095409530955C
:1009700021953F4F4F4F5F4F0895F6F79095809523
:10098000709561957F4F8F4F9F4F0895AA1BBB1B9A
:1009900051E107C0AA1FBB1FA617B70710F0A61B7F
:1009A000B70B881F991F5A95A9F780959095BC01A0
:1009B000CD010895EE0FFF1F0590F491E02D0994ED
:0409C000F894FFCFD9
:1009C4007669727475616C2076753A20007C00201B
:1009D400000202090A0B000A1E37506401000000DD
:0809E400000A0473028B0200FB
:00000001FF
