:100000000C9435000C945D000C945D000C945D0024
:100010000C945D000C945D000C945D000C945D00EC
:100020000C945D000C945D000C945D000C945D00DC
:100030000C945D000C945D000C945D000C945D00CC
:100040000C942F0D0C945D000C945D000C945D00DD
:100050000C945D000C945D000C945D000C945D00AC
:100060000C94AE020C945D00EF0111241FBECFEF83
:10007000D8E0DEBFCDBF11E0A0E0B1E0ECE7FDE1EC
:1000800002C005900D92AC30B107D9F711E0ACE099
:10009000B1E001C01D92AE33B107E1F710E0CAE64E
:1000A000D0E004C02297FE010E94810EC836D1071D
:1000B000C9F70E940A0D0C94BC0E0C9400000F931B
:1000C0001F93CF93DF93689F8001699F100D789FE6
:1000D000100D1124C8010E947B00EC01009729F04B
:1000E00060E070E0A8010E94DE01CE01DF91CF91B7
:1000F0001F910F910895CF93DF93BC01823091053A
:1001000010F462E070E0A0913C01B0913D01ED017E
:10011000E0E0F0E040E050E021C08881998186175E
:10012000970769F48A819B81309719F093838283C2
:1001300004C090933D0180933C01FE0134C06817D8
:10014000790738F44115510519F08417950708F41B
:10015000AC01FE018A819B819C01E9012097E9F6AF
:1001600041155105A9F1CA01861B970B049708F4A4
:10017000BA01E0E0F0E02AC08D919C9111978417BC
:100180009507F9F46417750781F412968D919C9187
:100190001397309719F09383828304C090933D01A5
:1001A00080933C01FD0132964CC0CA01861B970B1F
:1001B000FD01E80FF91F6193719302978D939C9352
:1001C00040C0FD01828193819C01D9011097A1F665
:1001D00080913A0190913B01892B41F48091020179
:1001E0009091030190933B0180933A014091040167
:1001F000509105014115510541F44DB75EB780910D
:10020000000190910101481B590B20913A01309156
:100210003B01CA01821B930B8617970780F0AB0145
:100220004E5F5F4F8417950750F0420F531F509356
:100230003B0140933A01F9016193719302C0E0E000
:10024000F0E0CF01DF91CF910895CF93DF93009736
:1002500009F450C0EC0122971B821A82A0913C0144
:10026000B0913D01109709F140E050E0AC17BD0797
:1002700008F1BB83AA83FE0121913191E20FF31FA4
:10028000AE17BF0779F48D919C911197280F391FF4
:100290002E5F3F4F3983288312968D919C9113973F
:1002A0009B838A834115510571F4D0933D01C0931E
:1002B0003C0120C012968D919C911397AD0100973F
:1002C00011F0DC01D3CFFA01D383C28321913191A4
:1002D000E20FF31FCE17DF0769F488819981280F99
:1002E000391F2E5F3F4FFA01318320838A819B8122
:1002F00093838283DF91CF910895A0E0B0E0E3E89B
:10030000F1E00C948D0EEC01A880B980CA80DB80EE
:10031000A114B104C104D10441F484E2A82E89EDF2
:10032000B82E8BE5C82E87E0D82EC601B5012DE189
:1003300033EF41E050E00E94420E27EA31E440E012
:1003400050E00E94230E7B018C01C601B5012DE116
:1003500033EF41E050E00E94420ECA01B9012CEE99
:1003600034EF4FEF5FEF0E94230E6E0D7F1D801F55
:10037000911F97FF04C0615070408040904868838F
:1003800079838A839B839B01AC015F77B901CA01A2
:10039000CDB7DEB7EAE00C94A90E0E947D01089566
:1003A00086E091E00E947D010895609306017093BC
:1003B000070180930801909309010895DC0101C0B1
:1003C0006D9341505040E0F7089581E0809315010E
:1003D0006093100110921301109214010895089572
:1003E000DF93CF930F92CDB7DEB76983809115016C
:1003F0008823A9F0809114018032B0F48091130118
:10040000E0911101F0911201E80FF11D60838091DC
:1004100013018F5F809313018093140105C0CE01F7
:10042000019661E00E9491020F90CF91DF910895B3
:100430000E94F00108956091110170911201809164
:1004400010014091140121E00E944C02109213010E
:100450001092140110921501089580E290E061E07D
:1004600070E00E945F0080930C0190930D01109248
:100470000E0110920F0180E290E061E070E00E94B6
:100480005F0080931101909312011092130110925A
:1004900014010E94300408951F93582F122F4132E7
:1004A00010F081E03CC0809117018823E1F782E0E1
:1004B000809317018FEF8093280110921F014093C2
:1004C0002001A0911D01B0911E01FB0102C081918C
:1004D0008D938E2F861B8417D0F3852F90E0880F85
:1004E000991F8093180185EE8093BC00112321F0A1
:1004F000809117018230E1F3809128018F3F11F440
:1005000080E00DC080912801803211F482E007C0A4
:1005100080912801803311F084E001C083E01F91B5
:100520000895482F613210F081E0089580911701FD
:10053000843011F082E0089560932401A09121019C
:10054000B0912201842F9C01F90102C081918D9309
:100550008E2F841B8617D0F380E008951F920F9290
:100560000FB60F9211242F933F934F935F936F9386
:100570007F938F939F93AF93BF93EF93FF9380915C
:10058000B90090E0887F90708036910509F4E2C050
:1005900081369105CCF58832910509F47BC089320A
:1005A0009105B4F48031910509F46FC08131910552
:1005B0003CF4009709F438C1089709F040C165C0C0
:1005C0008831910509F466C0809709F038C17FC071
:1005D0008034910509F4A3C08134910544F480333B
:1005E000910509F47FC0C89709F029C186C08035FC
:1005F000910509F486C08835910509F495C08834C1
:10060000910509F01CC19EC08839910509F404C107
:1006100089399105ECF48837910509F49BC0893735
:1006200091054CF48836910509F494C08037910502
:1006300009F005C18FC08838910509F4EDC08039F3
:10064000910509F48DC08038910509F0F8C088C083
:10065000803B910509F4B2C0813B91054CF4803A8E
:10066000910509F491C0883A910509F0E8C0A6C047
:10067000803C910509F4D4C0883C910509F4D0C0B0
:10068000883B910509F0DBC0B1C0809118018093CF
:10069000BB00C0C090911F0180912001981778F491
:1006A00090911F01E0911D01F0911E01E90FF11DD4
:1006B00080818093BB009F5F90931F01ABC085ED4D
:1006C0008093BC008091BC0084FDFCCFB6C080E26A
:1006D0008093280185ED8093BC008091BC0084FD4F
:1006E000FCCFABC080E38093280185ED8093BC00F4
:1006F0008091BC0084FDFCCFA0C088E380932801DA
:100700008FC080911F019091BB00E0911D01F0917D
:100710001E01E80FF11D90838F5F80931F01909160
:100720001F018091200174C080911F019091BB0036
:10073000E0911D01F0911E01E80FF11D90838F5F84
:1007400080931F0185ED8093BC008091BC0084FDE7
:10075000FCCF73C083E080931701109227015AC029
:1007600080912701803208F057C080912701909135
:10077000BB00E0912501F0912601E80FF11D908367
:100780008F5F8093270146C080912701803248F413
:1007900080912701E0912501F0912601E80FF11DDC
:1007A000108260912701E0911B01F0911C01809162
:1007B00025019091260170E0099532C084E0809374
:1007C00017011092230110922401E0911901F09178
:1007D0001A01099580912401882341F481E08093D6
:1007E0002401E0912101F0912201108290912301D6
:1007F000E0912101F0912201E90FF11D80818093A8
:10080000BB009F5F9093230190912301809124016D
:10081000981710F485EC01C085E88093BC000FC0E8
:1008200085EC8093BC0009C01092280185ED80936F
:10083000BC008091BC0084FDFCCF10921701FF9199
:10084000EF91BF91AF919F918F917F916F915F9148
:100850004F913F912F910F900FBE0F901F901895C1
:1008600010921701449A459AE9EBF0E080818E7F5F
:10087000808380818D7F808388E48093B80085E4C5
:100880008093BC0080E290E061E070E00E945F0035
:1008900080931D0190931E0180E290E061E070E082
:1008A0000E945F00809321019093220180E290E0FA
:1008B00061E070E00E945F00809325019093260123
:1008C0000895DF92EF92FF920F931F93382FF62E29
:1008D000E42ED22E06E111E0C801632F0E94E5014B
:1008E000C8016EE670E00E941802C8016F2D0E94D8
:1008F000F001C8016E2D0E94F001C8016D2D0E940B
:10090000F001C8010E941B021F910F91FF90EF9010
:10091000DF900895EF92FF920F931F93CF93DF9391
:10092000C0E0D0E064E670E080E090E020EF30E0EE
:1009300040E050E00E94FD0DE62E64E670E080E0AD
:1009400090E020EF30E040E050E00E94FD0DF62EF8
:1009500064E670E080E090E020EF30E040E050E0BE
:100960000E94FD0D062F11E01092300110922F0110
:100970000FC0812F6E2D4F2D202F0E94610480917A
:100980002F019091300101969093300180932F01B7
:1009900080912F019091300105975CF31F5F143611
:1009A00019F72196C630D10509F0BCCFDF91CF9160
:1009B0001F910F91FF90EF900895FF920F931F9357
:1009C000282FF62E06E111E0C801622F0E94E501F2
:1009D000C80166E670E00E941802C8016F2D0E94EF
:1009E000F001C8010E941B021F910F91FF90089512
:1009F000DF92EF92FF920F931F93382FF62EE42E83
:100A0000D22E06E111E0C801632F0E94E501C80162
:100A100063E670E00E941802C8016F2D0E94F00189
:100A2000C8016E2D0E94F001C8016D2D0E94F001D9
:100A3000C8010E941B021F910F91FF90EF90DF9061
:100A40000895CF93DF93C0E0D0E010923001109270
:100A50002F010FC080E060EF40EF20E00E946104B2
:100A600080912F01909130010196909330018093F5
:100A70002F0180912F019091300105975CF36EE179
:100A800070E080E090E00E94770D109230011092AB
:100A90002F010FC080E060E040E020E00E94610490
:100AA00080912F01909130010196909330018093B5
:100AB0002F0180912F019091300105975CF366E939
:100AC00070E080E090E00E94770D2196C330D10560
:100AD00009F0BBCFDF91CF910895CF93DF93C0E0B2
:100AE000D0E01092300110922F010FC080E060EF33
:100AF00040E020EF0E94610480912F01909130012D
:100B000001969093300180932F0180912F01909155
:100B1000300105975CF36EE170E080E090E00E94A8
:100B2000770D1092300110922F010FC080E060E02D
:100B300040E020E00E94610480912F0190913001FB
:100B400001969093300180932F0180912F01909115
:100B5000300105975CF366E970E080E090E00E9468
:100B6000770D2196C330D10509F0BBCFDF91CF912E
:100B70000895CF93DF93C0E0D0E01092300110923F
:100B80002F010FC080E060E040EF20EF0E94610481
:100B900080912F01909130010196909330018093C4
:100BA0002F0180912F019091300105975CF36EE148
:100BB00070E080E090E00E94770D1092300110927A
:100BC0002F010FC080E060E040E020E00E9461045F
:100BD00080912F0190913001019690933001809384
:100BE0002F0180912F019091300105975CF366E908
:100BF00070E080E090E00E94770D2196C330D1052F
:100C000009F0BBCFDF91CF910895CF93DF93C0E080
:100C1000D0E01092300110922F010FC080E060E010
:100C200040E020EF0E94610480912F0190913001FB
:100C300001969093300180932F0180912F01909124
:100C4000300105975CF36EE170E080E090E00E9477
:100C5000770D1092300110922F010FC080E060E0FC
:100C600040E020E00E94610480912F0190913001CA
:100C700001969093300180932F0180912F019091E4
:100C8000300105975CF366E970E080E090E00E9437
:100C9000770D2196C330D10509F0BBCFDF91CF91FD
:100CA0000895CF93DF93C0E0D0E01092300110920E
:100CB0002F010FC080E060E040EF20E00E9461045F
:100CC00080912F0190913001019690933001809393
:100CD0002F0180912F019091300105975CF36EE117
:100CE00070E080E090E00E94770D10923001109249
:100CF0002F010FC080E060E040E020E00E9461042E
:100D000080912F0190913001019690933001809352
:100D10002F0180912F019091300105975CF366E9D6
:100D200070E080E090E00E94770D2196C330D105FD
:100D300009F0BBCFDF91CF910895CF93DF93C0E04F
:100D4000D0E01092300110922F010FC080E060EFD0
:100D500040E020E00E94610480912F0190913001D9
:100D600001969093300180932F0180912F019091F3
:100D7000300105975CF36EE170E080E090E00E9446
:100D8000770D1092300110922F010FC080E060E0CB
:100D900040E020E00E94610480912F019091300199
:100DA00001969093300180932F0180912F019091B3
:100DB000300105975CF366E970E080E090E00E9406
:100DC000770D2196C330D10509F0BBCFDF91CF91CC
:100DD0000895CF93DF93C0E0D0E0109230011092DD
:100DE0002F010FC080E066EE46EE26EE0E94610401
:100DF00080912F0190913001019690933001809362
:100E00002F0180912F019091300105975CF36EE1E5
:100E100070E080E090E00E94770D10923001109217
:100E20002F010FC080E060E040E020E00E946104FC
:100E300080912F0190913001019690933001809321
:100E40002F0180912F019091300105975CF366E9A5
:100E500070E080E090E00E94770D2196C330D105CC
:100E600009F0BBCFDF91CF9108950E94E9060E945F
:100E70009D060E9451060E9405060E94B9050E9427
:100E80006D050E9421050E948A0408951092300188
:100E900010922F0113C080E063E00E94DD0480E027
:100EA00060EF40EF20E00E94F80480912F019091C4
:100EB000300101969093300180932F0180912F0192
:100EC0009091300105973CF36CED75E080E090E087
:100ED0000E94770D1092300110922F010FC080E018
:100EE00060E040E020E00E94F80480912F019091A2
:100EF000300101969093300180932F0180912F0152
:100F00009091300105975CF36CED75E080E090E026
:100F10000E94770D08951092300110922F0113C096
:100F200080E063E00E94DD0480E060EF40E020EFBD
:100F30000E94F80480912F019091300101969093C6
:100F4000300180932F0180912F01909130010597FE
:100F50003CF36CED75E080E090E00E94770D10921C
:100F6000300110922F010FC080E060E040E020E0EF
:100F70000E94F80480912F01909130010196909386
:100F8000300180932F0180912F01909130010597BE
:100F90005CF36CED75E080E090E00E94770D0895C1
:100FA0001092300110922F0113C080E063E00E9484
:100FB000DD0480E060E040EF20EF0E94F8048091C3
:100FC0002F019091300101969093300180932F0171
:100FD00080912F019091300105973CF36CED75E005
:100FE00080E090E00E94770D1092300110922F0166
:100FF0000FC080E060E040E020E00E94F8048091B3
:101000002F019091300101969093300180932F0130
:1010100080912F019091300105975CF36CED75E0A4
:1010200080E090E00E94770D0895109230011092B8
:101030002F0113C080E063E00E94DD0480E060E0E7
:1010400040E020EF0E94F80480912F019091300140
:1010500001969093300180932F0180912F01909100
:10106000300105973CF36CED75E080E090E00E9464
:10107000770D1092300110922F010FC080E060E0D8
:1010800040E020E00E94F80480912F01909130010F
:1010900001969093300180932F0180912F019091C0
:1010A000300105975CF36CED75E080E090E00E9404
:1010B000770D08951092300110922F0113C080E037
:1010C00063E00E94DD0480E060E040EF20E00E94E9
:1010D000F80480912F019091300101969093300196
:1010E00080932F0180912F019091300105973CF35F
:1010F0006CED75E080E090E00E94770D1092300179
:1011000010922F010FC080E060E040E020E00E94DC
:10111000F80480912F019091300101969093300155
:1011200080932F0180912F019091300105975CF3FE
:101130006CED75E080E090E00E94770D08951092CC
:10114000300110922F0113C080E063E00E94DD04A3
:1011500080E060EF40E020E00E94F80480912F01E1
:101160009091300101969093300180932F018091EE
:101170002F019091300105973CF36CED75E080E014
:1011800090E00E94770D1092300110922F010FC055
:1011900080E060E040E020E00E94F80480912F01B0
:1011A0009091300101969093300180932F018091AE
:1011B0002F019091300105975CF36CED75E080E0B4
:1011C00090E00E94770D08951092300110922F0147
:1011D00013C080E063E00E94DD0480E066EE46EE2E
:1011E00026EE0E94F80480912F0190913001019623
:1011F0009093300180932F0180912F0190913001C5
:1012000005973CF36CED75E080E090E00E94770D6F
:101210001092300110922F010FC080E060E040E09A
:1012200020E00E94F80480912F01909130010196F6
:101230009093300180932F0180912F019091300184
:1012400005975CF36CED75E080E090E00E94770D0F
:1012500008950E949F080E945A080E9415080E9443
:10126000D0070E948B070E9446070E94E408089559
:10127000AF92BF92CF92DF92EF92FF920F931F93A4
:101280008AE0E82EF12C012D112D64E670E080E05B
:1012900090E020EF30E040E050E00E94FD0DA62EEF
:1012A00064E670E080E090E020EF30E040E050E065
:1012B0000E94FD0DB62E64E670E080E090E020EF25
:1012C00030E040E050E00E94FD0DC62EDD24D394B6
:1012D0001092300110922F0113C08D2D62E00E94F8
:1012E000DD048D2D6A2D4B2D2C2D0E94F80480914C
:1012F0002F019091300101969093300180932F013E
:1013000080912F019091300105973CF3C801B701FE
:101310000E94770DD39484E6D816D1F60894E1089C
:10132000F10801091109E114F10409F0AECF1F9190
:101330000F91FF90EF90DF90CF90BF90AF90089506
:10134000BF92CF92DF92EF92FF920F931F93CF93B2
:10135000DF9364E670E080E090E020EF30E040E072
:1013600050E00E94FD0DB62E64E670E080E090E053
:1013700020EF30E040E050E00E94FD0DC62E64E614
:1013800070E080E090E020EF30E040E050E00E942C
:10139000FD0DD62E69E170E080E090E00E94770DAF
:1013A0000AE010E0F02EE12EC801EC0110923001AD
:1013B00010922F0113C08C2F68E20E94DD048C2F45
:1013C0006B2D4C2D2D2D0E94F80480912F019091B2
:1013D000300101969093300180932F0180912F016D
:1013E0009091300105973CF32896C436D105F4F26C
:1013F00069E170E080E090E00E94770D8F2D9E2DD6
:101400009C01E9011092300110922F0113C08C2F22
:101410006FE00E94DD048C2F60E040E020E00E943D
:10142000F80480912F019091300101969093300142
:1014300080932F0180912F019091300105973CF30B
:101440002896C436D105F4F20F5F1F4F0331110502
:1014500009F0A8CFDF91CF911F910F91FF90EF90EE
:10146000DF90CF90BF900895CF92DF92EF92FF92DE
:101470000F931F9364E670E080E090E020EF30E08F
:1014800040E050E00E94FD0DC62E64E670E080E072
:1014900090E020EF30E040E050E00E94FD0DD62EBD
:1014A00064E670E080E090E020EF30E040E050E063
:1014B0000E94FD0DE62E6BE470E080E090E00E945B
:1014C000770D23E1F22E0AE050C010923001109205
:1014D0002F0113C0812F64E10E94DD04812F6C2D48
:1014E0004D2D2E2D0E94F80480912F0190913001F6
:1014F00001969093300180932F0180912F0190915C
:10150000300105973CF31F5F1F15F9F66BE470E09F
:1015100080E090E00E94770D102F10923001109221
:101520002F0113C0812F65E00E94DD04812F60E050
:1015300040E020E00E94F80480912F01909130015A
:1015400001969093300180932F0180912F0190910B
:10155000300105973CF31F5F1F15F9F699E0F92E4E
:10156000F10E075F8DE6F81611F0102FAECF1F9128
:101570000F91FF90EF90DF90CF900895BF92CF92A0
:10158000DF92EF92FF920F931F93CF93DF9364E666
:1015900070E080E090E020EF30E040E050E00E941A
:1015A000FD0DB62E64E670E080E090E020EF30E0C4
:1015B00040E050E00E94FD0DC62E64E670E080E041
:1015C00090E020EF30E040E050E00E94FD0DD62E8C
:1015D0006BE470E080E090E00E94770D0AE010E09C
:1015E000F02EE12EC801EC011092300110922F0173
:1015F00013C08C2F64E10E94DD048C2F6B2D4C2DC9
:101600002D2D0E94F80480912F01909130010196B8
:101610009093300180932F0180912F0190913001A0
:1016200005973CF32996C436D105F4F26BE470E0DB
:1016300080E090E00E94770D8F2D9E2D9C01E901A6
:101640001092300110922F0113C08C2F65E00E9480
:10165000DD048C2F60E040E020E00E94F8048091DF
:101660002F019091300101969093300180932F01CA
:1016700080912F019091300105973CF32996C43653
:10168000D105F4F20F5F1F4F0331110509F0A8CF08
:10169000DF91CF911F910F91FF90EF90DF90CF904E
:1016A000BF900895DF92EF92FF920F931F93CF9315
:1016B000DF9364E670E080E090E020EF30E040E00F
:1016C00050E00E94FD0DD62E64E670E080E090E0D0
:1016D00020EF30E040E050E00E94FD0DE62E64E691
:1016E00070E080E090E020EF30E040E050E00E94C9
:1016F000FD0DF62E64EF71E080E090E00E94770D22
:101700000AE010E0E8011092300110922F0113C09E
:101710008C2F62E30E94DD048C2F6D2D4E2D2F2D1A
:101720000E94F80480912F019091300101969093CE
:10173000300180932F0180912F0190913001059706
:101740003CF36BE470E080E090E00E94770D109233
:10175000300110922F0113C08C2F63E00E94DD0432
:101760008C2F60E040E020E00E94F80480912F017F
:101770009091300101969093300180932F018091D8
:101780002F019091300105973CF32996C436D1057D
:101790000CF4B9CF0F5F1F4F0331110509F0B2CF21
:1017A000DF91CF911F910F91FF90EF90DF900895FF
:1017B000EF92FF920F931F9364E670E080E090E059
:1017C00020EF30E040E050E00E94FD0DE62E64E6A0
:1017D00070E080E090E020EF30E040E050E00E94D8
:1017E000FD0DF62E64E670E080E090E020EF30E042
:1017F00040E050E00E94FD0D062F64EF71E080E0B4
:1018000090E00E94770D1AE01092300110922F01A3
:1018100013C0812F62E30E94DD04812F6E2D4F2DB6
:10182000202F0E94F80480912F01909130010196A1
:101830009093300180932F0180912F01909130017E
:1018400005973CF36BE470E080E090E00E94770D38
:101850001092300110922F0113C0812F63E00E947B
:10186000DD04812F60E040E020E00E94F8048091D8
:101870002F019091300101969093300180932F01B8
:1018800080912F019091300105973CF31F5F143632
:1018900009F0BACF1F910F91FF90EF9008951F9319
:1018A00064E670E080E090E020EF30E040E050E05F
:1018B0000E94FD0D70932A016093290164E670E097
:1018C00080E090E020EF30E040E050E00E94FD0D2D
:1018D00070932E0160932D0164E670E080E090E04B
:1018E00020EF30E040E050E00E94FD0D70932C01AD
:1018F00060932B0164EF71E080E090E00E94770D2F
:101900001AE01092300110922F0112C0812F6091C5
:10191000290140912D0120912B010E9461048091A9
:101920002F019091300101969093300180932F0107
:1019300080912F0190913001059744F362E370E0AC
:1019400080E090E00E94770D1F5F1436D1F61AE018
:101950001092300110922F010FC0812F60E040E003
:1019600020E00E94610480912F0190913001019646
:101970009093300180932F0180912F01909130013D
:1019800005975CF362E370E080E090E00E94770DE1
:101990001F5F1436E9F61F9108950E944F0C0E94B4
:1019A000D80B0E94520B0E94340A0E94BE0A0E9469
:1019B000A0090E9438090E9429090E94350708954C
:1019C00086E191E00E942D0280E00E94110D0E94AC
:1019D0001B0E1092300110922F010FC080E060E0CA
:1019E00040E020E00E94610480912F01909130013D
:1019F00001969093300180932F0180912F01909157
:101A0000300105975CF36AEF70E080E090E00E949F
:101A1000770D08950E94A10D0E94E00C0E94CD0C4C
:101A2000FDCF8F7090910A019295990F990F907C3C
:101A3000982B90937C0080917A00806480937A0048
:101A400080917A0086FDFCCF20917800409179004A
:101A5000942F80E030E0282B392BC90108951F9284
:101A60000F920FB60F9211242F933F938F939F9352
:101A7000AF93BF938091350190913601A0913701CA
:101A8000B0913801309139010196A11DB11D232F6C
:101A90002D5F2D3720F02D570196A11DB11D2093EC
:101AA00039018093350190933601A0933701B093AB
:101AB00038018091310190913201A0913301B091B0
:101AC00034010196A11DB11D809331019093320123
:101AD000A0933301B0933401BF91AF919F918F9147
:101AE0003F912F910F900FBE0F901F901895EF927E
:101AF000FF920F931F937B018C018FB7F894409155
:101B000035015091360160913701709138018FBFD6
:101B10002FB7F8948091350190913601A09137014B
:101B2000B09138012FBF841B950BA60BB70BE8169D
:101B3000F9060A071B0760F71F910F91FF90EF90BE
:101B40000895789484B5826084BD84B5816084BD35
:101B500085B5826085BD85B5816085BDEEE6F0E026
:101B6000808181608083E1E8F0E080818260808311
:101B7000808181608083E0E8F0E080818160808303
:101B8000E1EBF0E0808184608083E0EBF0E0808135
:101B900081608083EAE7F0E08081846080838081D7
:101BA000826080838081816080838081806880837F
:101BB0001092C1000895EF92FF920F931F937B0143
:101BC0008C01611571058105910529F420E030E053
:101BD00040E050E00BC00E94D001A80197010E9494
:101BE000420EAC01CB01DA019C01AD01B901CA0181
:101BF0001F910F91FF90EF900895EF92FF920F9336
:101C00001F937B018C01621773078407950764F4A7
:101C1000261B370B480B590BCA01B9010E94DB0D7B
:101C2000E60EF71E081F191FB701C8011F910F917B
:101C3000FF90EF900895009729F0BC0180E090E0BC
:101C40000E94D5010895629FD001739FF001829F89
:101C5000E00DF11D649FE00DF11D929FF00D839F3B
:101C6000F00D749FF00D659FF00D9927729FB00DD8
:101C7000E11DF91F639FB00DE11DF91FBD01CF01EB
:101C80001124089597FB092E05260ED057FD04D088
:101C900014D00AD0001C38F4509540953095219509
:101CA0003F4F4F4F5F4F0895F6F790958095709591
:101CB00061957F4F8F4F9F4F0895A1E21A2EAA1B67
:101CC000BB1BFD010DC0AA1FBB1FEE1FFF1FA217EC
:101CD000B307E407F50720F0A21BB30BE40BF50BE9
:101CE000661F771F881F991F1A9469F76095709572
:101CF000809590959B01AC01BD01CF010895EE0F39
:101D0000FF1F0590F491E02D09942F923F924F927E
:101D10005F926F927F928F929F92AF92BF92CF927B
:101D2000DF92EF92FF920F931F93CF93DF93CDB784
:101D3000DEB7CA1BDB0B0FB6F894DEBF0FBECDBFFC
:101D400009942A88398848885F846E847D848C84CD
:101D50009B84AA84B984C884DF80EE80FD800C81D6
:101D60001B81AA81B981CE0FD11D0FB6F894DEBFB9
:0C1D70000FBECDBFED010895F894FFCF29
:0C1D7C0020003E010000010000000100FA
:00000001FF
