:100000000C9436000C945E000C945E000C945E0020
:100010000C945E000C945E000C945E000C945E00E8
:100020000C945E000C945E000C945E000C945E00D8
:100030000C945E000C945E000C945E000C945E00C8
:100040000C944C050C945E000C941A060C945E0003
:100050000C945E000C945E000C945E000C945E00A8
:100060000C94AF020C945E00F001630711241FBED4
:10007000CFEFD8E0DEBFCDBF11E0A0E0B1E0E8EF08
:10008000F2E102C005900D92A431B107D9F711E059
:10009000A4E1B1E001C01D92A53DB107E1F710E078
:1000A000CCE6D0E004C02297FE010E943F09C8368A
:1000B000D107C9F70E9445050C947A090C940000F9
:1000C0000F931F93CF93DF93689F8001699F100D5B
:1000D000789F100D1124C8010E947C00EC0100974C
:1000E00029F060E070E0A8010E94DF01CE01DF91FD
:1000F000CF911F910F910895CF93DF93BC01823070
:10010000910510F462E070E0A091D301B091D401A8
:10011000ED01E0E0F0E040E050E021C0888199810D
:100120008617970769F48A819B81309719F093832A
:10013000828304C09093D4018093D301FE0134C024
:100140006817790738F44115510519F08417950798
:1001500008F4AC01FE018A819B819C01E901209792
:10016000E9F641155105A9F1CA01861B970B0497C1
:1001700008F4BA01E0E0F0E02AC08D919C9111975B
:1001800084179507F9F46417750781F412968D9119
:100190009C911397309719F09383828304C09093B6
:1001A000D4018093D301FD0132964CC0CA01861B55
:1001B000970BFD01E80FF91F6193719302978D93DF
:1001C0009C9340C0FD01828193819C01D9011097CD
:1001D000A1F68091D1019091D201892B41F48091B7
:1001E0000201909103019093D2018093D10140913B
:1001F0000401509105014115510541F44DB75EB719
:100200008091000190910101481B590B2091D1016F
:100210003091D201CA01821B930B8617970780F099
:10022000AB014E5F5F4F8417950750F0420F531F8D
:100230005093D2014093D101F9016193719302C0AF
:10024000E0E0F0E0CF01DF91CF910895CF93DF930D
:10025000009709F450C0EC0122971B821A82A091EA
:10026000D301B091D401109709F140E050E0AC17F0
:10027000BD0708F1BB83AA83FE0121913191E20FF2
:10028000F31FAE17BF0779F48D919C911197280F3A
:10029000391F2E5F3F4F3983288312968D919C9191
:1002A00013979B838A834115510571F4D093D40130
:1002B000C093D30120C012968D919C911397AD01EC
:1002C000009711F0DC01D3CFFA01D383C2832191CF
:1002D0003191E20FF31FCE17DF0769F4888199810E
:1002E000280F391F2E5F3F4FFA01318320838A8107
:1002F0009B8193838283DF91CF910895A0E0B0E04A
:10030000E4E8F1E00C944B09EC01A880B980CA80C4
:10031000DB80A114B104C104D10441F484E2A82E0D
:1003200089EDB82E8BE5C82E87E0D82EC601B50121
:100330002DE133EF41E050E00E940E0927EA31E45D
:1003400040E050E00E94BA087B018C01C601B50173
:100350002DE133EF41E050E00E940E09CA01B901DE
:100360002CEE34EF4FEF5FEF0E94BA086E0D7F1D49
:10037000801F911F97FF04C06150704080409048DB
:10038000688379838A839B839B01AC015F77B90182
:10039000CA01CDB7DEB7EAE00C9467090E947E017E
:1003A000089586E091E00E947E0108956093060121
:1003B0007093070180930801909309010895DC016F
:1003C00001C06D9341505040E0F7089581E0809363
:1003D0001D016093180110921B0110921C010895D9
:1003E0000895DF93CF930F92CDB7DEB769838091E5
:1003F0001D018823A9F080911C018032B0F4809106
:100400001B01E0911901F0911A01E80FF11D6083C1
:1004100080911B018F5F80931B0180931C0105C09D
:10042000CE01019661E00E9492020F90CF91DF9180
:1004300008950E94F10108956091190170911A01C7
:100440008091180140911C0121E00E944D02109200
:100450001B0110921C0110921D01089580E290E092
:1004600061E070E00E946000809314019093150198
:10047000109216011092170180E290E061E070E0A6
:100480000E9460008093190190931A0110921B0141
:1004900010921C010E94310408951F93582F122FAF
:1004A000413210F081E03CC080911F018823E1F7C8
:1004B00082E080931F018FEF80933001109227011B
:1004C00040932801A0912501B0912601FB0102C0B3
:1004D00081918D938E2F861B8417D0F3852F90E00A
:1004E000880F991F8093200185EE8093BC00112313
:1004F00021F080911F018230E1F3809130018F3F24
:1005000011F480E00DC080913001803211F482E05E
:1005100007C080913001803311F084E001C083E096
:100520001F910895482F613210F081E00895809165
:100530001F01843011F082E0089560932C01A09196
:100540002901B0912A01842F9C01F90102C08191F7
:100550008D938E2F841B8617D0F380E008951F9211
:100560000F920FB60F9211242F933F934F935F93E7
:100570006F937F938F939F93AF93BF93EF93FF936B
:100580008091B90090E0887F90708036910509F4E1
:10059000E2C081369105CCF58832910509F47BC023
:1005A00089329105B4F48031910509F46FC081312D
:1005B00091053CF4009709F438C1089709F040C14F
:1005C00065C08831910509F466C0809709F038C18B
:1005D0007FC08034910509F4A3C08134910544F4AF
:1005E0008033910509F47FC0C89709F029C186C0FE
:1005F0008035910509F486C08835910509F495C0C8
:100600008834910509F01CC19EC08839910509F410
:1006100004C189399105ECF48837910509F49BC030
:10062000893791054CF48836910509F494C08037D8
:10063000910509F005C18FC08838910509F4EDC016
:100640008039910509F48DC08038910509F0F8C012
:1006500088C0803B910509F4B2C0813B91054CF400
:10066000803A910509F491C0883A910509F0E8C0F3
:10067000A6C0803C910509F4D4C0883C910509F4DA
:10068000D0C0883B910509F0DBC0B1C0809120014A
:100690008093BB00C0C090912701809128019817DA
:1006A00078F490912701E0912501F0912601E90F5E
:1006B000F11D80818093BB009F5F90932701ABC0A9
:1006C00085ED8093BC008091BC0084FDFCCFB6C05A
:1006D00080E28093300185ED8093BC008091BC0066
:1006E00084FDFCCFABC080E38093300185ED809327
:1006F000BC008091BC0084FDFCCFA0C088E3809347
:1007000030018FC0809127019091BB00E0912501BD
:10071000F0912601E80FF11D90838F5F80932701F0
:10072000909127018091280174C0809127019091B8
:10073000BB00E0912501F0912601E80FF11D9083A7
:100740008F5F8093270185ED8093BC008091BC0072
:1007500084FDFCCF73C083E080931F0110922F01B2
:100760005AC080912F01803208F057C080912F012C
:100770009091BB00E0912D01F0912E01E80FF11D49
:1007800090838F5F80932F0146C080912F0180322C
:1007900048F480912F01E0912D01F0912E01E80F96
:1007A000F11D108260912F01E0912301F09124014D
:1007B00080912D0190912E0170E0099532C084E066
:1007C00080931F0110922B0110922C01E0912101C6
:1007D000F0912201099580912C01882341F481E058
:1007E00080932C01E0912901F0912A0110829091CF
:1007F0002B01E0912901F0912A01E90FF11D80817F
:100800008093BB009F5F90932B0190912B0180916F
:100810002C01981710F485EC01C085E88093BC008A
:100820000FC085EC8093BC0009C01092300185EDAB
:100830008093BC008091BC0084FDFCCF10921F010E
:10084000FF91EF91BF91AF919F918F917F916F91A8
:100850005F914F913F912F910F900FBE0F901F907E
:10086000189510921F01449A459AE9EBF0E08081B7
:100870008E7F808380818D7F808388E48093B80021
:1008800085E48093BC0080E290E061E070E00E942B
:100890006000809325019093260180E290E061E062
:1008A00070E00E9460008093290190932A0180E209
:1008B00090E061E070E00E94600080932D019093D1
:1008C0002E010895FF920F931F93282FF62E0EE10D
:1008D00011E0C801622F0E94E601C80166E670E0DF
:1008E0000E941902C8016F2D0E94F101C8010E94E7
:1008F0001C021F910F91FF900895DF92EF92FF92DB
:100900000F931F93382FF62EE42ED22E0EE111E016
:10091000C801632F0E94E601C80163E670E00E94EF
:100920001902C8016F2D0E94F101C8016E2D0E94AD
:10093000F101C8016D2D0E94F101C8010E941C0245
:100940001F910F91FF90EF90DF900895AF92BF92AB
:10095000CF92DF92EF92FF920F931F93CF93DF938B
:100960006FEF70E080E090E00E94F805B62E6FEF28
:1009700070E080E090E00E94F8056B016FEF70E09E
:1009800080E090E00E94F805A62EC1E0D0E076015C
:100990000027F7FC0095102F8EEB91E0BE010E941E
:1009A000AA088C2F6B2D0E9462048C2F6B2D4C2D6E
:1009B0002A2D0E947D04C801B7010E9494058C2F46
:1009C00065E00E9462048C2F60E040E020E00E941D
:1009D0007D046FEF70E080E090E00E94F8050E94D7
:1009E00094052196C531D105B9F6DF91CF911F91BC
:1009F0000F91FF90EF90DF90CF90BF90AF90089550
:100A00000F931F9387B18C6087B94298439A64E62D
:100A100070E080E090E00E9494050EE111E0C801D2
:100A20000E942E028EEB91E040E05BE460E070E01B
:100A30000E945706C80160E00E94E601C8016FE607
:100A400070E00E941902C8010E941C0280E062E36B
:100A50000E946204C80160E00E94E601C8016EE6DF
:100A600070E00E941902C80160E00E94F101C80113
:100A700060E00E94F101C80160E00E94F101C8013C
:100A80000E941C021F910F9108950E94BE050E94B2
:100A900000050E94A604FDCF1F920F920FB60F9281
:100AA00011242F933F938F939F93AF93BF93809184
:100AB000350190913601A0913701B0913801309104
:100AC00039010196A11DB11D232F2D5F2D3720F077
:100AD0002D570196A11DB11D209339018093350139
:100AE00090933601A0933701B09338018091310182
:100AF00090913201A0913301B09134010196A11D72
:100B0000B11D8093310190933201A0933301B093D2
:100B10003401BF91AF919F918F913F912F910F9091
:100B20000FBE0F901F901895EF92FF920F931F9397
:100B30007B018C018FB7F8944091350150913601BB
:100B400060913701709138018FBF2FB7F894809171
:100B5000350190913601A0913701B09138012FBF36
:100B6000841B950BA60BB70BE816F9060A071B07A3
:100B700060F71F910F91FF90EF900895789484B5DE
:100B8000826084BD84B5816084BD85B5826085BD89
:100B900085B5816085BDEEE6F0E08081816080836F
:100BA000E1E8F0E0808182608083808181608083E1
:100BB000E0E8F0E0808181608083E1EBF0E080811B
:100BC00084608083E0EBF0E0808181608083EAE7ED
:100BD000F0E0808184608083808182608083808176
:100BE000816080838081806880831092C100089535
:100BF000EF92FF920F931F937B018C01611571059A
:100C00008105910529F420E030E040E050E00BC080
:100C10000E94D101A80197010E940E09AC01CB01ED
:100C2000DA019C01AD01B901CA011F910F91FF903A
:100C3000EF9008951F920F920FB60F9211242F93E9
:100C40003F934F935F936F937F938F939F93AF9354
:100C5000BF93EF93FF934091C600E091BA01F091EA
:100C6000BB01CF01019660E870E00E94D9089C01A9
:100C70008091BC019091BD012817390739F0E65CDD
:100C8000FE4F40833093BB012093BA01FF91EF9157
:100C9000BF91AF919F918F917F916F915F914F9194
:100CA0003F912F910F900FBE0F901F9018955F925C
:100CB0006F927F928F929F92AF92BF92CF92DF926C
:100CC000EF92FF920F931F93CF93DF93EC013A01C2
:100CD0004B01413482E458078FE0680780E07807D1
:100CE0000CF07FC060E874E88EE190E0A40193010D
:100CF0000E940E092150304040405040CA01B901C5
:100D000022E030E040E050E00E940E0959016A0103
:100D1000A6019501209530954095509594E0220FBD
:100D2000331F441F551F9A95D1F760E074E284EF9A
:100D300090E00E940E09CA01B9012FEF30E040E0B7
:100D400050E00E94BA08A40193010E940E09C90153
:100D500081509F4F181619061CF4522E5A9403C046
:100D600055245394521A60E079E08DE390E0A40199
:100D700093010E940E092150304040405040CA016A
:100D8000B90122E030E040E050E00E940E092095D9
:100D900030954095509583E0220F331F441F551F17
:100DA0008A95D1F760E074E284EF90E00E940E092A
:100DB000CA01B9012FEF30E040E050E00E94BA08CC
:100DC000A40193010E940E09C90181509F4F18167A
:100DD00019061CF4822F815002C081E0821B851508
:100DE00000F5E885F98581E090E00A8802C0880F67
:100DF000991F0A94E2F7808360E079E08DE390E048
:100E0000A40193010E940E092150304040405040FF
:100E1000CA01B90122E030E040E050E00E940E0932
:100E200004C0E885F98510829501EC81FD8130834D
:100E3000EE81FF812083EA85FB85208141E050E03F
:100E4000CA010E8402C0880F991F0A94E2F7282B6A
:100E50002083EA85FB852081CA010F8402C0880FA8
:100E6000991F0A94E2F7282B2083EA85FB8580816D
:100E7000088802C0440F551F0A94E2F7842B808330
:100E8000DF91CF911F910F91FF90EF90DF90CF9066
:100E9000BF90AF909F908F907F906F905F900895DC
:100EA000FC01A085B18521898C9190E0022E02C0C1
:100EB000959587950A94E2F780FFF6CF0484F5852F
:100EC000E02D608308958EE091E09093BF018093C0
:100ED000BE018AE391E09093C1018093C00185EC4B
:100EE00090E09093C3018093C20184EC90E09093D2
:100EF000C5018093C40180EC90E09093C70180937A
:100F0000C60181EC90E09093C9018093C80186EC02
:100F100090E09093CB018093CA0184E08093CC0150
:100F200083E08093CD0187E08093CE0185E08093BC
:100F3000CF0181E08093D00108950F931F93CF9349
:100F4000DF938C01EB0109C02196D801ED91FC9152
:100F50000190F081E02DC801099568816623A1F711
:100F6000DF91CF911F910F910895EF92FF920F9310
:100F70001F93CF93DF938C017B01EA010CC0D70153
:100F80006D917D01D801ED91FC910190F081E02DF2
:100F9000C80109952197209791F7DF91CF911F9173
:100FA0000F91FF90EF9008950F931F938C01DC0138
:100FB000ED91FC910190F081E02D6DE00995D80153
:100FC000ED91FC910190F081E02DC8016AE0099556
:100FD0001F910F9108952F923F924F925F926F92BF
:100FE0007F928F929F92AF92BF92CF92DF92EF92B9
:100FF000FF920F931F93DF93CF93CDB7DEB7A097E8
:101000000FB6F894DEBF0FBECDBF1C016A017B0195
:10101000411551056105710549F4DC01ED91FC9123
:101020000190F081E02D60E3099554C08824992453
:101030005401422E55246624772401E010E00C0F61
:101040001D1F080D191DC701B601A30192010E94C1
:10105000EC08F80160830894811C911CA11CB11C50
:10106000C701B601A30192010E94EC08C901DA018F
:101070006C017D01C114D104E104F104F1F681E0B9
:10108000E82EF12CEC0EFD1EE80CF91C3E01089434
:10109000611C711CD501C4010197A109B1096C0142
:1010A000C818D90814C0F601EE0DFF1D60816A3022
:1010B00010F4605D01C0695CD101ED91FC9101907B
:1010C000F081E02DC10109950894E108F1086E1442
:1010D0007F0449F7A0960FB6F894DEBF0FBECDBFD0
:1010E000CF91DF911F910F91FF90EF90DF90CF9004
:1010F000BF90AF909F908F907F906F905F904F9038
:101100003F902F900895EF92FF920F931F93CF93EC
:10111000DF93EC017A018B0177FF0FC0E881F98141
:101120000190F081E02D6DE2099510950095F09405
:10113000E094E11CF11C011D111DCE01B801A701B5
:101140002AE00E94EB07DF91CF911F910F91FF9052
:10115000EF9008950F931F938C01AB01662757FD05
:101160006095762F0E948308C8010E94D4071F91C2
:101170000F910895629FD001739FF001829FE00D4F
:10118000F11D649FE00DF11D929FF00D839FF00D06
:10119000749FF00D659FF00D9927729FB00DE11DB2
:1011A000F91F639FB00DE11DF91FBD01CF0111248F
:1011B000089597FB092E07260AD077FD04D049D061
:1011C00006D000201AF4709561957F4F0895F6F7C8
:1011D000909581959F4F0895A1E21A2EAA1BBB1BE3
:1011E000FD010DC0AA1FBB1FEE1FFF1FA217B307F3
:1011F000E407F50720F0A21BB30BE40BF50B661F09
:10120000771F881F991F1A9469F7609570958095CC
:1012100090959B01AC01BD01CF01089597FB092E6C
:1012200005260ED057FD04D0D7DF0AD0001C38F4B5
:1012300050954095309521953F4F4F4F5F4F089502
:10124000F6F790958095709561957F4F8F4F9F4FE2
:101250000895AA1BBB1B51E107C0AA1FBB1FA617FD
:10126000B70710F0A61BB70B881F991F5A95A9F74F
:1012700080959095BC01CD010895EE0FFF1F05905C
:10128000F491E02D09942F923F924F925F926F92CA
:101290007F928F929F92AF92BF92CF92DF92EF9206
:1012A000FF920F931F93CF93DF93CDB7DEB7CA1B87
:1012B000DB0B0FB6F894DEBF0FBECDBF09942A88B2
:1012C000398848885F846E847D848C849B84AA845A
:1012D000B984C884DF80EE80FD800C811B81AA81E7
:1012E000B981CE0FD11D0FB6F894DEBF0FBECDBFB2
:0812F000ED010895F894FFCF11
:1012F8002000D50100000100000000000000500798
:041308009D07B50781
:00000001FF
