:100000000C9435000C945D000C945D000C945D0024
:100010000C945D000C945D000C945D000C945D00EC
:100020000C945D000C945D000C945D000C945D00DC
:100030000C945D000C945D000C945D000C945D00CC
:100040000C94B6050C945D000C945D000C945D005E
:100050000C945D000C945D000C945D000C945D00AC
:100060000C94AE020C945D00EF0111241FBECFEF83
:10007000D8E0DEBFCDBF11E0A0E0B1E0EAE8FEE0ED
:1000800002C005900D92AC30B107D9F711E0ACE099
:10009000B1E001C01D92A833B107E1F710E0CAE654
:1000A000D0E004C02297FE010E940807C836D1079D
:1000B000C9F70E9491050C9443070C9400000F931C
:1000C0001F93CF93DF93689F8001699F100D789FE6
:1000D000100D1124C8010E947B00EC01009729F04B
:1000E00060E070E0A8010E94DE01CE01DF91CF91B7
:1000F0001F910F910895CF93DF93BC01823091053A
:1001000010F462E070E0A0913601B0913701ED018A
:10011000E0E0F0E040E050E021C08881998186175E
:10012000970769F48A819B81309719F093838283C2
:1001300004C09093370180933601FE0134C06817E4
:10014000790738F44115510519F08417950708F41B
:10015000AC01FE018A819B819C01E9012097E9F6AF
:1001600041155105A9F1CA01861B970B049708F4A4
:10017000BA01E0E0F0E02AC08D919C9111978417BC
:100180009507F9F46417750781F412968D919C9187
:100190001397309719F09383828304C090933701AB
:1001A00080933601FD0132964CC0CA01861B970B25
:1001B000FD01E80FF91F6193719302978D939C9352
:1001C00040C0FD01828193819C01D9011097A1F665
:1001D0008091340190913501892B41F48091020185
:1001E0009091030190933501809334014091040173
:1001F000509105014115510541F44DB75EB780910D
:10020000000190910101481B590B2091340130915C
:100210003501CA01821B930B8617970780F0AB014B
:100220004E5F5F4F8417950750F0420F531F509356
:10023000350140933401F9016193719302C0E0E00C
:10024000F0E0CF01DF91CF910895CF93DF93009736
:1002500009F450C0EC0122971B821A82A09136014A
:10026000B0913701109709F140E050E0AC17BD079D
:1002700008F1BB83AA83FE0121913191E20FF31FA4
:10028000AE17BF0779F48D919C911197280F391FF4
:100290002E5F3F4F3983288312968D919C9113973F
:1002A0009B838A834115510571F4D0933701C09324
:1002B000360120C012968D919C911397AD01009745
:1002C00011F0DC01D3CFFA01D383C28321913191A4
:1002D000E20FF31FCE17DF0769F488819981280F99
:1002E000391F2E5F3F4FFA01318320838A819B8122
:1002F00093838283DF91CF910895A0E0B0E0E3E89B
:10030000F1E00C941407EC01A880B980CA80DB806E
:10031000A114B104C104D10441F484E2A82E89EDF2
:10032000B82E8BE5C82E87E0D82EC601B5012DE189
:1003300033EF41E050E00E94EB0627EA31E440E071
:1003400050E00E94AA067B018C01C601B5012DE197
:1003500033EF41E050E00E94EB06CA01B9012CEEF8
:1003600034EF4FEF5FEF0E94AA066E0D7F1D801FD6
:10037000911F97FF04C0615070408040904868838F
:1003800079838A839B839B01AC015F77B901CA01A2
:10039000CDB7DEB7EAE00C9430070E947D010895E6
:1003A00086E091E00E947D010895609306017093BC
:1003B000070180930801909309010895DC0101C0B1
:1003C0006D9341505040E0F7089581E0809315010E
:1003D0006093100110921301109214010895089572
:1003E000DF93CF930F92CDB7DEB76983809115016C
:1003F0008823A9F0809114018032B0F48091130118
:10040000E0911101F0911201E80FF11D60838091DC
:1004100013018F5F809313018093140105C0CE01F7
:10042000019661E00E9491020F90CF91DF910895B3
:100430000E94F00108956091110170911201809164
:1004400010014091140121E00E944C02109213010E
:100450001092140110921501089580E290E061E07D
:1004600070E00E945F0080930C0190930D01109248
:100470000E0110920F0180E290E061E070E00E94B6
:100480005F0080931101909312011092130110925A
:1004900014010E94300408951F93582F122F4132E7
:1004A00010F081E03CC0809117018823E1F782E0E1
:1004B000809317018FEF8093280110921F014093C2
:1004C0002001A0911D01B0911E01FB0102C081918C
:1004D0008D938E2F861B8417D0F3852F90E0880F85
:1004E000991F8093180185EE8093BC00112321F0A1
:1004F000809117018230E1F3809128018F3F11F440
:1005000080E00DC080912801803211F482E007C0A4
:1005100080912801803311F084E001C083E01F91B5
:100520000895482F613210F081E0089580911701FD
:10053000843011F082E0089560932401A09121019C
:10054000B0912201842F9C01F90102C081918D9309
:100550008E2F841B8617D0F380E008951F920F9290
:100560000FB60F9211242F933F934F935F936F9386
:100570007F938F939F93AF93BF93EF93FF9380915C
:10058000B90090E0887F90708036910509F4E2C050
:1005900081369105CCF58832910509F47BC089320A
:1005A0009105B4F48031910509F46FC08131910552
:1005B0003CF4009709F438C1089709F040C165C0C0
:1005C0008831910509F466C0809709F038C17FC071
:1005D0008034910509F4A3C08134910544F480333B
:1005E000910509F47FC0C89709F029C186C08035FC
:1005F000910509F486C08835910509F495C08834C1
:10060000910509F01CC19EC08839910509F404C107
:1006100089399105ECF48837910509F49BC0893735
:1006200091054CF48836910509F494C08037910502
:1006300009F005C18FC08838910509F4EDC08039F3
:10064000910509F48DC08038910509F0F8C088C083
:10065000803B910509F4B2C0813B91054CF4803A8E
:10066000910509F491C0883A910509F0E8C0A6C047
:10067000803C910509F4D4C0883C910509F4D0C0B0
:10068000883B910509F0DBC0B1C0809118018093CF
:10069000BB00C0C090911F0180912001981778F491
:1006A00090911F01E0911D01F0911E01E90FF11DD4
:1006B00080818093BB009F5F90931F01ABC085ED4D
:1006C0008093BC008091BC0084FDFCCFB6C080E26A
:1006D0008093280185ED8093BC008091BC0084FD4F
:1006E000FCCFABC080E38093280185ED8093BC00F4
:1006F0008091BC0084FDFCCFA0C088E380932801DA
:100700008FC080911F019091BB00E0911D01F0917D
:100710001E01E80FF11D90838F5F80931F01909160
:100720001F018091200174C080911F019091BB0036
:10073000E0911D01F0911E01E80FF11D90838F5F84
:1007400080931F0185ED8093BC008091BC0084FDE7
:10075000FCCF73C083E080931701109227015AC029
:1007600080912701803208F057C080912701909135
:10077000BB00E0912501F0912601E80FF11D908367
:100780008F5F8093270146C080912701803248F413
:1007900080912701E0912501F0912601E80FF11DDC
:1007A000108260912701E0911B01F0911C01809162
:1007B00025019091260170E0099532C084E0809374
:1007C00017011092230110922401E0911901F09178
:1007D0001A01099580912401882341F481E08093D6
:1007E0002401E0912101F0912201108290912301D6
:1007F000E0912101F0912201E90FF11D80818093A8
:10080000BB009F5F9093230190912301809124016D
:10081000981710F485EC01C085E88093BC000FC0E8
:1008200085EC8093BC0009C01092280185ED80936F
:10083000BC008091BC0084FDFCCF10921701FF9199
:10084000EF91BF91AF919F918F917F916F915F9148
:100850004F913F912F910F900FBE0F901F901895C1
:1008600010921701449A459AE9EBF0E080818E7F5F
:10087000808380818D7F808388E48093B80085E4C5
:100880008093BC0080E290E061E070E00E945F0035
:1008900080931D0190931E0180E290E061E070E082
:1008A0000E945F00809321019093220180E290E0FA
:1008B00061E070E00E945F00809325019093260123
:1008C0000895DF92EF92FF920F931F93382FF62E29
:1008D000E42ED22E06E111E0C801632F0E94E5014B
:1008E000C8016EE670E00E941802C8016F2D0E94D8
:1008F000F001C8016E2D0E94F001C8016D2D0E940B
:10090000F001C8010E941B021F910F91FF90EF9010
:10091000DF900895FF920F931F93282FF62E06E184
:1009200011E0C801622F0E94E501C80166E670E08F
:100930000E941802C8016F2D0E94F001C8010E9498
:100940001B021F910F91FF900895DF92EF92FF928B
:100950000F931F93382FF62EE42ED22E06E111E0CE
:10096000C801632F0E94E501C80163E670E00E94A0
:100970001802C8016F2D0E94F001C8016E2D0E945F
:10098000F001C8016D2D0E94F001C8010E941B02F8
:100990001F910F91FF90EF90DF900895BF92CF923B
:1009A000DF92EF92FF920F931F93CF93DF9360E05C
:1009B00070E080E090E02FEF30E040E050E00E94F7
:1009C0008406B62E60E070E080E090E02FEF30E02B
:1009D00040E050E00E948406C62E60E070E080E0B7
:1009E00090E02FEF30E040E050E00E948406D62EE9
:1009F00069E170E080E090E00E94FE050AE010E00E
:100A0000F02EE12EC801EC0110922A01109229016A
:100A100013C08C2F68E20E948A048C2F6B2D4C2D02
:100A20002D2D0E94A5048091290190912A01019603
:100A300090932A01809329018091290190912A01A4
:100A40001816190634F72896C436D105ECF269E178
:100A500070E080E090E00E94FE058F2D9E2D9C01AD
:100A6000E90110922A011092290113C08C2F6FE026
:100A70000E948A048C2F60E040E020E00E94A504E0
:100A80008091290190912A01019690932A018093E7
:100A900029018091290190912A011816190634F72D
:100AA0002896C436D105ECF20F5F1F4F03311105B4
:100AB00009F0A6CFDF91CF911F910F91FF90EF909A
:100AC000DF90CF90BF90089586E191E00E942D02C3
:100AD000449A459A80E00E9498050E94A2061092CE
:100AE0002A01109229010FC080E060E040E020E080
:100AF0000E9461048091290190912A0101969093AE
:100B00002A01809329018091290190912A011816C8
:100B1000190654F76AEF70E080E090E00E94FE054D
:100B200008950E9428060E9464050E94CE04FDCF0D
:100B30008F7090910A019295990F990F907C982B44
:100B400090937C0080917A00806480937A008091F9
:100B50007A0086FDFCCF2091780040917900942F97
:100B600080E030E0282B392BC90108951F920F92A5
:100B70000FB60F9211242F933F938F939F93AF93B0
:100B8000BF9380912F0190913001A0913101B091DC
:100B90003201309133010196A11DB11D232F2D5F2C
:100BA0002D3720F02D570196A11DB11D2093330143
:100BB00080932F0190933001A0933101B0933201C3
:100BC00080912B0190912C01A0912D01B0912E01CB
:100BD0000196A11DB11D80932B0190932C01A09330
:100BE0002D01B0932E01BF91AF919F918F913F91B5
:100BF0002F910F900FBE0F901F901895EF92FF92BC
:100C00000F931F937B018C018FB7F89440912F01B4
:100C10005091300160913101709132018FBF2FB737
:100C2000F89480912F0190913001A0913101B09101
:100C300032012FBF841B950BA60BB70BE816F906E4
:100C40000A071B0760F71F910F91FF90EF9008951F
:100C5000789484B5826084BD84B5816084BD85B597
:100C6000826085BD85B5816085BDEEE6F0E080815E
:100C700081608083E1E8F0E0808182608083808110
:100C800081608083E0E8F0E0808181608083E1EB37
:100C9000F0E0808184608083E0EBF0E0808181601F
:100CA0008083EAE7F0E080818460808380818260D5
:100CB00080838081816080838081806880831092BE
:100CC000C1000895EF92FF920F931F937B018C0157
:100CD000611571058105910529F420E030E040E0BF
:100CE00050E00BC00E94D001A80197010E94EB06C2
:100CF000AC01CB01DA019C01AD01B901CA011F9120
:100D00000F91FF90EF900895EF92FF920F931F9332
:100D10007B018C01621773078407950764F4261B17
:100D2000370B480B590BCA01B9010E946206E60E47
:100D3000F71E081F191FB701C8011F910F91FF90DF
:100D4000EF900895009729F0BC0180E090E00E94A8
:100D5000D5010895629FD001739FF001829FE00D3D
:100D6000F11D649FE00DF11D929FF00D839FF00D2A
:100D7000749FF00D659FF00D9927729FB00DE11DD6
:100D8000F91F639FB00DE11DF91FBD01CF011124B3
:100D90000895A1E21A2EAA1BBB1BFD010DC0AA1FBC
:100DA000BB1FEE1FFF1FA217B307E407F50720F0D4
:100DB000A21BB30BE40BF50B661F771F881F991F4F
:100DC0001A9469F760957095809590959B01AC0198
:100DD000BD01CF01089597FB092E05260ED057FDC2
:100DE00004D0D7DF0AD0001C38F4509540953095D8
:100DF00021953F4F4F4F5F4F0895F6F7909580959F
:100E0000709561957F4F8F4F9F4F0895EE0FFF1F95
:100E10000590F491E02D09942F923F924F925F92AA
:100E20006F927F928F929F92AF92BF92CF92DF92FA
:100E3000EF92FF920F931F93CF93DF93CDB7DEB75F
:100E4000CA1BDB0B0FB6F894DEBF0FBECDBF0994F3
:100E50002A88398848885F846E847D848C849B844A
:100E6000AA84B984C884DF80EE80FD800C811B8158
:100E7000AA81B981CE0FD11D0FB6F894DEBF0FBE87
:0A0E8000CDBFED010895F894FFCFF7
:0C0E8A0020003801000001000000010001
:00000001FF
