:100000000C9463000C948B000C948B000C948B006C
:100010000C948B000C948B000C948B000C948B0034
:100020000C948B000C948B000C948B000C948B0024
:100030000C948B000C948B000C948B000C948B0014
:100040000C94D3020C948B000C94F0040C948B0051
:100050000C948B000C948B000C948B000C948B00F4
:100060000C948B000C948B000000000024002700EF
:100070002A0000000000250028002B0000000000DE
:1000800023002600290004040404040404040202DA
:100090000202020203030303030301020408102007
:1000A0004080010204081020010204081020000012
:1000B0000007000201000003040600000000000029
:1000C00000008D00390611241FBECFEFD8E0DEBF3F
:1000D000CDBF11E0A0E0B1E0ECEFFDE002C0059083
:1000E0000D92A836B107D9F712E0A8E6B1E001C039
:1000F0001D92AC37B107E1F710E0C6ECD0E004C0C8
:100100002297FE010E94F806C23CD107C9F70E945F
:10011000E8010C94FC060C9400008091430190913E
:1001200044019093DB018093DA010895AF92BF926E
:10013000CF92DF92EF92FF920F931F93CF93DF93B3
:100140000091D4011091D501000F111F00591E4FCD
:100150008091D6019091D701F80120813181821BD5
:10016000930B9093D7018093D6018091DA010E947E
:10017000EF01F801918380832091D4013091D50162
:10018000F901EE0FFF1FE059FE4F0190F081E02DC5
:100190008091D6019091D701E80FF91FF093D70114
:1001A000E093D6012F5F3F4F3093D5012093D401C8
:1001B0002233310524F01092D5011092D401CF01E1
:1001C00062E370E00E9492067093D9016093D801B7
:1001D000809143010E94EF0190936B0180936A012B
:1001E00090936D0180936C01F2E080309F0724F0C2
:1001F0009C012050324004C020E032E0281B390B23
:1002000030936F0120936E0100D000D06091D8012F
:100210007091D901882777FD8095982F2FEF30E0D6
:1002200040E050E0EDB7FEB721833283438354832F
:1002300020E032E040E050E0E12CE4E0FE2E012D31
:10024000112DAA24BB2465010E94A7040F900F90D2
:100250000F900F906F3F710519F014F06FEF70E081
:100260007B0177FF02C0EE24FF2489E692E060E084
:1002700071E00E94B60360916A0170916B0189E69A
:1002800092E00E949F0489E692E067E071E00E949C
:10029000B60360916C0170916D0189E692E00E9455
:1002A0009F0489E692E060E171E00E94B6036091EC
:1002B0006E0170916F0189E692E00E949F0489E6C9
:1002C00092E06EE171E00E94B6036091D8017091F6
:1002D000D90189E692E00E949F0489E692E069E2F2
:1002E00071E00E94B60389E692E0B7010E949F0484
:1002F00089E692E067E371E00E94B60301E511E050
:10030000C5E4D1E020916E0130916F01F801808148
:100310009181281739074CF08881B7010E940D029E
:1003200089E692E06FE371E009C0888160E070E0E7
:100330000E940D0289E692E061E471E00E94B6033A
:1003400060E070E080E090E00E941B030E5F1F4FB2
:100350002296F1E00D351F07A9F689E692E061E4E7
:1003600071E00E94D503DF91CF911F910F91FF9013
:10037000EF90DF90CF90BF90AF900895CF93DF9331
:10038000C5E4D1E0888161E00E946602229681E0A6
:10039000C135D807B9F78091680160E00E94660214
:1003A0008091430160E00E94660289E692E040E8A5
:1003B00055E260E070E00E942D05E0E7F1E0119267
:1003C000119281E0E43DF807D1F7DF91CF910895D4
:1003D0000E9445030E94BE010E949600FDCF8F70CF
:1003E00090915D019295990F990F907C982B909325
:1003F0007C0080917A00806480937A0080917A00FA
:1004000086FDFCCF2091780040917900942F80E008
:1004100030E0282B392BC90108951F93CF93DF9328
:10042000182FEB0161E00E946602E12FF0E0E25537
:10043000FF4F8491833051F48091800080688093D5
:100440008000D0938900C09388003CC0843051F470
:1004500080918000806280938000D0938B00C09355
:100460008A0030C0813039F4209729F184B5806842
:1004700084BDC7BD27C0823039F42097E1F084B530
:10048000806284BDC8BD1EC0863041F48091B0003A
:1004900080688093B000C093B30014C0873041F4EB
:1004A0008091B00080628093B000C093B4000AC015
:1004B000C038D1051CF4812F60E002C0812F61E0BB
:1004C0000E948602DF91CF911F910895282F30E07E
:1004D000C90186569F4FFC0194912A573F4FF9015D
:1004E0008491882391F0E82FF0E0EE0FFF1FE85988
:1004F000FF4FA591B491662329F48C91909589239F
:100500008C9308958C91892B8C930895482F50E0FB
:10051000CA0182559F4FFC012491CA0186569F4F04
:10052000FC0194914A575F4FFA0134913323D1F182
:10053000222331F1233021F4809180008F7705C090
:10054000243031F4809180008F7D8093800018C02A
:10055000213019F484B58F7704C0223021F484B59A
:100560008F7D84BD0DC0263021F48091B0008F773F
:1005700005C0273029F48091B0008F7D8093B000B2
:10058000E32FF0E0EE0FFF1FEE58FF4FA591B4915F
:10059000662329F48C91909589238C9308958C91EE
:1005A000892B8C9308951F920F920FB60F921124EE
:1005B0002F933F938F939F93AF93BF938091E001CD
:1005C0009091E101A091E201B091E3013091E40149
:1005D0000196A11DB11D232F2D5F2D3720F02D5722
:1005E0000196A11DB11D2093E4018093E001909339
:1005F000E101A093E201B093E3018091DC019091CD
:10060000DD01A091DE01B091DF010196A11DB11DB8
:100610008093DC019093DD01A093DE01B093DF01B4
:10062000BF91AF919F918F913F912F910F900FBEEE
:100630000F901F901895EF92FF920F931F937B01DD
:100640008C018FB7F8944091E0015091E1016091E5
:10065000E2017091E3018FBF2FB7F8948091E00120
:100660009091E101A091E201B091E3012FBF841BC1
:10067000950BA60BB70BE816F9060A071B0760F7E0
:100680001F910F91FF90EF900895789484B5826048
:1006900084BD84B5816084BD85B5826085BD85B526
:1006A000816085BDEEE6F0E0808181608083E1E8D5
:1006B000F0E0808182608083808181608083E0E8D7
:1006C000F0E0808181608083E1EBF0E080818460F4
:1006D0008083E0EBF0E0808181608083EAE7F0E0F6
:1006E000808184608083808182608083808181605A
:1006F00080838081806880831092C10008950F9369
:100700001F93CF93DF938C01EB0109C02196D80191
:10071000ED91FC910190F081E02DC801099568816F
:100720006623A1F7DF91CF911F910F910895EF926A
:10073000FF920F931F93CF93DF938C017B01EA010C
:100740000CC0D7016D917D01D801ED91FC91019014
:10075000F081E02DC80109952197209791F7DF914D
:10076000CF911F910F91FF90EF900895DC01ED91D3
:10077000FC910280F381E02D099508950F931F935A
:100780008C01DC01ED91FC910190F081E02D6DE098
:100790000995D801ED91FC910190F081E02DC801FF
:1007A0006AE009951F910F9108950F931F938C0193
:1007B0000E94B603C8010E94BE031F910F910895C5
:1007C0002F923F924F925F926F927F928F929F9261
:1007D000AF92BF92CF92DF92EF92FF920F931F934F
:1007E000DF93CF93CDB7DEB7A0970FB6F894DEBFF7
:1007F0000FBECDBF1C016A017B014115510561058A
:10080000710549F4DC01ED91FC910190F081E02D3E
:1008100060E3099554C0882499245401422E55243C
:100820006624772401E010E00C0F1D1F080D191D30
:10083000C701B601A30192010E94A506F8016083D9
:100840000894811C911CA11CB11CC701B601A30115
:1008500092010E94A506C901DA016C017D01C11453
:10086000D104E104F104F1F681E0E82EF12CEC0E64
:10087000FD1EE80CF91C3E010894611C711CD50199
:10088000C4010197A109B1096C01C818D90814C0A5
:10089000F601EE0DFF1D60816A3010F4605D01C04D
:1008A000695CD101ED91FC910190F081E02DC101D5
:1008B00009950894E108F1086E147F0449F7A096A1
:1008C0000FB6F894DEBF0FBECDBFCF91DF911F9161
:1008D0000F91FF90EF90DF90CF90BF90AF909F90DF
:1008E0008F907F906F905F904F903F902F900895E2
:1008F000EF92FF920F931F93CF93DF93EC017A0156
:100900008B0177FF0FC0E881F9810190F081E02D24
:100910006DE2099510950095F094E094E11CF11CAE
:10092000011D111DCE01B801A7012AE00E94E003BC
:10093000DF91CF911F910F91FF90EF900895AB0140
:10094000662757FD6095762F0E94780408952F92B0
:100950003F924F925F926F927F928F929F92AF924F
:10096000BF92CF92DF92EF92FF920F931F93DF938C
:10097000CF93CDB7DEB73B014C0119012A016D8938
:100980007E898F89988D6A197B098C099D09621A65
:10099000730A840A950AA40193010E947306E2185F
:1009A000F30804091509A80197010E94C7062A0D3A
:1009B0003B1D4C1D5D1DB901CA01CF91DF911F91F7
:1009C0000F91FF90EF90DF90CF90BF90AF909F90EE
:1009D0008F907F906F905F904F903F902F900895F1
:1009E0001F920F920FB60F9211242F933F934F93A4
:1009F0005F936F937F938F939F93AF93BF93EF9387
:100A0000FF934091C600E0916502F0916602CF012C
:100A1000019660E870E00E9492069C018091670256
:100A2000909168022817390739F0EB51FE4F408347
:100A30003093660220936502FF91EF91BF91AF91D1
:100A40009F918F917F916F915F914F913F912F91E6
:100A50000F900FBE0F901F9018955F926F927F922C
:100A60008F929F92AF92BF92CF92DF92EF92FF92BE
:100A70000F931F93CF93DF93EC013A014B01413465
:100A800082E458078FE0680780E078070CF07FC0A9
:100A900060E874E88EE190E0A40193010E94C7062B
:100AA0002150304040405040CA01B90122E030E0BE
:100AB00040E050E00E94C70659016A01A601950175
:100AC000209530954095509594E0220F331F441F98
:100AD000551F9A95D1F760E074E284EF90E00E9490
:100AE000C706CA01B9012FEF30E040E050E00E9494
:100AF0007306A40193010E94C706C90181509F4F4C
:100B0000181619061CF4522E5A9403C055245394F7
:100B1000521A60E079E08DE390E0A40193010E9415
:100B2000C7062150304040405040CA01B90122E080
:100B300030E040E050E00E94C70620953095409597
:100B4000509583E0220F331F441F551F8A95D1F71C
:100B500060E074E284EF90E00E94C706CA01B90128
:100B60002FEF30E040E050E00E947306A4019301B3
:100B70000E94C706C90181509F4F181619061CF420
:100B8000822F815002C081E0821B851500F5E88527
:100B9000F98581E090E00A8802C0880F991F0A94C5
:100BA000E2F7808360E079E08DE390E0A4019301B7
:100BB0000E94C7062150304040405040CA01B90150
:100BC00022E030E040E050E00E94C70604C0E88523
:100BD000F98510829501EC81FD813083EE81FF81E2
:100BE0002083EA85FB85208141E050E0CA010E8424
:100BF00002C0880F991F0A94E2F7282B2083EA8508
:100C0000FB852081CA010F8402C0880F991F0A94B6
:100C1000E2F7282B2083EA85FB858081088802C0C3
:100C2000440F551F0A94E2F7842B8083DF91CF9104
:100C30001F910F91FF90EF90DF90CF90BF90AF90FA
:100C40009F908F907F906F905F900895FC01A0859A
:100C5000B18521898C9190E0022E02C095958795EF
:100C60000A94E2F780FFF6CF0484F585E02D6083D7
:100C7000089582E691E090936A028093690285EE7E
:100C800091E090936C0280936B0285EC90E09093DE
:100C90006E0280936D0284EC90E0909370028093DA
:100CA0006F0280EC90E0909372028093710281EC6D
:100CB00090E0909374028093730286EC90E090939E
:100CC00076028093750284E08093770283E08093BC
:100CD000780287E08093790285E080937A0281E050
:100CE00080937B020895629FD001739FF001829FE1
:100CF000E00DF11D649FE00DF11D929FF00D839FAB
:100D0000F00D749FF00D659FF00D9927729FB00D47
:100D1000E11DF91F639FB00DE11DF91FBD01CF015A
:100D20001124089597FB092E07260AD077FD04D0D9
:100D300049D006D000201AF4709561957F4F089530
:100D4000F6F7909581959F4F0895A1E21A2EAA1B60
:100D5000BB1BFD010DC0AA1FBB1FEE1FFF1FA2176B
:100D6000B307E407F50720F0A21BB30BE40BF50B68
:100D7000661F771F881F991F1A9469F760957095F1
:100D8000809590959B01AC01BD01CF01089597FB23
:100D9000092E05260ED057FD04D0D7DF0AD0001C3F
:100DA00038F450954095309521953F4F4F4F5F4F08
:100DB0000895F6F790958095709561957F4F8F4FC8
:100DC0009F4F0895AA1BBB1B51E107C0AA1FBB1F61
:100DD000A617B70710F0A61BB70B881F991F5A95C7
:100DE000A9F780959095BC01CD010895EE0FFF1FE6
:0C0DF0000590F491E02D0994F894FFCFD9
:100DFC002056696E3A2000204C6576656C3A2000CE
:100E0C0020436C65616E4C6576656C3A2000206100
:100E1C007665726167653A200020436C65616E4CA3
:100E2C00696768743A2000202F2056553A20004FED
:100E3C00002000020003000500060009000A000B58
:100E4C0000320064008200E1002C01680101000006
:080E5C00000026067F03970346
:00000001FF
