:100000000C9462000C948A000C948A000C948A0070
:100010000C948A000C948A000C948A000C948A0038
:100020000C948A000C948A000C948A000C948A0028
:100030000C948A000C948A000C948A000C948A0018
:100040000C94CE010C948A000C947A020C948A00D1
:100050000C948A000C948A000C948A000C948A00F8
:100060000C948A000C948A000000000024002700F1
:100070002A0000000000250028002B0000000000DE
:1000800023002600290004040404040404040202DA
:100090000202020203030303030301020408102007
:1000A0004080010204081020010204081020000012
:1000B0000007000201000003040600000000000029
:1000C0000000C30311241FBECFEFD8E0DEBFCDBFB9
:1000D00011E0A0E0B1E0E2EDF9E002C005900D9280
:1000E000A634B107D9F711E0A6E4B1E001C01D9232
:1000F000A63EB107E1F710E0C4ECD0E004C02297BF
:10010000FE010E94E304C23CD107C9F70E940B0123
:100110000C94E7040C940000CF93DF93C0E0D0E090
:1001200082E060E00E94320183ED91E060E071E0E6
:100130000E94340462E370E080E090E00E941602C6
:1001400082E061E00E94320183ED91E063E071E0C2
:100150000E94340462E370E080E090E00E941602A6
:100160002196C530D105E1F6DF91CF91089584E065
:100170000E947F010197D9F783E061E00E9432017C
:1001800083ED91E067E071E00E9453046AE070E063
:1001900080E090E00E9416020E948C006AEF70E0FE
:1001A00080E090E00E94160283E060E00E9432014D
:1001B00083ED91E062E171E00E94530408950F9392
:1001C0001F9303ED11E0C80140E855E260E070E0E4
:1001D0000E94B702C8016EE171E00E94530482E000
:1001E00061E00E94120183E061E00E94120184E05C
:1001F00060E00E94120182E061E00E94320183E02F
:1002000060E00E943201C80165E271E00E9453047F
:100210001F910F9108950E9440020E94DF000E94EA
:10022000B700FDCF282F30E0C90186569F4FFC0153
:1002300094912A573F4FF9018491882391F0E82F38
:10024000F0E0EE0FFF1FE859FF4FA591B491662330
:1002500029F48C91909589238C9308958C91892B06
:100260008C930895482F50E0CA0182559F4FFC019E
:100270002491CA0186569F4FFC0194914A575F4FC3
:10028000FA0134913323D1F1222331F1233021F4C7
:10029000809180008F7705C0243031F480918000F8
:1002A0008F7D8093800018C0213019F484B58F773A
:1002B00004C0223021F484B58F7D84BD0DC026306A
:1002C00021F48091B0008F7705C0273029F4809108
:1002D000B0008F7D8093B000E32FF0E0EE0FFF1FA2
:1002E000EE58FF4FA591B491662329F48C91909517
:1002F00089238C9308958C91892B8C930895682F72
:1003000070E0CB0182559F4FFC012491CB018656B2
:100310009F4FFC0144916A577F4FFB0194919923B1
:1003200019F420E030E038C0222331F1233021F4E9
:10033000809180008F7705C0243031F48091800057
:100340008F7D8093800018C0213019F484B58F7799
:1003500004C0223021F484B58F7D84BD0DC02630C9
:1003600021F48091B0008F7705C0273029F4809167
:10037000B0008F7D8093B000892F90E0880F991F87
:1003800084589F4FFC01A591B4918C9120E030E0FE
:10039000842311F021E030E0C90108951F920F92EB
:1003A0000FB60F9211242F933F938F939F93AF9388
:1003B000BF9380914A0190914B01A0914C01B09163
:1003C0004D0130914E010196A11DB11D232F2D5FCE
:1003D0002D3720F02D570196A11DB11D20934E0100
:1003E00080934A0190934B01A0934C01B0934D012F
:1003F0008091460190914701A0914801B091490137
:100400000196A11DB11D8093460190934701A093D1
:100410004801B0934901BF91AF919F918F913F9156
:100420002F910F900FBE0F901F901895EF92FF9293
:100430000F931F937B018C018FB7F89440914A0171
:1004400050914B0160914C0170914D018FBF2FB7BE
:10045000F89480914A0190914B01A0914C01B09188
:100460004D012FBF841B950BA60BB70BE816F906A1
:100470000A071B0760F71F910F91FF90EF900895F7
:10048000789484B5826084BD84B5816084BD85B56F
:10049000826085BD85B5816085BDEEE6F0E0808136
:1004A00081608083E1E8F0E08081826080838081E8
:1004B00081608083E0E8F0E0808181608083E1EB0F
:1004C000F0E0808184608083E0EBF0E080818160F7
:1004D0008083EAE7F0E080818460808380818260AD
:1004E0008083808181608083808180688083109296
:1004F000C10008951F920F920FB60F9211242F93EF
:100500003F934F935F936F937F938F939F93AF939B
:10051000BF93EF93FF934091C600E091CF01F0911C
:10052000D001CF01019660E870E00E947D049C013B
:100530008091D1019091D2012817390739F0E15B00
:10054000FE4F40833093D0012093CF01FF91EF9174
:10055000BF91AF919F918F917F916F915F914F91DB
:100560003F912F910F900FBE0F901F9018955F92A3
:100570006F927F928F929F92AF92BF92CF92DF92B3
:10058000EF92FF920F931F93CF93DF93EC013A0109
:100590004B01413482E458078FE0680780E0780718
:1005A0000CF07FC060E874E88EE190E0A401930154
:1005B0000E94B2042150304040405040CA01B9016D
:1005C00022E030E040E050E00E94B20459016A01AC
:1005D000A6019501209530954095509594E0220F05
:1005E000331F441F551F9A95D1F760E074E284EFE2
:1005F00090E00E94B204CA01B9012FEF30E040E060
:1006000050E00E945E04A40193010E94B204C9015B
:1006100081509F4F181619061CF4522E5A9403C08D
:1006200055245394521A60E079E08DE390E0A401E0
:1006300093010E94B2042150304040405040CA0112
:10064000B90122E030E040E050E00E94B204209581
:1006500030954095509583E0220F331F441F551F5E
:100660008A95D1F760E074E284EF90E00E94B204D2
:10067000CA01B9012FEF30E040E050E00E945E0473
:10068000A40193010E94B204C90181509F4F181622
:1006900019061CF4822F815002C081E0821B85154F
:1006A00000F5E885F98581E090E00A8802C0880FAE
:1006B000991F0A94E2F7808360E079E08DE390E08F
:1006C000A40193010E94B2042150304040405040A8
:1006D000CA01B90122E030E040E050E00E94B204DB
:1006E00004C0E885F98510829501EC81FD81308395
:1006F000EE81FF812083EA85FB85208141E050E087
:10070000CA010E8402C0880F991F0A94E2F7282BB1
:100710002083EA85FB852081CA010F8402C0880FEF
:10072000991F0A94E2F7282B2083EA85FB858081B4
:10073000088802C0440F551F0A94E2F7842B808377
:10074000DF91CF911F910F91FF90EF90DF90CF90AD
:10075000BF90AF909F908F907F906F905F90089523
:10076000FC01A085B18521898C9190E0022E02C008
:10077000959587950A94E2F780FFF6CF0484F58576
:10078000E02D6083089580E491E09093D4018093FC
:10079000D3018FE491E09093D6018093D50185EC4D
:1007A00090E09093D8018093D70184EC90E09093EF
:1007B000DA018093D90180EC90E09093DC01809382
:1007C000DB0181EC90E09093DE018093DD0186EC0B
:1007D00090E09093E0018093DF0184E08093E10159
:1007E00083E08093E20187E08093E30185E08093DA
:1007F000E40181E08093E50108950F931F93CF9367
:10080000DF938C01EB0109C02196D801ED91FC9199
:100810000190F081E02DC801099568816623A1F758
:10082000DF91CF911F910F910895EF92FF920F9357
:100830001F93CF93DF938C017B01EA010CC0D7019A
:100840006D917D01D801ED91FC910190F081E02D39
:10085000C80109952197209791F7DF91CF911F91BA
:100860000F91FF90EF900895DC01ED91FC910280D3
:10087000F381E02D099508950F931F938C01DC01FE
:10088000ED91FC910190F081E02D6DE00995D8018A
:10089000ED91FC910190F081E02DC8016AE009958D
:1008A0001F910F9108950F931F938C010E943404A0
:1008B000C8010E943C041F910F910895629FD001CE
:1008C000739FF001829FE00DF11D649FE00DF11D0B
:1008D000929FF00D839FF00D749FF00D659FF00DBA
:1008E0009927729FB00DE11DF91F639FB00DE11DA7
:1008F000F91FBD01CF011124089597FB092E07268A
:100900000AD077FD04D049D006D000201AF47095A3
:1009100061957F4F0895F6F7909581959F4F0895C3
:10092000A1E21A2EAA1BBB1BFD010DC0AA1FBB1FF3
:10093000EE1FFF1FA217B307E407F50720F0A21B65
:10094000B30BE40BF50B661F771F881F991F1A94D2
:1009500069F760957095809590959B01AC01BD01FC
:10096000CF01089597FB092E05260ED057FD04D020
:10097000D7DF0AD0001C38F450954095309521956A
:100980003F4F4F4F5F4F0895F6F7909580957095C4
:1009900061957F4F8F4F9F4F0895AA1BBB1B51E15D
:1009A00007C0AA1FBB1FA617B70710F0A61BB70BDF
:1009B000881F991F5A95A9F780959095BC01CD0184
:1009C0000895EE0FFF1F0590F491E02D0994F8941F
:0209D000FFCF57
:1009D2006469006E67200052696E676572206F6EEF
:1009E200210052696E676572206F666621004C694C
:1009F20073746F2100524D204C4F57204C4F57209B
:100A02004C4F57204C4F57204C4F570000000000CE
:060A1200B003FD03150412
:00000001FF
