:100000000C9462000C948A000C948A000C948A0070
:100010000C948A000C948A000C948A000C948A0038
:100020000C948A000C948A000C948A000C948A0028
:100030000C948A000C948A000C948A000C948A0018
:100040000C9402020C948A000C94AE020C948A0068
:100050000C948A000C948A000C948A000C948A00F8
:100060000C948A000C948A000000000024002700F1
:100070002A0000000000250028002B0000000000DE
:1000800023002600290004040404040404040202DA
:100090000202020203030303030301020408102007
:1000A0004080010204081020010204081020000012
:1000B0000007000201000003040600000000000029
:1000C0000000F70311241FBECFEFD8E0DEBFCDBF85
:1000D00011E0A0E0B1E0E8EEFBE002C005900D9277
:1000E000AE34B107D9F711E0AEE4B1E001C01D9222
:1000F000AE3EB107E1F710E0C4ECD0E004C02297B7
:10010000FE010E94EE05C23CD107C9F70E94210101
:100110000C94F2050C940000CF93DF93C0E0D0E084
:1001200082E060E00E9448018BED91E060E071E0C8
:100130000E94680462E370E080E090E00E944A025E
:1001400082E061E00E9448018BED91E063E071E0A4
:100150000E94680462E370E080E090E00E944A023E
:100160002196C530D105E1F6DF91CF91089584E065
:100170000E9495010197D9F783E061E00E94480150
:100180008BED91E067E071E00E9487046AE070E027
:1001900080E090E00E944A020E948C006AEF70E0CA
:1001A00080E090E00E944A0283E060E00E94480103
:1001B0008BED91E062E171E00E94870482E00E9491
:1001C000E401BC018BED91E00E9451058BED91E0C3
:1001D0006EE171E00E94680483E00E94E401BC01CA
:1001E0008BED91E00E94590508950F931F930BED3D
:1001F00011E0C80140E855E260E070E00E94EB02C7
:10020000C80164E271E00E94870482E061E00E941C
:10021000280183E061E00E94280184E060E00E9400
:10022000280182E061E00E94480183E060E00E94D2
:100230004801C8016BE271E00E9487041F910F9191
:1002400008950E9474020E94F5000E94B700FDCF3D
:10025000282F30E0C90186569F4FFC0194912A5700
:100260003F4FF9018491882391F0E82FF0E0EE0FE1
:10027000FF1FE859FF4FA591B491662329F48C9193
:10028000909589238C9308958C91892B8C93089554
:10029000482F50E0CA0182559F4FFC012491CA01AA
:1002A00086569F4FFC0194914A575F4FFA01349153
:1002B0003323D1F1222331F1233021F480918000C6
:1002C0008F7705C0243031F4809180008F7D80933A
:1002D000800018C0213019F484B58F7704C0223013
:1002E00021F484B58F7D84BD0DC0263021F480912A
:1002F000B0008F7705C0273029F48091B0008F7D42
:100300008093B000E32FF0E0EE0FFF1FEE58FF4F99
:10031000A591B491662329F48C91909589238C93AF
:1003200008958C91892B8C930895682F70E0CB01F0
:1003300082559F4FFC012491CB0186569F4FFC01B3
:1003400044916A577F4FFB019491992319F420E05F
:1003500030E038C0222331F1233021F48091800035
:100360008F7705C0243031F4809180008F7D809399
:10037000800018C0213019F484B58F7704C0223072
:1003800021F484B58F7D84BD0DC0263021F4809189
:10039000B0008F7705C0273029F48091B0008F7DA1
:1003A0008093B000892F90E0880F991F84589F4F49
:1003B000FC01A591B4918C9120E030E0842311F0F0
:1003C00021E030E0C90108958F709091420192952B
:1003D000990F990F907C982B90937C0080917A00D4
:1003E000806480937A0080917A0086FDFCCF209112
:1003F000780040917900942F80E030E0282B392B51
:10040000C90108951F920F920FB60F9211242F93D6
:100410003F938F939F93AF93BF938091520190919D
:100420005301A0915401B0915501309156010196AC
:10043000A11DB11D232F2D5F2D3720F02D570196C3
:10044000A11DB11D20935601809352019093530139
:10045000A0935401B093550180914E0190914F01AA
:10046000A0915001B09151010196A11DB11D809341
:100470004E0190934F01A0935001B0935101BF9151
:10048000AF919F918F913F912F910F900FBE0F9041
:100490001F901895EF92FF920F931F937B018C0191
:1004A0008FB7F894409152015091530160915401DB
:1004B000709155018FBF2FB7F894809152019091A0
:1004C0005301A0915401B09155012FBF841B950B8E
:1004D000A60BB70BE816F9060A071B0760F71F9172
:1004E0000F91FF90EF900895789484B5826084BD59
:1004F00084B5816084BD85B5826085BD85B5816028
:1005000085BDEEE6F0E0808181608083E1E8F0E087
:10051000808182608083808181608083E0E8F0E078
:10052000808181608083E1EBF0E080818460808362
:10053000E0EBF0E0808181608083EAE7F0E0808199
:1005400084608083808182608083808181608083F9
:100550008081806880831092C10008951F920F925D
:100560000FB60F9211242F933F934F935F936F9386
:100570007F938F939F93AF93BF93EF93FF9340919C
:10058000C600E091D701F091D801CF01019660E853
:1005900070E00E9488059C018091D9019091DA0158
:1005A0002817390739F0E95AFE4F40833093D801B4
:1005B0002093D701FF91EF91BF91AF919F918F91C0
:1005C0007F916F915F914F913F912F910F900FBE4F
:1005D0000F901F9018955F926F927F928F929F92CB
:1005E000AF92BF92CF92DF92EF92FF920F931F9341
:1005F000CF93DF93EC013A014B01413482E4580779
:100600008FE0680780E078070CF07FC060E874E84E
:100610008EE190E0A40193010E94BD05215030407D
:1006200040405040CA01B90122E030E040E050E0D3
:100630000E94BD0559016A01A601950120953095DA
:100640004095509594E0220F331F441F551F9A95F3
:10065000D1F760E074E284EF90E00E94BD05CA012A
:10066000B9012FEF30E040E050E00E946905A4019D
:1006700093010E94BD05C90181509F4F18161906AC
:100680001CF4522E5A9403C055245394521A60E01D
:1006900079E08DE390E0A40193010E94BD05215013
:1006A000304040405040CA01B90122E030E040E013
:1006B00050E00E94BD05209530954095509583E00F
:1006C000220F331F441F551F8A95D1F760E074E253
:1006D00084EF90E00E94BD05CA01B9012FEF30E020
:1006E00040E050E00E946905A40193010E94BD050D
:1006F000C90181509F4F181619061CF4822F815092
:1007000002C081E0821B851500F5E885F98581E04E
:1007100090E00A8802C0880F991F0A94E2F780834C
:1007200060E079E08DE390E0A40193010E94BD05B3
:100730002150304040405040CA01B90122E030E031
:1007400040E050E00E94BD0504C0E885F9851082B4
:100750009501EC81FD813083EE81FF812083EA8564
:10076000FB85208141E050E0CA010E8402C0880F61
:10077000991F0A94E2F7282B2083EA85FB852081C4
:10078000CA010F8402C0880F991F0A94E2F7282B30
:100790002083EA85FB858081088802C0440F551FAD
:1007A0000A94E2F7842B8083DF91CF911F910F9100
:1007B000FF90EF90DF90CF90BF90AF909F908F9081
:1007C0007F906F905F900895FC01A085B18521898D
:1007D0008C9190E0022E02C0959587950A94E2F7DD
:1007E00080FFF6CF0484F585E02D6083089587E4CB
:1007F00091E09093DC018093DB0187E591E0909399
:10080000DE018093DD0185EC90E09093E001809320
:10081000DF0184EC90E09093E2018093E10180ECB1
:1008200090E09093E4018093E30181EC90E0909359
:10083000E6018093E50186EC90E09093E8018093D7
:10084000E70184E08093E90183E08093EA0187E097
:100850008093EB0185E08093EC0181E08093ED01D2
:1008600008950F931F93CF93DF938C01EB0109C081
:100870002196D801ED91FC910190F081E02DC80105
:10088000099568816623A1F7DF91CF911F910F91A0
:100890000895EF92FF920F931F93CF93DF938C01F4
:1008A0007B01EA010CC0D7016D917D01D801ED916A
:1008B000FC910190F081E02DC801099521972097C6
:1008C00091F7DF91CF911F910F91FF90EF900895D5
:1008D000DC01ED91FC910280F381E02D09950895F2
:1008E0000F931F938C01DC01ED91FC910190F0813D
:1008F000E02D6DE00995D801ED91FC910190F0811A
:10090000E02DC8016AE009951F910F9108950F939A
:100910001F938C010E946804C8010E9470041F91FB
:100920000F9108952F923F924F925F926F927F9214
:100930008F929F92AF92BF92CF92DF92EF92FF92EF
:100940000F931F93DF93CF93CDB7DEB7A0970FB66A
:10095000F894DEBF0FBECDBF1C016A017B014115BB
:1009600051056105710549F4DC01ED91FC9101909F
:10097000F081E02D60E3099554C088249924540146
:10098000422E55246624772401E010E00C0F1D1F31
:10099000080D191DC701B601A30192010E949B0514
:1009A000F80160830894811C911CA11CB11CC70133
:1009B000B601A30192010E949B05C901DA016C01F5
:1009C0007D01C114D104E104F104F1F681E0E82EC7
:1009D000F12CEC0EFD1EE80CF91C3E010894611C84
:1009E000711CD501C4010197A109B1096C01C81896
:1009F000D90814C0F601EE0DFF1D60816A3010F4B5
:100A0000605D01C0695CD101ED91FC910190F081C4
:100A1000E02DC10109950894E108F1086E147F04E6
:100A200049F7A0960FB6F894DEBF0FBECDBFCF91A9
:100A3000DF911F910F91FF90EF90DF90CF90BF90CB
:100A4000AF909F908F907F906F905F904F903F906E
:100A50002F900895EF92FF920F931F93CF93DF9300
:100A6000EC017A018B0177FF0FC0E881F9810190D9
:100A7000F081E02D6DE2099510950095F094E094D9
:100A8000E11CF11C011D111DCE01B801A7012AE0D6
:100A90000E949204DF91CF911F910F91FF90EF90F0
:100AA0000895AB01662757FD6095762F0E942A05B1
:100AB00008950F931F938C01AB01662757FD609536
:100AC000762F0E942A05C8010E9470041F910F9181
:100AD0000895629FD001739FF001829FE00DF11D88
:100AE000649FE00DF11D929FF00D839FF00D749FA8
:100AF000F00D659FF00D9927729FB00DE11DF91F54
:100B0000639FB00DE11DF91FBD01CF0111240895B0
:100B100097FB092E07260AD077FD04D049D006D0CE
:100B200000201AF4709561957F4F0895F6F790951F
:100B300081959F4F0895A1E21A2EAA1BBB1BFD01B0
:100B40000DC0AA1FBB1FEE1FFF1FA217B307E407AC
:100B5000F50720F0A21BB30BE40BF50B661F771F04
:100B6000881F991F1A9469F76095709580959095E4
:100B70009B01AC01BD01CF01089597FB092E05260D
:100B80000ED057FD04D0D7DF0AD0001C38F45095A2
:100B90004095309521953F4F4F4F5F4F0895F6F7A1
:100BA00090958095709561957F4F8F4F9F4F0895D9
:100BB000AA1BBB1B51E107C0AA1FBB1FA617B70783
:100BC00010F0A61BB70B881F991F5A95A9F780959F
:100BD0009095BC01CD010895EE0FFF1F0590F49193
:080BE000E02D0994F894FFCF09
:100BE8006469006E67200052696E676572206F6ED7
:100BF800210052696E676572206F666621002020A9
:100C08002F2020004C6973746F2100524D204C4FE7
:100C180057204C4F57204C4F57204C4F57204C4F84
:0E0C280057000100000000E4033104490400FD
:00000001FF
